:020000040000FA
:060000000213BC0208B26D
:03002B000210F8C8
:030033000209902F
:030053000207841D
:1000830002081001010000000000F8FF07FFFF0055
:10009300000504000000030001FFFFC8141027003F
:1000A300000020FD000206FFFF1E00760112161855
:1000B30016641B00000000000000000000000000A8
:1000C300000000000000000000000000000000002D
:1000D30000000000000000000000000000FF010419
:1000E300010C0002019186060B860204010C00023A
:1000F300000000019586010400005314000000E88D
:10010300030000FFFFA4140188130000E8030000AC
:1001130064006400B801A0BB0D00A0BB0D00020287
:1001230002070401051E02051E020A0A010108084E
:100133000103B80B02803E0102FEFFE8030A05003B
:1001430001FFFF020A011401E00100B0423BAAB81B
:100153003F0000003F8C906339AA0CA33A00941E21
:100163003C8042633DCFFE753E1572313F000080F7
:100173003FF304353F8096184B01000000000080D8
:10018300BF2292D43EDD9B2A3F04000040000000C2
:1001930000FFFF7F7FFFFF7FFF0100803418723174
:1001A3003F02000000050301010F030003000300E9
:1001B30003000300030003000300030005000A001B
:1001C300140028004F009E000000CE2C0000000009
:1001D300A22B00000000FF000000FF001213CC6000
:1001E300461213DB603DE9687008F618F618F61836
:1001F300F622748067F7120213090909748067F7FE
:10020300221213DB601D1213CC7005191919801A01
:10021300121271701F121285C37003E66733191926
:100223001940071818182208080874FFF618F6185A
:10023300F618F622121285601712147B702192F0C1
:100243001214697019501720F014080808090909D5
:10025300E7F61819E7F61819E7F61819E7F6221260
:10026300146960E6E869701F0808E62480F608E46C
:1002730036F618547FB47F0CE654806007F6E41812
:10028300F618F622181822E9C6CC08C6CD08C6CE41
:1002930008C6CFC0E0E8C0E0EAC0E0EBC0E009E98F
:1002A300F809E7FA09E7FBE6F918E6F8C3EC98ED75
:1002B30099EE9AEBC2E7F5F0EFC2E795F0500E60C6
:1002C3000CEBCFFBEACEFAE9CDF9E8CCF8EAA2E7EA
:1002D300D2E7FAEB33FB13F5F0EEA2E7D2E7FEEF3A
:1002E30033FFC5F013A2E730E601B313C5F0C3C073
:1002F300E0C0F07F00C39BFB605E9418600F401D5D
:1003030014601AD0E023F9D0E0F80203E58AF0E99B
:10031300486003D2F0E4AFF0FAF9F8803BEB30E445
:100323000D89F0EA6003D2F0E4AFF0F9CAF8EB30DC
:10033300E30D88F0EF6002D2F0AFF0E4CAC9F8EB46
:1003430054076014FBC3EA13FAE913F9E813F8EF4F
:10035300135002D2E0FFDBEDD0E0C0E030E739C359
:10036300E49FFFF5F0EC98FC42F0ED99FD42F0EECE
:100373009AFE42F0D0E0F9D0E0F8E5F0607AE923A4
:10038300F9EE20E742D8028067C3EF33FFEC33FC7A
:10039300ED33FDEE33FE80EAEC28FCED39FDEE3A59
:1003A300FED0E023F9D0E0F84002801BC3EE13FE39
:1003B300ED13FDEC13FCEF135002D2E0FF08B8007D
:1003C300067F7F74FF802EEF3350178CF020F002EE
:1003D30060100CBC000C0DBD00080EBE000408E844
:1003E30060DFE933E813FFEE2313FE4F4D4C800823
:1003F300E95480FFE4FEFDFCEE33EF33F47004FCBC
:10040300FD7E80D0E0FBD0E0FAD0E0F8D0E0CFC6AC
:1004130018CEC618CDC618CCC6F9221213DB700449
:10042300181818221213CC700D74FFF61819F61849
:1004330019F61819F622E7548066F6121469700F3C
:1004430012147B70F014F608F608F608F680D11241
:10045300147B700CF608F608768008E6447F80EC7F
:10046300121288700C12127460BFE65480F6E48096
:10047300BB121274700519191980A5E869700C76FE
:100483003F18768018F618F6E8F922E6CDC0E01892
:10049300ECC0E0E633CD33CDD313F6E719FCE7190F
:1004A3001933CC33C3947F400ECD9D502408E654BA
:1004B30080F6E418F6800FF4043D14501408E64463
:1004C3007FF6187680E418F618F6D0E0FCD0E0FD4D
:1004D30022CCD313CCFD18E4C6CBC0E018E4C6CAC3
:1004E300C0E00808ED08C633E613F618E433C67512
:1004F300F003C3CA97CA09CB97CB199C40047D0864
:10050300802EBD00030205C716B6FF0506060816B2
:1005130018C3CA33CACB33CB33CA27CA09CB37CBA9
:10052300193CC37D08803E187D0820E75CC633C6AE
:10053300CA33CACB33CB33DDF1D5F0EB30E77BCA1B
:1005430097CA09CB974ACB199C406F4B7025E6207D
:10055300E0218066187D08C3CA97CA09CB97CB19D7
:100563009CD3C633C6CA33CACB33CB3350C9DDE7BA
:10057300D5F0E1D3E4C636C608C636C608C636C6C5
:1005830008C636C61818188031C3CA97CA09CB974C
:10059300CB199CB34097C633C6CA33CACB33CB33CC
:1005A300DD34D5F02EC6A2E0C640C8CA27CA09CB9F
:1005B30037194A70BECB3CB480B90808E63308E665
:1005C30033601F181818D0E0FAD0E0FBD0E0FCD05D
:1005D300E0FD22187D08CA27CA09CB37CB193CD3C3
:1005E300808013F618E4B67F11F618B6FF0EF618DE
:1005F300C60470D20808768080CAF618F618F6800A
:10060300C5001213DB604F1213CC6012E7548066EF
:10061300F6121271701112147B703B090909F4F67A
:1006230018F618F618F622121285701512146908B6
:10063300080860EAE6447FF618768018E4F618F6B0
:1006430022121469601612147B7012E4F608F6087D
:10065300F608E65480F609090918181822EAC0E0DA
:10066300EBC0E0ECC0E0EDC0E0E687F0A4FBACF04B
:1006730008E687F0A42CFCE435F0FA1809E687F0C5
:10068300A42C4B60027401CA35F0FCE433FB09E689
:1006930087F0D2F7A42CCB35F0FC1908E687F0A439
:1006A3002BCC35F0FBE433FD0819E687F0D2E7A441
:1006B3002C4ACB35F0CD3400FC09E687F0D2E7A411
:1006C3002DCC35F0FDE433FA0918E687F0D2F7A410
:1006D3002CCD35F0CA3400FC08E687F0D2E7D2F718
:1006E300A42ACC35F07A7E20E70B0ACB33CBCD336B
:1006F300CDCC33CC33CB3350147004ED30E00ED279
:10070300F1E4CD3DCDCC3CCC3B5005DA05C2F1EB59
:10071300547FC63308E63392F0FBE73309E733C36C
:100723009A502D2B70190C0D4C4D70151806E608B8
:10073300C333700D20F10AA2F013F6E418800B40C6
:1007430024E4F630F002768018F618F618F68024C2
:10075300D33B14501074FFA2F013F6187680E418FC
:10076300F618F6800FA2F013F618E63303F618EC2A
:10077300F618EDF6D0E0FDD0E0FCD0E0FBD0E0FAD7
:1007830022C0E0C0D0E8C0E0E9C0E0EAC0E0EBC0CE
:10079300E0ECC0E0EDC0E0EEC0E0EFC0E0C008C0B8
:1007A30009C082C083C0F0A2AFE433F509D2AF859C
:1007B300A708AFA1EF5508FE74105E60061216D2AB
:1007C30075A1EF74085E60081216D875A1F780242E
:1007D300EFA2E092F0E508A2E082F0501790619852
:1007E300E0F8900636E0C398A2D265D0335002E811
:1007F300F075A1FE752300E509A2E092AFD0F0D019
:1008030083D082D009D008D0E0FF020898C0E0C0AE
:10081300D0E8C0E0E9C0E0EAC0E0EBC0E0ECC0E053
:10082300EDC0E0EEC0E0C082C083C0F0A2AFE4330D
:10083300FED2AF9061A4E0F8759B00E5915854088F
:1008430060087591F712171A8023E59158541060C8
:10085300087591EF1217208014E591A2E092F0E859
:10086300A2E082F05007E0C2E0F012185E9061A3AC
:10087300E0F8E5E9585404600E12184075E9FB905E
:100883006193E0A2E640F2752300EEA2E092AFD0BE
:10089300F0D083D082D0E0FED0E0FDD0E0FCD0E009
:1008A300FBD0E0FAD0E0F9D0E0F8D0D0D0E032C00D
:1008B300E0C0D0E8C0E0E9C0E0EAC0E0EBC0E0ECB3
:1008C300C0E0EDC0E0EEC0E0C082C083C0F0A2AFE4
:1008D300E433FED2AF9061A5E0F8E5BF585404605D
:1008E3000675BFFB12186A809E12094130F043124D
:1008F3000986803E8A088B098C0A8D0B78081209B9
:100903004120F01430E72B74FFFCFBFA747F802244
:10091300E4FCFBFA7480801AB48008BC00F2BB00CC
:10092300EF800F50EBF9E4C39AFAE49BFBE49CFCE1
:10093300E499C6CC18C6CB18C6CA18C6F922E4C9AE
:10094300C608CAC608CBC6D3330308CCC63392F055
:10095300C3947F402E94184019C9B90704CACBCC5D
:10096300225025C309CA33CACB33CBCC33CC33D9BA
:10097300F422F4600DC9CCC313CB13CBCA13CAD969
:10098300F6CC22E4FCFBFA2214FCFBFA22C0E0C002
:10099300D0E8C0E0E9C0E0EAC0E0EBC0E0ECC0E0D2
:1009A300EDC0E0EEC0E0C008C009C00AC00BC082C1
:1009B300C083C0F0A2AFE433FED2AFE58BA2E05018
:1009C300329005FF7404F0E58BA2E0E43390060057
:1009D300F0750819750900750A00750B007808127F
:1009E30011157A107B009005FDE0F9121A56740474
:1009F300121130758B00C2E8752300EEA2E092AFAE
:100A0300D0F0D083D082D00BD00AD009D008D0E068
:100A1300FED0E0FDD0E0FCD0E0FBD0E0FAD0E0F97E
:100A2300D0E0F8D0D0D0E032C3E498F8E499F912DA
:100A33000A6C8026C3E49AFAE49BFBE920E7E912F7
:100A43000A6CE498F8E499F922C3E498F8E499F974
:100A5300120A6CE498F8E499F9C3E49AFAE49BFB6C
:100A630022EB20E7CFE920E7E0B90010BB0008E85C
:100A73008AF084F8AAF022E4FBC8FA22EB70227B06
:100A830010C833C8C933C9335007C39AC3DBF280D4
:100A9300069A50012ADBEAC833F4C8C933F4C9FA09
:100AA3002275F008E4C833C8C933C933C99AC99B4E
:100AB3005004C92AC93BD5F0ECFBC833F4C8E4C9D8
:100AC300FA22080808EAC0E0EBC0E086F0E7A4FADF
:100AD300180986F0E7A42AFA180986F0E7A42AFA87
:100AE300180986F0E7A42AFA1986F0E7A4FBE5F0D3
:100AF3002AFA190886F0E7A42BFBE5F03AFA19085D
:100B030086F0E7A42BFBE5F03AFA18180986F0E71C
:100B1300A4C5F02BFBE43AFA1908E7C5F0C6A426EE
:100B2300F6E5F03BFBE43AFA1886F0E7A4F6E5F0C5
:100B33000826F6E43B08F6E43A08F6D0E0FBD0E0FA
:100B4300FA22080808E630E71112125D120B5D085D
:100B53000808C64480C618181822181818E9799E80
:100B6300C608CAC608CBC608CCC6C370207996CAC5
:100B7300CBCC7019798ECBCC70137986CC700EF9EF
:100B8300802ACA33CACB33CBCC33CC331930E7F208
:100B9300CCCBCA3350147004EA30E00DE4CA3ACA2D
:100BA300CB3BCBCC3CCC500209C3E913C6CC1823B6
:100BB30013C6CB18C6CA18C6F922E4CFC0E0E4CEE8
:100BC300C0E0E4CDC0E0E4CCC0E075F020E626F65A
:100BD30008E633F608E633F608E633F6181818EC99
:100BE30033FCED33FDEE33FEEF33FFC3EC9709ED3A
:100BF3009709EE9709EF97191919400FFFEC97FC26
:100C030009ED97FD09EE97FE191906D5F0BFECF72C
:100C130009EDF709EEF709EFF7191919D0E0FCD040
:100C2300E0FDD0E0FED0E0FF222521C582C0E0E553
:100C33002234FFC583C0E0E521C3958224F810AFB9
:100C4300088583228582218008858322858221D29B
:100C5300AFCEF0A3E520F0A37808E608F0A3DEFA10
:100C6300EFF0A3E58124FAF8E608F0A3E608F0A381
:100C7300E608F0A30808E608F0A3E608F0A3158148
:100C83001581D0E0FED0E0F8158115811581E8C00B
:100C9300E0EEC0E022121454B90003020CEAE4901F
:100CA3000501784179138002F0A3D8FCD9FA78239F
:100CB3009000867A01BA00028007E493A3F608DA6B
:100CC300F97A417B17900087785979028015E4936C
:100CD300A3AD82AE838A828B83F0A3AA82AB838D7A
:100CE300828E83D8E9D9E77582177583E27405127A
:100CF30010DA75820275832974001210DA121260F9
:100D0300181818120BBD12136B1919192212136B31
:100D1300191919080808E618181820E7E0120BBD7E
:100D230012126018181822090909E719191920E77E
:100D3300DC080808E618181820E703020BBD121296
:100D430060181818120BBD12126018181812136BC2
:100D5300191919220475F0108E248F25858229858F
:100D63008328852182852283E0CEA3E0CF85298253
:100D7300852883EBC9EAC8EDCBECCAC3E833C8E9DD
:100D830033C9EA33CAEB33CBC3EA9EF527EB9FF5AE
:100D930026B35004AB26AA27EC33CCED33CDD5F0E4
:100DA300DAAE24AF25221213DB601C1213CC6017BA
:100DB300121469700712147B7001D322C0D012146D
:100DC3007B7006D0D0B322C32233D0D0501430E08E
:100DD300F6C3E7960809E7960809E7960809E79630
:100DE300B32220E0D5E6970809E6970809E69708B5
:100DF30009E697B322D083D082ECC0E0EDC0E0E4F3
:100E030093A3FCE493A3FDED4C600D120F1CEC24A3
:100E1300FFFCED34FFFD80EFE493A3FCE493A3FD1B
:100E2300ED4C600D120FE5EC24FFFCED34FFFD806B
:100E3300EFD0E0FDD0E0FCE493A3C0E0E493C0E096
:100E4300221213DB601B1213CC6016121469700795
:100E530012147B600CB322C0D012147B7005D0D067
:100E630022C32233D0D0501330E0EBC3E7960809F6
:100E7300E7960809E7960809E7962220E0E4E69753
:100E83000809E6970809E6970809E69722D083D070
:100E930082E9C0E0E493A3C386F0C5F095F0F908B6
:100EA300E493A386F0C5F095F0700BE493A3C39984
:100EB3004005E9048002A3E475F002A42582F582CB
:100EC300E5F03583F583D0E0F9E493A3C0E0E49340
:100ED300C0E022852283852182E0A3FEE0A3F520E2
:100EE3007808E0A3F608DFFAE0A3FFE0A3C0E0E0A0
:100EF300A3C0E0E0A3C0E0E0A3C0E0E0A3C0E01033
:100F0300AF088582218583228008858221858322FB
:100F1300D2AFD083D0820210E0C0E0C3E49396083E
:100F23007401939618400FE4936670080874019354
:100F3300661870007019A3A3C3E493960874019311
:100F43009618A3A3400DD0E0D0E0D0E0020E34A366
:100F5300A3A3A3A3A3D0E02274048004740280009B
:100F6300CCC0E0EDC0E0E521C39CCCAD2250011D17
:100F730010AF068C218D2280068C218D22D2AF12D8
:100F8300105CD0E0FDD0E0FC2274028000CCC0E015
:100F9300EDC0E0E521C39CCCAD2250011D10AF068E
:100FA3008C218D2280068C218D22D2AF12103AD053
:100FB300E0FDD0E0FC221213DB60251213CC60208D
:100FC300121469700302147B080808E7667010188E
:100FD30019E766700A1819E76670041819E766229C
:100FE300F422C0E0C0F088F0E4936670080874014E
:100FF3009366187000A8F0A3A3700BD0F0D0E0D0D4
:10100300E0D0E0020E34A3A3D0F0D0E022D083D00E
:1010130082CCC0E0E493A360061210BB1470FAE420
:1010230093A360061211DF1470FAD0E0FCE493A3DB
:10103300C0E0E493C0E022CAC0E0E493A3C582CC3D
:10104300C582C583CDC583F0A3C582CCC582C583C4
:10105300CDC583DAE5D0E0CA22CAC0E0E0A3C582E9
:10106300CCC582C583CDC583F0A3C582CCC582C55B
:1010730083CDC583DAE6D0E0CA22700908080822C6
:101083006016181818C6C333C608C633C608C63355
:10109300C608C633C6D5E0EA22C008C3E096F50801
:1010A30008A3E096420808A3E096420808A3E09646
:1010B30045087001D3D00822C0E0E493A3D39C5029
:1010C30010E493A3C39C400AD0E0D0E0D0E0021028
:1010D3002DA3A3A3D0E022C09FF59FE473D09F224A
:1010E300D083D082C09FE493C0E0740193C0E074C6
:1010F3000293F59F22C0E0C0D0E8C0E0A8A8D2AF19
:10110300C2C7752300E8A2E792AFD0E0F8D0D0D0F1
:10111300E0327404800A740380067402800274014E
:10112300C0E0F40412114BD0E01214172200C0D017
:10113300252110AF08F521500C05228008F5215018
:10114300020522D2AFD0D0222521F58210AF08F5B7
:1011530021400C15228008F52140021522D2AF85CB
:10116300228322BB0102E722C082C08389828A8351
:10117300BB0003E08002E493D083D0822260160890
:101183000808C6C313C618C613C618C613C618C69E
:1011930013C6D5E0EA222521F8E43522F9222521D8
:1011A300FAE43522FB222521FCE43522FD22C3E0AB
:1011B300C696F608A3E0C696F608A3E0C696F60818
:1011C300A3E0C696F622252110AF08F521400C15A1
:1011D300228008F52140021522D2AF22C0E0E49319
:1011E300A36C7009D0E0D0E0D0E002102DA3A3D00F
:1011F300E022C3E7960809E7960809E7960809E796
:1012030096A2D265D03322C3E09608A3E09608A342
:10121300E09608A3E096A2D265D03322E766701069
:101223000809E766700A0809E76670040809E766B3
:1012330022E066701008A3E066700A08A3E06670F7
:101243000408A3E06622C3E096F008A3E096F00842
:10125300A3E096F008A3E096F022181818E4C396CA
:10126300F608E496F608E496F608E496F6221818CB
:1012730018E60846087009E626087005E633F422E6
:101283000822191919E70947097009E727097005A1
:10129300E733F4220922C3E697F60809E697F6082E
:1012A30009E697F60809E697F622C3E493960874CD
:1012B3000193960874029396087403939622E62783
:1012C300F60809E637F60809E637F60809E637F6B9
:1012D30022700422600D18C6C333C608C633C6D5B0
:1012E300E0F41822E657F60809E657F60809E65728
:1012F300F60809E657F622E056F608A3E056F60884
:10130300A3E056F608A3E056F622E056F008A3E061
:1013130056F008A3E056F008A3E056F022E026F6C4
:1013230008A3E036F608A3E036F608A3E036F62273
:10133300E026F008A3E036F008A3E036F008A3E0C7
:1013430036F022E647F60809E647F60809E647F6C7
:101353000809E647F62206E6700D0806E670080857
:1013630006E670030806E622E4C397F709E497F755
:1013730009E497F709E497F722600D08C6A2E7137B
:10138300C618C613C6D5E0F322C6F4C608C6F4C60B
:1013930008C6F4C608C6F4C622C3E7960809E7964A
:1013A3000809E7960809E79622C3E09608A3E096A2
:1013B30008A3E09608A3E0962275D00075813F75D7
:1013C300210175220500020C98E7094709C3134759
:1013D30009336002E733F422E6084608C3134608DC
:1013E300336002E633F422600C08C6C313C618C682
:1013F30013C6D5E0F422E0F608A3E0F608A3E0F66E
:1014030008A3E0F622E6F008A3E6F008A3E6F00856
:10141300A3E6F022CAC0E0E6F0A308DAFAD0E0FAC5
:1014230022EAF0A3EBF0A3ECF0A3EDF022E8F0A3A3
:10143300E9F0A3EAF0A3EBF022E0F8A3E0F9A3E0DC
:10144300FAA3E0FB22E0FAA3E0FBA3E0FCA3E0FDA8
:1014530022E5C754F84401F5C77901222521F58215
:10146300E43522F58322E62618461846184622C29A
:10147300AF75D69F02000022E7271947194719477E
:1014830022E96004F800D8FD221210E3E5D104122A
:1014930010E36FD2041210E3FBD2041210E38DD3D6
:1014A300041210E3E1D3041210E309D4041210E38D
:1014B3009BD4041210E32ED5041210E37CD504123E
:1014C30010E303D6041210E341D6041210E314D838
:1014D300041210E3ECD8041210E3CAD9041210E387
:1014E30035E1031210E359E2031210E3FAE20312A7
:1014F30010E37AE4031210E33EE5031210E383E6FC
:10150300031210E3D2E7031210E393E9031210E38B
:10151300B9EB031210E377EC031210E37EEE031230
:1015230010E37CEF031210E3E6EF031210E31FF363
:10153300031210E3D0F6031210E348F9031210E389
:101543002CFB031210E3B5C5051210E3E1C5051228
:1015530010E378C7051210E353C8051210E3E9C876
:10156300051210E365F5051210E398F5051210E373
:10157300D4BE051210E328BF051210E378BF05128D
:1015830010E3B3BF051210E348DB051210E30FDCD1
:10159300051210E340DD051210E396EF051210E388
:1015A300A7EF051210E341F0051210E34CF005120A
:1015B30010E364F0051210E3FD7F001210E3ECFF6B
:1015C300021210E3C1ED051210E3D1ED051210E391
:1015D300E6ED051210E3B0EE051210E3BDEC0512C3
:1015E30010E342ED051210E3A8ED051210E3CED28D
:1015F300051210E3E7D2051210E33CD3051210E302
:101603005FD3051210E3CFD3051210E30FD40512F5
:1016130010E372D4051210E35BD5051210E3B6EEA6
:10162300051210E33DEF051210E346EF051210E338
:101633006DEF051210E384EF051210E368960512AF
:1016430010E3AC96051210E34A98051210E387994C
:10165300051210E36D9B051210E3B89B051210E30E
:10166300F69B051210E3B3D8051210E3FFD8051259
:1016730010E345DB051210E39EA1051210E3C9A197
:10168300051210E3DAA4051210E3B4A5051210E362
:10169300D5A5051210E3F1A5051210E30AA605125C
:1016A30010E304E4051210E339E4051210E374E4D3
:1016B300051210E3E6E4051210E316E5051210E344
:1016C30043E5051210E34DE5051210E3AAE5051203
:1016D30010E3ADE5051210E3C0E5051210E3CCE518
:1016E300051210E3AECF051210E302D0051210E38A
:1016F30052D0051210E3C0D0051210E301D1051238
:1017030010E35AD1051210E369D1051210E391D108
:10171300051210E382D2051210E38FD2051210E3F3
:10172300A0D2051210E310F3051210E360F30512C3
:1017330010E38AF3051210E34F9C051210E3B09DEA
:10174300051210E3BD9D051210E3D09D051210E3B1
:10175300E59D051210E3FA9D051210E30D9E051297
:1017630010E3D49E051210E34A9F051210E3CC9FA9
:10177300051210E375A0051210E34EA1051210E344
:101783005EA1051210E36DA1051210E375F20512B7
:1017930010E39AF2051210E3C3F2051210E3EBF221
:1017A300051210E3B0DD051210E3D7DD051210E3D7
:1017B3004EDE051210E34AC2051210E363C205129E
:1017C30010E381C2051210E395C2051210E3B3C200
:1017D300051210E3BDC2051210E3C7C2051210E3E0
:1017E300DAC2051210E3CBC3051210E33CC40512A1
:1017F30010E367C4051210E3B5C4051210E302C574
:10180300051210E31DC5051210E327C5051210E3E9
:1018130072C5051210E35AF4051210E3A5F405127C
:1018230010E30080051210E33480051210E35680A4
:10183300051210E36F80051210E38980051210E38F
:10184300F480051210E32781051210E30C870512BB
:1018530010E39788051210E31689051210E3A48A92
:10186300051210E3BF8A051210E3328B051210E351
:10187300D5E5051210E3E5E5051210E31DE60512B3
:1018830010E336E6051210E3A7E6051210E3CCE6F3
:10189300051210E3F7E6051210E34DE7051210E316
:1018A30073E7051210E372F0051210E3B6F00512A8
:1018B30010E351B6051210E358B6051210E30BB846
:1018C300051210E32FB8051210E3BDB8051210E39B
:1018D3009CB9051210E3FBB9051210E390BA051287
:1018E30010E3DBBA051210E380FE041210E392FE4C
:1018F300041210E3A7FF041210E3AAFF041210E37B
:101903002BE9051210E361E9051210E377E90512EB
:1019130010E3B9E9051210E3FFE9051210E343EA06
:10192300051210E34DEA051210E37EF6041210E3EC
:10193300BBF6041210E320F7041210E33DF7041280
:1019430010E3F4F7041210E3FEF7041210E34BF86C
:10195300041210E379F8041210E363F9041210E39C
:1019630080FA041210E3CEFA041210E313FB0412FC
:1019730010E37EFB041210E3F1FB041210E34CFCB2
:10198300041210E387FC041210E3C8FC041210E3F2
:10199300DAFC041210E3ECFC041210E30BFD041256
:1019A30010E314FD041210E3CBFD041210E31CFE3C
:1019B300041210E356FE041210E308F5051210E3B7
:1019C300A0E7051210E367CC051210E39DCC0512C6
:1019D30010E3ECCD051210E345CF051210E3A7A2E7
:1019E300031210E325A9031210E3CDAF031210E392
:1019F3005FB2031210E3C2B4031210E360B5031223
:101A030010E338B7031210E371B9031210E39EBC5D
:101A1300031210E3ACBC031210E376BD031210E310
:101A230017BE031210E37EC3031210E328C403128C
:101A330010E3D4F1051210E3ECF1051210E3F6F113
:101A4300051210E34AF2051210E36EB1051210E31A
:101A530080B1051210E36EB2051210E39FB20512B6
:101A630010E3ECB2051210E34CB3051210E3B8B364
:101A7300051210E3D5B5051210E344B6051210E3C1
:101A830067EA051210E3EBEA051210E341EB0512D6
:101A930010E380EB051210E3E4FE011210E3A2FF52
:101AA300011210E394C3011210E3A0C3011210E367
:101AB30045C4011210E3C1C4011210E310C60112A0
:101AC30010E3A3C6011210E346C7011210E345C990
:101AD300011210E325CC011210E320D1011210E30F
:101AE30070D3011210E35DD9011210E3A0DE0112DD
:101AF30010E35FE9011210E361EA011210E3F9EA6E
:101B0300011210E322EB011210E3D3EB011210E3F5
:101B13004CEC011210E303EE011210E324EE011268
:101B230010E3CAEE011210E3BDEF011210E32AF233
:101B3300011210E3B2F2011210E31DF6011210E3D9
:101B43002EFB011210E3BFFB011210E3FAFB01129B
:101B530010E350AC051210E337AD051210E31DAED0
:101B6300051210E30DB0051210E32DB0051210E3BA
:101B7300F6FC031210E395FD031210E345FE031276
:101B830010E38B99041210E3009A041210E3879A6E
:101B9300041210E3D69C041210E30E9E041210E309
:101BA300F59F041210E311A0041210E360A00412C5
:101BB30010E3BDA0041210E336A1041210E36CA5D8
:101BC300041210E370A6041210E3D0A7041210E36A
:101BD300C0A8041210E34CA9041210E385A904124F
:101BE30010E3A3AA041210E346AB041210E3CEAB36
:101BF300041210E37AAE041210E3A1AF041210E34F
:101C0300F1AF041210E305B1041210E32DB1041275
:101C130010E330B1041210E33EB1041210E362B1D9
:101C2300041210E3D2B1041210E30BB2041210E356
:101C330037B2041210E34AB2041210E38DF3051213
:101C430010E3FDFF011210E369B2041210E38CB23A
:101C5300041210E3F0B3041210E339B4041210E3D6
:101C6300E4B4041210E34DB5041210E350B50412AA
:101C730010E3E2B5041210E36BB6041210E31CB7D1
:101C8300041210E31FB7041210E3BDB7041210E3EC
:101C93003ABD041210E3FABE041210E32FBF04127C
:101CA30010E3EAC2041210E318C4041210E32FC5B0
:101CB300041210E3FBC5041210E31BC7041210E364
:101CC300E2C8041210E30080041210E30A81041234
:101CD30010E3B781041210E3C182041210E39A8364
:101CE300041210E35084041210E31E85041210E35F
:101CF3002F87041210E33089041210E3228A04129E
:101D030010E3FC8C041210E3588E041210E35B8F73
:101D1300041210E33A91041210E34894041210E3FE
:101D23006996041210E30297041210E32698041232
:101D330010E317C5031210E37CC5031210E3DDC5DE
:101D4300031210E3B0C7031210E354C8031210E3E5
:101D53007DC8031210E376CC031210E38DCC03127B
:101D630010E390CD031210E34DCF031210E358D0CC
:101D7300031210E30DD1031210E38DD1031210E30C
:101D83003ED2031210E32AD4031210E30CD503123C
:101D930010E373D6031210E384D8031210E30DDBB0
:101DA300031210E3EDDC031210E3B0DD031210E3C2
:101DB30028DE031210E33FDE031210E340DF0312B9
:101DC30010E323E0031210E392E0031210E32FBBAE
:101DD300051210E326BD051210E3BDBD021210E388
:101DE30049BE051210E31CC9051210E372C905129E
:101DF30010E3BBC9051210E3E3C9051210E309CAD6
:101E0300051210E321CA051210E3E9CA051210E313
:101E1300FECA051210E321CC051210E32ACC0512E9
:101E230010E333CC051210E33CCC051210E346CC8F
:101E3300051210E326A7051210E349AC051210E3BF
:101E43004EAC051210E38CE2051210E3DF7F0012A3
:101E530010E3DDD5051210E39FEB051210E3F1F358
:101E6300051210E308E0051210E37FD0041210E31B
:101E7300F47B001210E3B1F4051210E3C1F4051270
:101E830010E38CFB021210E3D3D5021210E306D643
:101E9300021210E372D6021210E30DD7021210E3FE
:101EA300AAD7021210E3EFD7021210E311D80212DD
:101EB30010E32AD8021210E350D8021210E372D8AA
:101EC300021210E3B0D8021210E3F4D8021210E3A6
:101ED30016D9021210E378D9021210E33FDA021284
:101EE30010E3F6DA021210E368DB021210E333DCCC
:101EF300021210E386DC021210E3ECDC021210E3A0
:101F030026DD021210E378DD021210E3E6DD021291
:101F130010E351DE021210E354DE021210E3D5DEA9
:101F2300021210E36CDF021210E3ECDF021210E383
:101F33000BE0021210E36FE1021210E37CE10212E4
:101F430010E388E2021210E395E2021210E39EE22C
:101F5300021210E376E4021210E390E5021210E39A
:101F630009E6021210E37BE6021210E39DE6021279
:101F730010E331E7021210E305E9021210E3DCEC8F
:101F8300021210E3F0EC021210E300ED021210E370
:101F93000AED021210E313ED021210E31CED02121C
:101FA30010E326ED021210E353ED021210E37CED71
:101FB300021210E387ED021210E3ABED021210E3FD
:101FC300CFED021210E339EE021210E37FEE02129C
:101FD30010E39CEE021210E319EF021210E350EF2C
:101FE300021210E38FEF021210E3DCEF021210E390
:101FF30062F0021210E330F2021210E3B3F20212A3
:1020030010E397F3021210E3FEF5021210E357F602
:10201300021210E3A1F6021210E3FCF7021210E31E
:1020230031F8021210E383F8021210E338F90212B6
:1020330010E3E7F9021210E324FA021210E3B9FAEB
:10204300021210E325FB021210E3372F001210E3F4
:10205300692F001210E3972F001210E36D31001265
:1020630010E34D32001210E3A532001210E3E03307
:10207300001210E32C34001210E35537001210E362
:10208300483A001210E3983B001210E32E3C001272
:1020930010E33A3C001210E36C3C001210E3EF3DF6
:1020A300001210E3A03F001210E33440001210E3CB
:1020B3007740001210E3F540001210E312410012C2
:1020C30010E34241001210E37741001210E347424C
:1020D300001210E3F042001210E37645001210E301
:1020E3009646001210E38147001210E303480012E2
:1020F30010E3374C001210E3744C001210E3CC4C85
:10210300001210E3FF4C001210E3694D001210E3BC
:102113009F4D001210E32A4E001210E3824E00126C
:1021230010E3594F001210E31250001210E3AD50A8
:10213300001210E3B553001210E3D154001210E360
:102143007458001210E36859001210E36B5900121F
:1021530010E39A59001210E3A05B001210E3795CBC
:10216300001210E3BC5C001210E3125E001210E3D5
:10217300515E001210E3DA5E001210E30E5F0012EC
:1021830010E3D35F001210E3EB61001210E35C6213
:10219300001210E39C62001210E32A63001210E3A2
:1021A3004C64001210E30E65001210E31567001271
:1021B30010E32D67001210E34167001210E3796703
:1021C300001210E3A767001210E32669001210E360
:1021D3004B6A001210E3A86A001210E35A6B001254
:1021E30010E3816B001210E3486C001210E3E06C03
:1021F300001210E3066F001210E33B6F001210E3AE
:102203009E6F001210E3CD70001210E3757100127F
:1022130010E3A671001210E3BE71001210E34D72B9
:10222300001210E30175001210E3D976001210E3D7
:10223300F576001210E31177001210E3DF77001236
:1022430010E3D27B001210E39D86011210E3CF86C8
:10225300011210E3BE8A011210E30A8B011210E38C
:10226300508B011210E3F28B011210E34E8C01121A
:1022730010E3938C011210E3DA8D011210E3EE8E5A
:10228300011210E3DD92011210E36193011210E3D6
:102293006E94011210E3CA94011210E3BA9601126C
:1022A30010E32F97011210E33997011210E34697B9
:1022B300011210E37197011210E35898011210E311
:1022C3000299011210E38099011210E3A0990112FF
:1022D30010E3C999011210E3EB99011210E34B9C2F
:1022E300011210E3119D011210E3569D011210E338
:1022F300D39D011210E3849E011210E3B69E0112D6
:1023030010E3FC9E011210E3389F011210E3889F33
:10231300011210E3DC9F011210E332A0011210E35B
:102323007EA0011210E3EBA0011210E366A10112DB
:1023330010E331A3011210E331A4011210E356A5F7
:10234300011210E395A8011210E3A8AB011210E3E8
:1023530065AC011210E3A9AC011210E359AE0112EE
:1023630010E36DAE011210E377AE011210E381AEFC
:10237300011210E38DAE011210E3A9AE011210E3B6
:1023830054AF011210E393AF011210E39DAF01129A
:1023930010E3A7AF011210E317B0011210E362B00C
:1023A300011210E377B1011210E3D3B1011210E36C
:1023B30054B2011210E313B3011210E31CB401125F
:1023C30010E350B5011210E33EB6011210E356B606
:1023D300011210E3B1B6011210E3CFB6011210E3FC
:1023E30017B7011210E33EB7011210E3D9B7011278
:1023F30010E39FB8011210E331B9011210E3ABB936
:10240300011210E3C5BA011210E372BB011210E30B
:102413009ABC011210E3EABC011210E34EBD011293
:1024230010E3B0BD011210E3DEBD011210E302BEE2
:10243300011210E337BE011210E368BE011210E36C
:102443009BBE011210E3BBBE011210E323BF0112B6
:1024530010E317C0011210E372C0011210E39BC016
:10246300011210E323C1011210E3A6C1011210E30C
:10247300D1C1011210E3B6C2011210E3538B05124E
:1024830010E38B8B051210E3AC8B051210E3EE8B7C
:10249300051210E3508C051210E35A8C051210E359
:1024A3006A8C051210E3A58C051210E385900512C2
:1024B30010E37292051210E35894051210E3EF949F
:1024C300051210E39195051210E32481021210E323
:1024D300A281021210E3FE81021210E3498202126A
:1024E30010E36482021210E38F82021210E3AC82C3
:1024F300021210E3B882021210E34F84021210E3B7
:102503006884021210E3ED84021210E300850212C4
:1025130010E31F85021210E3C385021210E3448700
:10252300021210E3F788021210E38D89021210E3FE
:102533009089021210E3008A021210E31E8A02122B
:1025430010E3B58A021210E3FD8A021210E3008B36
:10255300021210E3C68B021210E3338C021210E353
:10256300598C021210E3E48C021210E3028D021262
:1025730010E3488D021210E3FC8D021210E3468E25
:10258300021210E3758E021210E3D28E021210E3D0
:10259300078F021210E3338F021210E3418F0212EE
:1025A30010E38E8F021210E3FE8F021210E34790A6
:1025B300021210E39390021210E3BF90021210E391
:1025C300CA90021210E3E890021210E3D3910212B0
:1025D30010E3DD91021210E31892021210E3289225
:1025E300021210E33192021210E38592021210E3F9
:1025F3009992021210E3C893021210E3DF930212BE
:1026030010E3F493021210E38294021210E3C794CE
:10261300021210E35395021210E35E95021210E3C7
:10262300A096021210E3BB96021210E30797021260
:1026330010E37697021210E3AF97021210E3C997E3
:10264300021210E30B98021210E3DB9A021210E35A
:10265300889B021210E3F59B021210E3359E0212CF
:1026630010E34D9E021210E3509E021210E35C9E93
:10267300021210E3709E021210E3789E021210E31E
:10268300AB9E021210E3AD9F021210E334A00212BC
:1026930010E3A4A0021210E326A1021210E3E7A1A3
:1026A300021210E306A2021210E3A7A2021210E321
:1026B30004A3021210E307A3021210E334A30212CD
:1026C30010E349A3021210E3BDA3021210E30CA509
:1026D300021210E312A6021210E39DA6021210E3E7
:1026E300B8A7021210E380A8021210E3B1A80212E5
:1026F30010E3D4A8021210E3DDA8021210E30CA920
:10270300021210E39CA9021210E352AA021210E370
:10271300C7AA021210E36EAB021210E3E3AB02127C
:1027230010E31AAC021210E358AC021210E38EACA1
:10273300021210E38BCF041210E348BD021210E320
:10274300E1BC021210E324BB021210E312B702121F
:1027530010E3A9B1021210E3D7AF021210E306AEE1
:10276300021210E34EAD021210E31BAD021210E38E
:10277300EBAC021210E39AE9041210E3ECCE04125C
:1027830010E3A1CE041210E366E7041210E39CE603
:10279300041210E386CE041210E37FCB041210E37D
:1027A300EFE5041210E3E5E5041210E3D1E50412AA
:1027B30010E38FE4041210E31EE3041210E3ACDF12
:1027C300041210E368DB041210E3B2DA041210E31C
:1027D30091A2031210E387A2031210E3959E031242
:1027E30010E3739D031210E3299D031210E3469B2C
:1027F300031210E39F95031210E3CA91031210E32F
:102803004C91031210E38190031210E30B90031217
:1028130010E33B8F031210E39D8E031210E3F18C40
:10282300031210E31B8C031210E3718B031210E3EA
:102833006C8B031210E333CB041210E3F0CA0412BF
:1028430010E374CA041210E329F1051210E393D1C3
:10285300021210E35CCF021210E3FBCC021210E36E
:10286300608B031210E3E285031210E3B0850312B9
:1028730010E34285031210E387C9021210E3938425
:10288300031210E3DB83031210E39183031210E3BB
:102893008683031210E389C4021210E31881031222
:1028A30010E3C0FF021210E37480031210E32E80C2
:1028B300031210E30080031210E33EF6041210E348
:1028C30011F6041210E383F5041210E349F5041220
:1028D30010E3B9F1041210E311EF041210E3F6EB65
:1028E300041210E348EB041210E3C9EA041210E3E4
:1028F300D1E9041210E37DC3021210E3E5BD050024
:10290300000080FB000022E4738F0001000218879F
:10291300000100001835000400C91725000200CD8E
:102923001726000200CF1727000200D11728000145
:1029330000DB1729000100DC17840004002F158633
:102943000001004F172A000100DD172B000100DEF4
:10295300172C000100E2172D0008003B152E000183
:1029630000E3172F000100E41730000100E51731E1
:10297300000100E617320001004315330001004453
:102983001534000100E71736000100451538000132
:1029930000E81739000100E11783000200FE176306
:1029A300000100511564000100DF1765000100E01C
:1029B300176D000100521571000800331566000100
:1029C30000FD1743000100EE1744000200EF174516
:1029D300000100F11746000200F217470008004902
:1029E3001548000100F4174B000100F5170400011E
:1029F300000118A100010005183700010004188820
:102A030000010003183C00010046153D000100E9E8
:102A13001749000200F6176700010053154D000225
:102A230000F8174E000100FA174F000200FB173E93
:102A3300000100ED1751000100471552000100EBA2
:102A43001753000100EC1754000100481500000063
:102A530000000000013636010100010201000103FC
:102A63000100010401060605020000070100340805
:102A730001000F090401010D0100FF0E08000017FA
:102A8300020000190100FF1A0100011B0100FE1CD6
:102A93000100081D0200001F0100012001000121A7
:102AA3000200002301000F24020000260100012779
:102AB300010008280200FF2A0100072B0102402C15
:102AC3000100002D0100012E0100012F0100FF3044
:102AD300010B1D310800003A0100083B01000F3CC7
:102AE3000100013D0100FF3E0400004204000046D6
:102AF3000400004A0400004E040000520400005683
:102B03000400005A04000000000000200198860021
:102B1300000100200197860000020020019A860030
:102B2300000300200199860000040042013586005D
:102B330000050042012386000006004201B585001E
:102B430000070030019B86000000404201B585006C
:102B530000FDFF2101938601002000200557170186
:102B6300002100200558170004000021052314024A
:102B73000400002905151403040000290517140394
:102B8300041000290519140304140028019A1705D9
:102B930004000021051B140804000021051D140175
:102BA3000371030103010301030103010322030270
:102BB30003010310030003000300030003000300E9
:102BC300030003420300032403060300030003047A
:102BD3000312032503230325032303040304030030
:102BE30003000300034403000300032303000365FE
:102BF30003210035038103000305030003000300E1
:102C03000300032503230303027102300160021151
:102C13000270020102020202028002100261023A01
:102C23000041006302730272026202430200021354
:102C33000238000002000204021202000200020035
:102C430002000204020402370037003C024402007F
:102C5300023900000200026502000235028102000F
:102C630002050282028302000201017101010101D6
:102C73000111010101310101010101800110016113
:102C8300013B0014006301730172016201430100FF
:102C930001130106013D0135000401120100010089
:102CA300010001000104010401330133013C01442B
:102CB3000132013600000100016501000135008188
:102CC300010001050182018301000103007100304D
:102CD30001600011007000310220035004800010D5
:102CE300006100000014006300730072006200437F
:102CF30000000013000600000000000400120000A2
:102D03000000000000000004000400370037003C0E
:102D130002440000000000000000006500000035D0
:102D23000081000000050000008300000036000160
:102D330000060000000F000000000000000000007B
:102D430000000003FFFF00000403FFFF0000FFFF7C
:102D53000FF4010005C4040320000100000B000070
:102D630000000000000003010F000000000000004D
:102D73000000000000000000000000000000000050
:102D830000000000000000000000002E1B4C1B345C
:102D93001BB61A0000000000000000000000000045
:102DA3000000003A1BB61A00000000401BB61A00D0
:102DB30000000000000000461BB61A0000000000DF
:102DC3000000000000000000000000000000000000
:102DD30000000000000000000000000000000000F0
:102DE300000000000000000000EA1C0100EA1C02D1
:102DF300006C1C0280661C0300721C0400781C0417
:102E0300807E1C0500841C06008A1C31009C1C3338
:102E130000A21C3400A81CFFFF00000300030004F1
:102E230000080010001F003E007B00F600EC01D7F5
:102E330003AF075D0FB91E713D000007ECFDFDFDFB
:102E4300ECDCDCCCBCACAC9C9C8C7C7C6C6C5C5CAF
:102E53005C4C4C3C3C2C2C1C1C03EAF5E5D5D5C53D
:102E6300B5A595958585757565655555454535357F
:102E730025251515050AC022028A220596220790E8
:102E8300220C72220D7E22FF000000160F00000BA1
:102E9300150B020002220F3300000E0F5A6967421E
:102EA3006565416C6C69616E63653039D0D1D2D38D
:102EB300D4D5D6D7D8D9DADBDCDDDEDF303016184F
:102EC3001920231A1C1E3000034D4C4651181A2595
:102ED30005020001191618161618230300303017BF
:102EE300181921301B1D1F30003C40423A3F3F3927
:102EF3002F47300C0E020B040B0A0708000F0204C5
:102F0300020101010109020204000029052114E85C
:102F130003000000BE040A24000300E803010009C3
:102F2300100113031E1E030A0C04050828020C05D6
:102F33000815FF0FC082C08312284290157E746269
:102F4300F0A37420F09015807468F0A37420F090BF
:102F53001582746EF0A37420F09015847474F0A33A
:102F63007420F0025C7274F7120C2C901572E4F06A
:102F7300E9901571F07C497D157A737B15121A92CD
:102F83009017F4E090157BF090157C7433F0A374E4
:102F930015023EFF74F0120C2CEAFEEBFF54807016
:102FA30003023108901571123F947003023101EA54
:102FB300241B1257FF707CEA241F1257FF641370FF
:102FC30002A3E0706E8A828B8312315690158C12A5
:102FD3004D91750A00750B00800D123DD5126E716F
:102FE3001219D8AA0EAB0FEA4B60488A828B83E092
:102FF300650C7004A3E0650D702C8A828B83A3A3F8
:10300300A3A3E0F50EA3E0F50FE50A450B8A828B37
:1030130083A3A3A3A360C31240D7850A82850B832E
:10302300A3A3A3A380B78A0A8B0B8A828B83124D37
:103033008D80B4E508242A1257FFFCE5082402F822
:10304300E43509F9E8FAE9FB90158C12323DA3A3A4
:10305300E06402703C8A828B83124D91800B8882DC
:103063008983A3A3A3A31240D7E849601F88828959
:1030730083E06A7003A3E06B70E488828983A3A36F
:10308300E06C70DA9017FA125B2F806BECF9122068
:103093009E850882850983E06401704FE508241842
:1030A30012313F121121126419120F5BE508241229
:1030B30012313F121121E508123F8812111DE50854
:1030C300240B12641D120F5FE5082417123F25E538
:1030D300082402FCE43509FDE5082419FAE435095E
:1030E300FB1228DE740A121130800CE064027007B0
:1030F300AA08AB0912217CAA08AB0912194EEEFAF1
:10310300EF6480802DEA5402600C9018657401F01E
:10311300EA6402FA8023EA5408601A122098EA4B00
:10312300700B90158E1262F47A0812314CEE64081B
:10313300FAEFFB80047A007B00026AA3F582E43590
:1031430009F583E0F50A780A22FB901571E0F9127C
:103153001A6222A3A3E0F50CA3E0F50D227B0090F5
:103163001571E0F9121A5674042274F4120C2C8AA5
:10317300088B098A828B83A3A3A3124B89123F3046
:1031830038F583E02409FA126A3B70030232308A6D
:10319300828B837402124BFE850882850983123267
:1031A3003DE8F0A3E91266B58A828B83A3A3A3A3A8
:1031B300A3A3A3A3F0E5082403F8E43509123232EC
:1031C300123F303AF583E08E828B83A3A3A3A3F04F
:1031D300EE2409FAE43FFB8E828F83A3A3125DE101
:1031E300F5838882E0A2E58E828F83A3A3A3A3A3A2
:1031F300500474018001E4F0E5082403F582898317
:10320300124D91EA1253123BF583126A02121119FD
:10321300123F2F3B125ED38E828F83A3A3127BB107
:10322300121130EEFAEFFB901571126A888016F9CD
:103233008882F583E0FAA3E0CA22124F2EA3A322C9
:1032430074021211307F04020ED674F2120C2C8A0F
:10325300088B09ECFAEDFB740E12145FE0FC1227E5
:10326300348A0C8B0DAE0CAF0DEA4F6030AC08AD59
:1032730009122782E96026AC08AD09EEFAEFFB12CA
:10328300277CE970148E828F831240C4FAEFFB12FD
:103293002794AA08AB091214987900800279B40222
:1032A3004E7D74F0120C2C74F61211C9EAFEEBFF7A
:1032B3008C088D09750FB3852182852283E4F0750F
:1032C3000E008002050E902F2DE493F8E50EC398AF
:1032D30040030233CCAA0E7B001214B68A0A8B0B6E
:1032E300EA4B60E08A828B83A3A31233D328F0F8DE
:1032F300C3EE98EF940050CC7C157D007900AA08AA
:10330300AB09121936850A82850B83A3A3A3A312E3
:103313006EAEE0F8EEC3982925E0F8E433F9E50A48
:1033230028F582E50B39F583A3A3A3A3A3A3123F37
:103333003AA31259568A0C8B0DAC0CAD0DAA08ABEF
:1033430009121A92850A82850B83A3E06401700A2D
:103353001264197401123F4C804474011211A9853F
:103363000A82850B83124D8F12149EE9603D740906
:1033730012145FE0C0E0126419D0E0F07409121473
:103383005FE06403701374011211A9E508240BFABA
:10339300E43509FB121A928012740112145F124071
:1033A300D7E50812593C3509126E6F850A82850BE1
:1033B30083126425123F4CA3A3E0C0E0E508241464
:1033C30012641DD0E0F0750F00A90F740A026AA001
:1033D300A3A3A3E0F8852182852283E02274F71258
:1033E3000C2CE9FE8A828B83A3A3A3A3A3A3E0549B
:1033F3000860338A828B83A3A3A3A3A3A3E054020D
:1034030060218A828B83A3A3A3A3A3A3A3A3A3E083
:103413006406600F74E96E600A74CD6E600574F023
:103423006E700312208002477C74F0120C2C74EF30
:103433001211C9740F12145F1261D8740812145F49
:10344300E9F0ECFEEDFF740512145F1245441247D8
:1034530068A3E0F912148C740612145F1261D87415
:103463000612145F1253A370030236E7123F74E08F
:10347300FA740612145FE0F9121FC0123747F8A35B
:10348300E0F9E84970030236E7EE2403F50AE43F66
:10349300F50BEE2406F508E43FF5097C0085088268
:1034A300F583124D91850A82850B83E0F9121492FC
:1034B300740312145F1261D8850A82850B83E0C0FE
:1034C300E0852182852283123740D0E01254B8F977
:1034D300852182852283123DDC12500A1233D6FAEB
:1034E300A3E0CA2407F582E43AF583E8F0A3E412E3
:1034F30061E32406F582E438F583E4126E7B124B14
:103503007D121119EE123F303F125ED37403121471
:103513005F124B892409127BAB12113074291214E8
:103523005F126EA81232371254CB3A126E6F742B9D
:1035330012145FE0C0E085218285228312536AD092
:10354300E0F0740212145FE4F0742512145F78083B
:103553001213F902363E740312145F125E9B8882C3
:10356300F58312372FA3A3A3125961FB1214A48569
:103573000E82850F83A3EAF0A3EBF0740312145FAA
:10358300123740A312372F125B70A2E6500F850E3D
:1035930082850F83A3A3A3A3A3E0D2E1F074051252
:1035A300145FE0706B850E82850F83A31240D79062
:1035B30015CCE0687003A3E0697055850E82850F12
:1035C30083A3A3A3123F0F750C00780C121121786B
:1035D30008121115742912145FE0F50C780C1211FE
:1035E30021742712145F120F5F9015D9120F5F79A0
:1035F30000741912145F124D611221C4740A12115E
:1036030030850E82850F83A3A3A3A3A3E04405F013
:10361300740212145FE004FC8E828F83124D8B8E32
:10362300828F83A3A3A3E0F9121492740312145F8D
:103633001261D8740212145FE004F0740312145F71
:103643001253A36067740212145FE0FA7406121433
:103653005F1240D7C3EA98E4995051740212145F81
:10366300123A19852182852283E028F8A3E039F9EB
:10367300E8240FF50EE439F50F850E82F583E4F0A7
:10368300740312145F12373A6401600302355974EC
:103693000512145F7401126A8EF0740312145F1220
:1036A3005C62123A3CE8F0A3E902357D852182850C
:1036B3002283124D91121FC6852182852283120F08
:1036C3005F742612145FE0FD742512145FE0FC742E
:1036D3000A12145FE0F9EEFAEFFB12207A74021279
:1036E300113080438E828F83A3A3A3E0C0E0740CC8
:1036F30012145FD0E0F01268F7E0C0E0740D12140A
:103703005FD0E0F0740612145F1253A37009740EB5
:1037130012145F74B98007740E12145F7410F0747E
:10372300091211A11221BE7411026AA0E0850E8252
:10373300850F83A3A3A322E0125490E022E0125446
:1037430090A3A322852182852283EAF0A3EB12535F
:10375300AC2274F0120C2C74E11211C9740412140B
:103763005FE9F0740312145FECF0740212145FED5E
:10377300F08A0E8B0F742F12145F123158AA0CFBB0
:10378300121FB4740112145FE9F0AA0CAB0D121FDF
:10379300BA740112145FE07003023A148521828522
:1037A3002283E480158E828F83A3A3A3A3A3E0D2F5
:1037B300E3F0852182852283E0041269E6F88521FE
:1037C30082852283E0C3984003023A0B74011214EA
:1037D3005FE07003023A0B852182852283123A1936
:1037E300E50C28F8E50D39F9E8240FFEE439FF8EDE
:1037F30082F583A3A3A3A3A3E0A2E040B5750800C9
:10380300750A08750B00740212145FE060037508F3
:10381300207C087D00790074051211A11219368EDF
:10382300828F83E0603E90161CE06401701AE50805
:10383300D2E3F508750B10123A2912145FE8F0A3CE
:10384300E912585474FF807643080C750A0C8E8273
:103853008F83A3123A34126E71740512145F74FFCE
:10386300F0A3805A740412145FE06009E508D2E6FD
:10387300F508750A0A8E828F83A3E064FE7003A3A2
:10388300E0F47030741212145F7404126443F87419
:103893001D12145FE8124BFE74121211A1121EE2E4
:1038A3007D007C007900741512145FAA82AB831229
:1038B3001CD2800B123A2912145FE8F0A3E9F074CA
:1038C3000712145FE508F0123F6BC0E0740912148D
:1038D3005FD0E0F0740A12145F7401F074051211E2
:1038E300A1122182741112145FE060030239E9749A
:1038F3000D12145F1254B38E828F83A3A3A3A3F07C
:10390300740D12145F124BCCE50AF0A3E50BF074AF
:103913000312145FE0C0E0124B5DD0E0125B7060F5
:103923001190161CE0C0E0740D12145F124BA7D067
:10393300E0F0740D12145F1240D7850C82850D835D
:10394300A3A3A3A3A3123A22241C1261D2126E8B47
:10395300123A24125B2239126916C0E0124B44D08A
:10396300E01269DBC0E0740D12145F12468AD0E0E6
:103973001266DCC0E0740D12145F124680D0E0F0D2
:10398300740D12145F123A34123A22242A1261D2AD
:10399300850E82850F83A3A3A3A3A3A3A3A3E012EE
:1039A30061CB123F5AC0E012466CD0E0F0740D12A6
:1039B300145F124D91850E82850F831269F12428BD
:1039C300F582E43B126E6F123F63126A0212111901
:1039D300125ECCEA1261643B127BAF1211307405A4
:1039E3001211A11221888E828F83A3A3A3A3A3E024
:1039F300D2E0F0741112145FE060030237A874017F
:103A030012145FE0140237B47900AA0CAB0D122034
:103A130086741F026AA0E075F007A4F8A9F022A338
:103A2300A3124D95E8228E828F83A31240DB740587
:103A330022E0123A3CA3A3A322F8A3E0F9850E8265
:103A4300850F83A32274F0120C2C74E81211C9E9B8
:103A5300852182852283F08A0E8B0F8A828B83A332
:103A6300A3A3A3A3A3A3A3E0F9121FDE8A088B09D0
:103A7300EA4B7003023B25E50E125326123F8312D5
:103A83003F1A852182852283E06003023B287C0460
:103A9300850E82850F83A3A3A3A3A3A3A3A3E0F906
:103AA300121FE4EE4F607B8E828F83A3A3A3A31226
:103AB30040D7740712145F1263091240D7740912B6
:103AC300145F124C2EC0E0741112145FD0E0126622
:103AD300BAA3A3A3A3A3A3A31240D7740F12145F83
:103AE300126E71741212145FE4126A96C8241FF5E1
:103AF30082E438F583125E97C413135403FC7002F7
:103B03007C048E828F83E0F9780812111D7420598A
:103B1300FD744059F974031211A112207A74021230
:103B23001130026A9E7C08850E82850F83A3A3A3AE
:103B3300A3A3A3A3A3E0F9121FE48B0BEA4B700327
:103B4300023AA6EE4F60DB852182852283E0F50CE5
:103B5300780C121121850882850983A3A3A3A3A34B
:103B6300A3A3E0F50C780C1211218A828B83A3A303
:103B7300A3E0FB8A82850B831276CE8A82850B8330
:103B8300E0FA8E828F83A3A3E0F91228E474021271
:103B93001130023AAA74F7120C2C74FA1211C9E903
:103BA300FE780179017F00800379000F124F0DE049
:103BB300FCEFC39C5026EF75F007A4FC85F008AD1D
:103BC30008EA2CFCEB3DFD1244FCE0A2E050DA5481
:103BD3000C60D6E0A2E250D3780080CF8A828B8338
:103BE300A3A3A3A3A3A3E0703DE9A2E0400574014E
:103BF3006E70338A828B83A3A3A3A3A3A37401123E
:103C03003EECE0C0E0740312145FD0E012455BE0C9
:103C1300C0E0740412145FD0E0F0740512145FE87E
:103C2300125E361221BE7406024779C082C08379C0
:103C330001122086025C7274F4120C2CEA4B901869
:103C4300656019E4F08A088B09F50AF50B78081208
:103C530011157A02123160121130800A7401F07A60
:103C6300027B0012314D02324874F0120C2C74F3B3
:103C73001211C9740312145FE4F0A3F090158C12AF
:103C83003F1A740112145FE4F0A3124C0304F09082
:103C930015C6E0A2E35003023D5F123EE074091231
:103CA300145F121430740912145F78081213F99018
:103CB300158E78081211B1740512145F7808121466
:103CC30008123DE3740512145F78081213AC500711
:103CD3007A017B00023DD0740512145F780C121335
:103CE300F99017F9E0F509780C7908120BBDA80CC7
:103CF300A90D9017FAE0C398E4995003E08001E816
:103D0300852182852283F0740912145F78081213C7
:103D1300F9C008C009C00AC00B740512145F780CFF
:103D23001213F9123DE3780C7908120BBDE4F50A7E
:103D3300F50BD00FD00ED00DD00C780C79081212E1
:103D43009990158E780C1214088011123DD5126EBD
:103D530071EEFAEFFB1219D8AE08AF09EE4F6065AA
:103D63008E828F831233D3C398502DEE2403F8E44D
:103D73003FF9E0FA88828983E0C39AF060237403F1
:103D830012145F12423D740112145FEEF0A3EF129E
:103D93006324FEA3E0FF80C48E828F83A3A3A3E4E6
:103DA300F08E828F83127B68740112145F1253A307
:103DB3008E828F83A3A3A3A360911262FD12145F6B
:103DC300123DDC8089740312145F124D91740D024D
:103DD3006AA01240DB90158C22125EC2A3A3A32219
:103DE3009017F8127B70E4F50AF50B2274F0120CAD
:103DF3002C8A088B09890A7800790090158C123F68
:103E03001AFBEE4B601E088E828F83A3A3A3A3121B
:103E13004D5B601008E87001098E828F83123F1694
:103E2300EA4F70E39017FB124D91C3E89AE99B4068
:103E330003023ED37A06123ED6A80CA90DEA4970B6
:103E430003023ED38A828B83E508F0A3E509123E81
:103E5300F5E50AF09017FA124F15123EECA3E4F0C1
:103E6300A3F090158C124D5B600D8E828F83A3A3FC
:103E7300A3A3126E71801790158C126E719015C6E4
:103E8300E0A2E34009123EE090158E121430901523
:103E9300C6E0A2E3503A7A087B00901571E0F9126C
:103EA3001A68EA4B4C4D70289017F8E0F508A3E028
:103EB30085080CF50DE4F50EF50F780C1211157A43
:103EC300087B00901571E0F9121A5C74041211302A
:103ED300026AA37B001219D28A0C8B0D22121A7A62
:103EE300EAF8EBF9ECFAEDFB22123EF022123EF572
:103EF300A322F08A828B83A3A322E508F002477CE6
:103F0300F08E828F83A3A3A3A3A3A32212580DA38E
:103F1300A3F022A3A3A3A3E0FEA3E0FF227F050255
:103F23000ED6F582E43509F583E0F922EA123F342F
:103F3300222410F582E422123F42A3A3A3A3221258
:103F430040DF85088285098322123F5022F0850ACB
:103F530082850B83A3A322E50E2411123F80E02266
:103F6300E50E240E123F8022E50E2410123F80E05E
:103F730022123F7822EE123F343FF58322F582E48A
:103F8300350FF58322240FF50AE43509F50B780A7A
:103F930022E0F912195A8A088B09EA4B2274F212A9
:103FA3000C2C890B8A088B098A828B83124D911200
:103FB30020AAEA4B600479B8806A1220B6E9F89027
:103FC3002F23E493F9E8C399400479B280567A1514
:103FD300123ED6AE0CAF0DEA4F7004791080458ABD
:103FE300828B83E4F0A3123EF5E50BF0750A0078AB
:103FF300081211197C127D00EA24031269AD121113
:10400300309015921253A37008901592800C1240B1
:10401300D78882898312402A70F4EEF0A3EFF0125E
:1040230020C87900024E7D124D95EA4B8882898320
:1040330022C082C08390159280048C828D83127675
:10404300CFEC4D60288C828D83A3A3E06960057457
:10405300FF6970E68C828D83A3A3A3E06A7003A338
:10406300E06B70D6EC2403FAE43DFB80047A007B1A
:1040730000025C7274F7120C2CE9FD74FE6D70047F
:104083007C0180027C0090159280096D70027C0196
:10409300888289831253A3601F88828983A3A3A381
:1040A300E06A7003A3E06B70E7ECA2E08882898387
:1040B300A3A3E050D6F9800279FE02477CEEF98093
:1040C3000CA3A3127B70EE2274021211307F020242
:1040D3000ED6F5831240DB221240DF22E0F8A3E084
:1040E300F9221240DF8E828F83221211307F030266
:1040F3000ED6C082C0837900901592800109E0FA40
:10410300A3E08A82F583E582458370F1025C7274D1
:10411300F6120C2CE4F508F509780812111D902FFE
:1041230023E49375F013A4A9F0124232126ECF1256
:104133001130E9FE74096E70031220C20240C0748C
:10414300F6120C2C74FE1211C9852182852283E498
:10415300F0A3F0A821A92288088909780812111D63
:10416300750802750900780812111D126B401211AF
:10417300300240CB74F5120C2C74EB1211C985215B
:1041830082852283E4F0A3F090159280748E828F4F
:1041930083A3A3E0C0E0740212145FD0E01258546A
:1041A300A982AA8389088A09750A00780812111955
:1041B3007C127D00740612145F126E941211307417
:1041C3000212119988088909780812111D750813BC
:1041D300750900780812111D740412145F125346F6
:1041E30075F013A4F8AAF075F013E912422E126BBE
:1041F3004812113085218285228312423D8E828F9F
:1042030083123F1AEE4F7085A821A92288088909D5
:10421300780812111D750802750900780812111D1E
:10422300126B4012113074150240EDA42AF9E824F0
:1042330002FCE439FD7A427B0022E02401F0A3E092
:104243003400F02274F4120C2C74EB1211C97E00AA
:104253007F00A821A92288088909780812111D75F1
:1042630008028E09780812111D7C007D007A421223
:104273006EDB121130E9706C8E08805674021211D5
:1042830099880A890B780A12111D750A13750B0098
:10429300780A12111DE50875F013A4F8AAF075F059
:1042A30013E50912422E126EDD121130E9701B74F0
:1042B3000312145FAA82AB83740212145FE0F91233
:1042C30020A4E970050EEE70010F0508E5087002E1
:1042D30005098521828522831240D7C3E50898E525
:1042E30009994098EEFAEFFB741502324574F61201
:1042F3000C2C8C828D83A3A3124549F0EA12616AC8
:104303003BF583E0C0E0124506D0E0F0EA241DF55A
:1043130082E43B1240D51244EA124544F0A3F0EA8A
:10432300241FF582E43BF583123F1AEC1244DD3D72
:10433300F583EEF0A3EFF01244E33BF5831245144B
:10434300A3A3A3A3A3A3EEF0A3EF125DC5FE8C82E8
:104353008D8312455374035EFEC3940340030244EA
:10436300D0EE600874026E60030243F58C828D8385
:10437300E0540CFE740C6E7003024434E0A2E4407B
:104383000D88828983E08C828D83A312456974082A
:104393006E60030244341244F47401F08A828B8306
:1043A300A3A3A3A3A312581A70148C828D83E04491
:1043B3000C12455BA3A3124514EEF0A3EFF08C821D
:1043C3008D83E0A2E4402B888212452212453750A8
:1043D3000109F582124522A3A3A3A3A3A3F0A3EF8C
:1043E3001245638C828D83A3A3A3F0E82403F850C2
:1043F300010988828983E0C0E0EC2411F582E43D61
:10440300F583D0E01245538C828D83E0A2E750758B
:1044130088828983E0FE8C828D8312456974FC5EF9
:10442300700C8C828D83A3E054036403701E0244DA
:10443300D01244F4E4F0740C6E600302439F88824C
:104443001245281245375001090243C18C828D83DE
:10445300A3E05403603288828983E0C0E0EC124514
:104463000E3DF583D0E012456A8C828D83E05403C0
:104473006402701488828983E0C0E01244FCD0E0B7
:1044830012456A8003A3E4F0EC1253123D126E6FDF
:10449300EC2410FEE43DFFEA241DF582E43BF583A2
:1044A300E0F5088E828F83E0C3982508F508F0EACB
:1044B3002417F8E43BF98882F583E0C39508C0E04C
:1044C3001244EAD0E0125DC5C39508500A1244EACB
:1044D300E4F0124506E4F00240D02415F582E4220C
:1044E300EA240DF582E422EC240DF582E43DF58304
:1044F30022EC1254CB3DF58322EC2414F582E43DE7
:10450300F58322EC123F343DF583222413F582E434
:1045130022E0FEA3E0FF8C828D83A3A3A3A3221238
:104523004528A3A3228983E0F508A3E0FFE5088CCF
:10453300828D8322A3A3A3A3F0A3EFF0E82402F8C0
:1045430022124549A322E4F08C828D83A3A3A322E4
:10455300124571A882A98322123EF0A3A3A3A3222A
:10456300124571A3E022A312457108A98322125DAB
:10457300CEA32274F4120C2C74F31211C98A0A8B81
:104583000BECFEEDFF8C82F583E0540CF508E0A202
:10459300E75006E508D2E7F508E508D2E1F5081289
:1045A300581A7006E508D2E4F508E0A2E55006E5DE
:1045B30008D2E5F5087C087D007900AA21AB221218
:1045C3001936740212145FE508126E75C0E07403A5
:1045D30012145FD0E0124C03E50AF0A3E50BF0746C
:1045E3000512145F1266E112145FE070777408120B
:1045F300145F124B89125DB7381266FCC0E0740871
:1046030012145F12468AD0E01266DCC0E07408120E
:10461300145F124680D0E0F0740812145F124676DD
:10462300E0124BB1124C321261CBEE24111257E659
:10463300C0E012466CD0E0F0EE24141257E6C0E05E
:10464300740812145F124B892435F582E438F5831C
:10465300D0E0124BD6C0E0740812145F124B8DD019
:10466300E0126435740D023245E82432F582E439F0
:10467300F583221240E5A3A3A3A3A3A322124B9D78
:104683001268DB38F58322124B9D2426F582E43829
:10469300F5832274F7120C2C7E008A828B83A3A3EA
:1046A300A3A3A3A3A3A3A3E0640460030247581234
:1046B30054C3E060030247581253253B1253A170C1
:1046C3000302475888828983E054036003024758F2
:1046D300E81254CB39F583E0FA8C828D83A3A3E0EF
:1046E300FBA3E0CB2411F582E43BF583E06A70651C
:1046F30088828983A3A3A3A3A3A3A3A3A312475C31
:10470300E06A7003A3E06B704C88828983A3A312D1
:104713004768E0FFA3E0CF24061257E66A7003A3BD
:10472300E06B703188828983A3A3E0F88C828D8348
:10473300A3A3E0F9A3E0F5838982A3A3E068601350
:104743008C828D83A3A3A3E0F5838982E0540C6458
:104753000470027E01EEF9802012476022124D9907
:104763008C828D8322A3A3124760A3A322740C120D
:10477300145FE0F9740D1211307F01020ED674F646
:10478300120C2C74FC1211C9EAFEEBFFECFAEDFBE0
:104793008C82F583A3E0540360169015881253A30B
:1047A30060597900EEFCEFFD125FC212290A804BBB
:1047B300852182852283EEF0A3EFF0740212145F49
:1047C300124BF8AC21AD227AE07B201223088A0831
:1047D3008B09A808A909EA4960218A828B83A3A3CC
:1047E300A3A3A3A3A3A3A37406F07A0088828B8355
:1047F300124B8912618BE0F912226674040240CDD8
:1048030074F2120C2C74F31211C9EAFEEBFF8A82C4
:10481300F583A3A3A3A3A3A3A3A3A3A3E0F50A9050
:104823001865E0700579BA024B41750801750900F6
:10483300750C00750D007C087D007900AA21AB2260
:10484300121936740512145F7401124C0B54046070
:1048530012740212145FE0D2E6124C0B5408700378
:10486300750803E05410600674404508F508E054E9
:10487300086022740212145FE044C0124C0B5420EF
:10488300600A740312145FE0D2E080087403121408
:104893005FE0D2E1F0EE24151257E6124B7170037C
:1048A300740169700674084508F5088E828F83A326
:1048B300A3A3A3A3A3A3A3E070161223628521825B
:1048C3008522831261D8740212145FE0D2E2803031
:1048D300640F7010740212145F124C1374044508B1
:1048E300F508807F8E828F83A3A3A3A3A3A3A3A38F
:1048F300E064028E828F83700A126EA8E8F0A3E947
:10490300F08060A3A3A3A3A3A3A3A3E06403700DF8
:10491300AC21AD22EEFAEFFB12211680468E828F78
:1049230083A3A3A3A3A3A3A3A3E064017035901659
:104933001CE06010740212145F124C137509107599
:104943000AFF8018740212145FE0440C124C0374C3
:10495300FDF0A374FFF074044508F5088E828F837D
:10496300123158EE24151257E6A2E0503F7402129A
:10497300145FE0540C701B8E828F83124D91121DB5
:1049830068E9700579BB024B41740212145FE0D2EF
:10499300E5F0EE24151257E6A2E05010740212144B
:1049A3005FE0540C64047004E0D2E5F0EE241112CD
:1049B30057E6C0E0740412145FD0E01266E31214E9
:1049C3005FE06003024B3A740812145F124BCCE5AC
:1049D30008F0A3E509F0124B67E0C0E0124B5DD08D
:1049E300E0F0124B4EE0C0E0740812145F124B89E2
:1049F30012450E38F583D0E0124C326401701190E9
:104A0300161CE0C0E0740812145F124BA7D0E0F04C
:104A1300740812145F124BC7124B58FAE8241CF5A2
:104A230082E439F583EA124BFEEE2415FAE43FFBE8
:104A33008A82F5831276CFE8125B2239F583124B13
:104A4300F8EE241C1257E6C0E0124B44D0E0125C8F
:104A530068124B7170037401697013740812145F48
:104A63001254B3FAEE241D1257E6F9121FEA8E828E
:104A73008F83A3A3A3A3A3A3A3A3A3E0C0E074086A
:104A830012145F12468AD0E0F0740812145F1246C3
:104A930080E50AF0740812145F1253462428F58245
:104AA300E439F583E50CF0A3E50D124BDE124BB1AF
:104AB30012585F1261CBEE124B58C0E0E82433F575
:104AC30082E439F583D0E0F0EE241B1257E6C0E010
:104AD300740812145F124B8DD0E0F0EE241A1257B3
:104AE300E6C0E0740812145F124B892432F582E4A5
:104AF30038F583D0E0124BD6124B7D121119126890
:104B0300E11276CF740B12145F124B89242F127BA0
:104B1300AB121130EE24151257E654406012901573
:104B2300A81253A3600AAA21AB22125FC212290A58
:104B3300AA21AB22122188740C12145FE0F9024EF1
:104B430078E82420F582E439F58322EE2419F582EE
:104B5300E43FF583221268F0E022E82412F582E4B0
:104B630039F58322EE2418F582E43FF5832254803D
:104B7300F8A3E05401F974806822F508A3E0F5096D
:104B8300750A00780822124B9D22124B9D2434F59E
:104B930082E438F58322A3A3A3A3124BA122E0F856
:104BA300A3E0C822124B9D1244DD38F58322FAA3F9
:104BB300E0FBE8242AF582E439F583EAF0A3EB224B
:104BC300A3A3A3A31240DBEE2212534A12532A39A2
:104BD300F58322F0EE241312586722F0EE240D120F
:104BE300586722E0FC8A828B83E02CFCA3E034002C
:104BF300FD8A828B83ECF0A3EDF022F0A3E4F02294
:104C0300F085218285228322F0EE24151258672233
:104C1300E0D2E3F0124C1B228E828F831240DF8599
:104C23002182852283E8F0A3E9F022E8F0A3E912C8
:104C3300631EE02274F7120C2C8A828B83A3E06438
:104C43000170047E6380027E648A828B83E0600845
:104C53007905124C6B24F3FE9015C4E06007F9123A
:104C63004C6B24F2FE024758122230E9F8EEC39847
:104C73002274F6120C2C74FE1211C985218285222E
:104C8300831261D8E9FEECFAEDFB9005C41253A33D
:104C93006032A821A92288088909780812111D7D8C
:104CA30001740E12145FE0FCEEF99005C41261ACBE
:104CB30012290A7402121130EA4B6004790080064B
:104CC30079B2800279B60240CB74F7120C2CE9FE5C
:104CD30090157E1253A3601F740912145FE0F50848
:104CE3007808121121EEF990157E1261AC12290A8F
:104CF3007401121130800279B602477C74F7120CEA
:104D03002C8908ECFEEDFF79B5E508245E602014DC
:104D1300600624F86034803D9005C6124D5B603513
:104D2300126EEC12290A8E828F831261D88024902E
:104D330015801276CFEC4D601CEEFCEFFD901580D4
:104D43001261AC12290AE9F9800B90157C124D61AE
:104D5300121A92790002477C124D95EA4B22127681
:104D6300D3EEFAEFFB2274F7120C2CE9FE79B5743B
:104D7300AB6E700B90157C124D91121A9279000252
:104D8300477C8E828F83A3A3A3A3A3A3A3A3124DC4
:104D93009522124D9922E0FAA3E0FB2274F1120C42
:104DA3002CEAFEEBFF8C0A8D0B7508019015CCE005
:104DB3006E7003A3E06F700C124E6CAA0AAB0B1259
:104DC3001A92805E122368EE6A7002EF6B7009AA72
:104DD3000AAB0B12236E804AAC0AAD0BEEFAEFFB63
:104DE300121EBEE9F508901800E07036122830E96B
:104DF3007030E508702C90159CE06E7003A3E06F93
:104E03007020EE4F601C750C94750D15750E0078AF
:104E13000C1211197C087D00AA0AAB0B126E9812B2
:104E23001130A9080277CB74F2120C2CEAFEEBFFC7
:104E33008C088D09750A01124E6CEEFAEFFB121AFB
:104E43008CE9640170119015CC1240D785088285D6
:104E53000983126E71800EAC08AD09EEFAEFFB12F6
:104E63001EC4E9F50AA90A801112235C8A0C8B0D72
:104E7300AC0CAD0D22740D1211307F06020ED674E8
:104E8300F6120C2CEAFEEBFF7A0D7B001219D2EA24
:104E93004B6062EE2424126B75F0EE2425126B75C1
:104EA300A3124F3A126B7BA3A312690E124F15F094
:104EB300EE124EFB124F2AE8F0A3E9124F51124FA4
:104EC30022126E71EE124F041269D1A3A3A3A3F0B1
:104ED300EE24331257E6C0E0124F0DD0E012670004
:104EE300124F22A3A3A3E8F0A3E9124F49C0E01293
:104EF30054C3D0E0F00240D0242AF582E43FF58386
:104F030022242EF582E43FF58322EA12593C3BF535
:104F13008322124F1922E08A828B83A3A3A3221236
:104F23006A30A3A3A3A322124F2E221240DF8A8248
:104F33008B83A3A3A3A322F0124F3F22EE2426F5D3
:104F430082E43FF58322F0EE243212586722F0EE1A
:104F5300242C1258672274F4120C2C74FE1211C9FB
:104F6300ECFEEDFFEC24161257E664057010EC24FA
:104F730006FCE43FFD122110E97003025005AC2149
:104F8300AD22126C2A121D6E852182852283125353
:104F9300A3606B8E828F83E064017058E875F0091B
:104FA300A4F8AAF075F009E9A42AF974F328F874AF
:104FB3000239F9E8FAE9FB8882F58378081213F9D4
:104FC300EE1250A71213AC4027852182852283124B
:104FD3004BC71257F412500A78081213F990183677
:104FE30078081213208A828B837808121408800AA7
:104FF30079A28010EE240F126E6B7900800679A1DE
:10500300800279C8023243124C28EE1268FC2274E3
:10501300F2120C2C8A0C8B0DECFEEDFFEC1257F404
:10502300E4F0A3F090867D78081213F9EC1250A7F0
:105033001212346067EC240E1257ED703478B3907B
:1050430015C3E070289015F5E064017020EC24117D
:105053001257E6F91222188B09A909EE1253263FBB
:105063001261D6EA4960047800800278A18808803A
:105073002EE060046402700A122122E9F508700729
:10508300801DE064037010EEFCEFFDAA0CAB0D1263
:105093001D92E9F50880087508A180037508A3A986
:1050A30008024E7D1268FC78082274F0120C2C74EE
:1050B300F51211C9EAFEEBFFEA240AFCE43F8C82F5
:1050C300F583127B6C12533074031211A98A828BFD
:1050D30083125FCCE9700302519674011211A97413
:1050E300031211A1121D6E740112145F1253A370E7
:1050F30003025196E875F009A4F8AAF075F009E9DE
:10510300A42AF974EF28FC740239FDE508240E1271
:10511300641DE4F00412145F1240D7E5081253260D
:105123003509126E6F8C828D8312143CE5082412AC
:1051330012641D12143090183678081213F98C82F9
:105143008D8378081213338C828D83780C1213F9B4
:1051530090867978081213F9780C7908120BBDE55B
:10516300084509450A450B702A740112145F12534E
:105173004675F009A4F8AAF075F009E9A42AF974B0
:10518300F728F582740239F5837401F07A007B08FD
:105193001253538E828F83A3A3A3A3A3A3A3A3A377
:1051A300A3E02406FCA3E03400FD8E828F83125F0C
:1051B300CC1266EE603EEE240A125318124BCC74E6
:1051C30068124BFEE812531239F5837402F09015FE
:1051D300AE12143C8C828D831261C5125DB73CF50F
:1051E3008312143090183678081213F99015AE789C
:1051F3000812133312538E705D90157C12533EA325
:10520300A3A3A3A3A3A3A3A3A3125DED121A8CE9E3
:105213007010125DAB90157C125DBD70051266EEC9
:1052230060348E828F83A3A3A3A3A3A3A3A3A3A367
:1052330012533E124D91121D98E960118E828F8395
:10524300A3A3A3A3A3A312537AE4F0A3F08E828FA4
:1052530083125360E4F012538E600302530D8E8267
:105263008F83A3A3A3A3A3A3127B689015C3E060BA
:10527300030253029015F5E06401600302530275C3
:105283000A3A750B00780A12111D740212119988DB
:105293000A890B780A12111D127167121130E97015
:1052A3005BE508240E12641D74011253A8C0E0E5E7
:1052B30008241112641DD0E0F0E508240F12641DC8
:1052C300743A124BFE9015AA12143CE508241212EC
:1052D300641D12143090183678081213F99015AA29
:1052E300780812133390183678081213F99015AA18
:1052F3007808121234700812534F8003125330127D
:10530300538E7006125CAE74A1F0740B026AA02473
:105313000EF582E422F8E43FF9E8FCE9FD8882F522
:105323008322EA12532A22240FF582E422E508128B
:10533300532A3509F583E4F0A3F0221276D38E8243
:105343008F832212534A221240DFE8227A007B0223
:10535300901453E0F912197E228A828B83A3A3A3AC
:10536300A3A3A3A3A3A3A312536E22124BA1240EA0
:10537300F582E438F58322A3A3A3A3125382221256
:105383004BA1240FF582E438F583228E828F83A309
:10539300A3A3A3A3A3124B99240FF582E438F583A7
:1053A30012534A49221253AC22F08521828522836B
:1053B300E02274F6120C2CEAFEEBFF7A237B001238
:1053C30019D2EE240AF508E43FF509850882126133
:1053D300D67C237D007900121936850882850983DE
:1053E3001253A37003025476EEFAEFFB12212E122E
:1053F300538E60748E828F831254A964018E828FC0
:1054030083A3A3A3A3A3A3700712549F740E8021A5
:105413001253A370101266EE700B8E828F83A3A3B8
:10542300E0A2E05007125495740D80051254957450
:105433000512670054036401700712547D740580DC
:105443000B9015C4E0C0E012547DD0E01254B8F5BF
:10545300838882125813850882850983124B891227
:10546300616A38F583E9800E8508828509831262B3
:105473004F8003126192F00240D08E828F83A3A3E8
:10548300A3A3A3A3A3A3A3A312548F22E01261B1E6
:10549300A3228E828F83A3A3A3A3A3A3124B991248
:1054A300617038F58322A3A3A3A3A3A3A3A3A3A3F8
:1054B30012536EE0221254BC22126C3FF8A3E02276
:1054C300EA1254CB3BF58322240CF582E42274F1D7
:1054D300120C2C74E41211C98A0C8B0D8C088D09E3
:1054E3007A237B001219D28A0A8B0BAE0AAF0BEA1E
:1054F3004F70030257CE126176E50824151257FF49
:10550300687003A3E0698E828F8370047402800243
:105513007401F0E508240DF8E43509F98882F58370
:10552300E0FAC3E49AFA95E0FB1257FB2AFAA3E0E8
:105533003BFB8E828F83A3A3A3A3125DD48E828FA2
:1055430083A3A3F0EE2420F582E43FF583E4F0EE99
:105553002421F582E43FF583E4F0EEFAEFFB122118
:10556300E285088285098312581A70098E828F8317
:10557300A3740580069015C4125808F0EE2417F59D
:105583000AE43FF50B8E828F83125813E9850A8252
:10559300850B83F0EE2416F8E43FF9E508240EFAB0
:1055A300E43509FB88828983124BE6E5082410FA67
:1055B300E43509FB850A82850B83E0FC88828983B5
:1055C300E0F88A828B83E0C398C39CF8125854F0A6
:1055D300EEFCEFFDAA0CAB0D122128E9F50B8E8230
:1055E3008F83E064027006125DAB1257D8E50B603F
:1055F300030257C5750C00750D00901800E0640197
:105603006005E06402703F1257EA6008EE2421123D
:1056130057ED70328E828F83A3A3A3126198125821
:1056230020EE24161257E6125849FAE439FB123ECB
:10563300D8EA4B60111269FA12111912582EAA0CEA
:10564300126E98121130EEFAEFFB1221EEE9F50B10
:10565300901800E064016008E0640260030257B838
:10566300E970030257B8E50C450D70030257C58076
:1056730003850E0B1257EA600BEE24211257ED60DF
:10568300030257BE850B0E850C08850D09750A00AC
:10569300780812111912582E8E828F83A3A3A3A305
:1056A300127BB1121130EE24201257E6600D12570F
:1056B300F37468124BFEEE24208015EE242112575A
:1056C300E660151257F37403F0A37401F0EE24217E
:1056D300F582E43FF583E4F0EEFAEFFB1221EEE905
:1056E300F50B70907C137D00790074091211A112DF
:1056F3001936741A12145F740112585F64687002C9
:10570300A3E0704F8E828F8312537AE064056003A7
:105713000256747C0879FF8E828F83A3A3A3A3E030
:10572300242A125DF01219B4E970030256747C083E
:105733007D0079FF74011211A1121936740112113F
:10574300A97A007B0079AB12210A741912145F74D1
:10575300FC80151257F3E064037004A3E064017046
:1057630008741912145F74FFF0E4F508F50978085A
:1057730012111D74021211A9741312145FAA82ABC1
:10578300831262D5121130852182852283E0602B3A
:10579300740912119988088909780812111D75086E
:1057A30013750900780812111D7C007D00126B48E7
:1057B3001211308006E50C450D6007AA0CAB0D12E3
:1057C30019D8EEFAEFFB1219D88003750B10A90B49
:1057D300741C0277C8EE2406FAE43FFB121A9222E5
:1057E300EE240C12586722EE24201258676401221B
:1057F300EE12532A3FF58322E508240EF582E435A1
:1058030009F583E02212580DA322E08E828F8322B2
:10581300A3E0F912223022E0540364012212582437
:1058230022E0FAE82AF8E43400F9228E828F83A377
:10583300A3A312619C125824EE241612586712581F
:1058430049FCE439FD22FAE82AF8E439F9E82404AA
:10585300221258582212670FA3A3A322F0125864EE
:1058630022EE240FF582E43FF583E0227901021052
:10587300E074F4120C2CEAFEEBFF8A82F583A3A3F7
:10588300A3A3A3A3A3A3124B892424F582E438F58D
:105893008312581A702E8A828B831254A970251290
:1058A3005942E06405701D125942A3E0F87401687F
:1058B3006005740668700712535C74028005125306
:1058C3005C7403F0EA240A1262431261ACE4F0EA66
:1058D3002408F8E43F1232322431F582E43AF583A6
:1058E300E0C0E0126EE3A3A3D0E0125961CA242EF4
:1058F300F582E43AF583E0C0E0126EE3A3A3A3D0FC
:10590300E0125E87C812593C381240D5126EE3127A
:1059130059568A0A8B0BAC0AAD0B8508828509831D
:10592300125DED121A92850882850983124D911238
:1059330021EE12623EF0023248240BF582E4228A01
:10594300828B83A3A3A3A3A3A3A3A31266D5F583E7
:10595300888222A3A3A3A3124C2812235C22125DE4
:10596300C9FAA3E02202586FC082C08390159E74C7
:1059730034F0A37421F09015A07440F0A37421F0C7
:105983009015A27446F0A37421F09015A4743AF014
:10599300A37421F0025C7274F4120C2CEA2408FE46
:1059A300E43BFF8E82F583125346126182E0F508D1
:1059B30074035508F509125DE8F8A3E08882F583BE
:1059C300E508F0A3A882A983E509600974026509C3
:1059D3006003025A87740C5508FC600A74086C60F3
:1059E3000574046C7026740265097006E508A2E468
:1059F300401A8A828B83A3A3A3A3A3A3A3A3125BAB
:105A03008D1268DB3D125B28A308A983740C6C70AC
:105A13001C125B892428125B752428F582E43DF56A
:105A230083A3126509F0E82402F8500109740265A2
:105A3300097006E508A2E4404B125B89242A125B35
:105A430075242AF582E43DF583A3125B37125B9339
:105A5300126509125B93A3125B2FE82404F850012B
:105A630009EC600F74086C600A740C6C60057404B4
:105A73006C70111261B92426F582E43C125B28A3F1
:105A8300A882A9838A828B83A3A3A3A3A3A3A3A38B
:105A9300125B5754037014E508A2E1400E1261B97A
:105AA300125B223CF583E054806008125B3D125B7D
:105AB3002A8019901572E0C0E0125B3DD0E0125BC2
:105AC3006A88828983125B6A04125DCEA3A882A9C5
:105AD30083E508A2E750458E828F83125B57888245
:105AE3008983125B70125B5C540360301261B924CA
:105AF30034F582E43C126507F0E508A2E1501D8A03
:105B0300828B83A3A3A3A3A3A3A3A3123237243516
:105B1300F582E43A126507A3F0E82403023248242D
:105B23001EF582E422F583125B37F022125B37A362
:105B3300A3A3F022E088828983228A828B83A3A392
