:020000040000FA
:060000000215250208D9DB
:03001B00020ABB1B
:03002B000212B509
:030033000209A916
:03004300020E1991
:030053000207B1F0
:03006B0002091374
:03007300020B106D
:1000830002083A010000000000F8FF07FFFF00002C
:100093000504000000030001FFFFFFFF0014102709
:1000A30000000020FD00020000C91A00000000004B
:1000B30000711B0000291BB71A9F1A0000000000E3
:1000C3000000000000AB1A00000000000000000068
:1000D30000000006FFFF1E00760199179F17411EBF
:1000E300000000000000000000000000000000000D
:1000F30000000000000000000000000000000000FD
:1001030000000000000000000000FF0104010C00DB
:100113000201FB860661860204010C000200000056
:1001230001018701040000A718000000E803000094
:10013300FFFFF8180188130000E80300006400645F
:1001430000B801A0BB0D00A0BB0D00020202070412
:100153000101051E02051E020A0A01010808010326
:10016300B80B02803E0102FEFFE8030A050001FF0F
:10017300FF020A1401E00100B0423BAAB83F0000AD
:10018300003F8C906339AA0CA33A00941E3C804232
:10019300633DCFFE753E1572313F0000803FF3048F
:1001A300353F8096184B01000000000080BF22926B
:1001B300D43EDD9B2A3F0400004000000000FFFF07
:1001C3007F7FFFFF7FFF010080341872313F020001
:1001D3000000050301010F030003000300030003F4
:1001E30000030003000300030005000A00140028B5
:1001F300004F009E0000006E3000000000422F0000
:10020300000000FF000000FF0012154460461215B5
:1002130035603DE9687008F618F618F618F622748A
:100223008067F7120240090909748067F7221215E3
:1002330035601D1215447005191919801A1213EE31
:10024300701F121402C37003E667331919194007AC
:100253001818182208080874FFF618F618F618F686
:100263002212140260171215D2702192F01215DBBC
:100273007019501720F014080808090909E7F6183F
:1002830019E7F61819E7F61819E7F6221215DB60D5
:10029300E6E869701F0808E62480F608E436F618D5
:1002A300547FB47F0CE654806007F6E418F618F622
:1002B30022181822E9C6CC08C6CD08C6CE08C6CF78
:1002C300C0E0E8C0E0EAC0E0EBC0E009E9F809E714
:1002D300FA09E7FBE6F918E6F8C3EC98ED99EE9A0C
:1002E300EBC2E7F5F0EFC2E795F0500E600CEBCFF1
:1002F300FBEACEFAE9CDF9E8CCF8EAA2E7D2E7FACD
:10030300EB33FB13F5F0EEA2E7D2E7FEEF33FFC5C5
:10031300F013A2E730E601B313C5F0C3C0E0C0F0A9
:100323007F00C39BFB605E9418600F401D14601A2E
:10033300D0E023F9D0E0F80204128AF0E948600320
:10034300D2F0E4AFF0FAF9F8803BEB30E40D89F03A
:10035300EA6003D2F0E4AFF0F9CAF8EB30E30D88BA
:10036300F0EF6002D2F0AFF0E4CAC9F8EB540760D3
:1003730014FBC3EA13FAE913F9E813F8EF13500275
:10038300D2E0FFDBEDD0E0C0E030E739C3E49FFF0C
:10039300F5F0EC98FC42F0ED99FD42F0EE9AFE4246
:1003A300F0D0E0F9D0E0F8E5F0607AE923F9EE2047
:1003B300E742D8028067C3EF33FFEC33FCED33FD34
:1003C300EE33FE80EAEC28FCED39FDEE3AFED0E098
:1003D30023F9D0E0F84002801BC3EE13FEED13FDBA
:1003E300EC13FCEF135002D2E0FF08B800067F7F46
:1003F30074FF802EEF3350178CF020F00260100C46
:10040300BC000C0DBD00080EBE000408E860DFE967
:1004130033E813FFEE2313FE4F4D4C8008E954805D
:10042300FFE4FEFDFCEE33EF33F47004FCFD7E804D
:10043300D0E0FBD0E0FAD0E0F8D0E0CFC618CEC6CB
:1004430018CDC618CCC6F922121535700418181821
:1004530022121544700D74FFF61819F61819F618C0
:1004630019F622E7548066F61215DB700F1215D2C7
:1004730070F014F608F608F608F680D11215D2705B
:100483000CF608F608768008E6447F80EC12140523
:10049300700C1213F160BFE65480F6E480BB1213B4
:1004A300F1700519191980A5E869700C763F187663
:1004B3008018F618F6E8F922E6CDC0E018ECC0E0A3
:1004C300E633CD33CDD313F6E719FCE7191933CC53
:1004D30033C3947F400ECD9D502408E65480F6E448
:1004E30018F6800FF4043D14501408E6447FF61800
:1004F3007680E418F618F6D0E0FCD0E0FD22CCD3E9
:1005030013CCFD18E4C6CBC0E018E4C6CAC0E008AB
:1005130008ED08C633E613F618E433C675F003C3D3
:10052300CA97CA09CB97CB199C40047D08802EBD7E
:1005330000030205F416B6FF050606081618C3CA1B
:1005430033CACB33CB33CA27CA09CB37CB193CC306
:100553007D08803E187D0820E75CC633C6CA33CACF
:10056300CB33CB33DDF1D5F0EB30E77BCA97CA0948
:10057300CB974ACB199C406F4B7025E620E0218036
:1005830066187D08C3CA97CA09CB97CB199CD3C6F3
:1005930033C6CA33CACB33CB3350C9DDE7D5F0E119
:1005A300D3E4C636C608C636C608C636C608C63637
:1005B300C61818188031C3CA97CA09CB97CB199CA0
:1005C300B34097C633C6CA33CACB33CB33DD34D536
:1005D300F02EC6A2E0C640C8CA27CA09CB37194ABB
:1005E30070BECB3CB480B90808E63308E633601F1D
:1005F300181818D0E0FAD0E0FBD0E0FCD0E0FD22E0
:10060300187D08CA27CA09CB37CB193CD38080137E
:10061300F618E4B67F11F618B6FF0EF618C6047086
:10062300D20808768080CAF618F618F680C500123C
:100633001535604F1215446012E7548066F61213A5
:10064300EE70111215D2703B090909F4F618F61869
:10065300F618F62212140270151215DB080808604A
:10066300EAE6447FF618768018E4F618F6221215A7
:10067300DB60161215D27012E4F608F608F608E6E7
:100683005480F609090918181822EAC0E0EBC0E003
:10069300ECC0E0EDC0E0E687F0A4FBACF008E68731
:1006A300F0A42CFCE435F0FA1809E687F0A42C4BEF
:1006B30060027401CA35F0FCE433FB09E687F0D22B
:1006C300F7A42CCB35F0FC1908E687F0A42BCC3526
:1006D300F0FBE433FD0819E687F0D2E7A42C4ACBFC
:1006E30035F0CD3400FC09E687F0D2E7A42DCC35F4
:1006F300F0FDE433FA0918E687F0D2F7A42CCD35E0
:10070300F0CA3400FC08E687F0D2E7D2F7A42ACC7B
:1007130035F07A7E20E70B0ACB33CBCD33CDCC3308
:10072300CC33CB3350147004ED30E00ED2F1E4CD72
:100733003DCDCC3CCC3B5005DA05C2F1EB547FC632
:100743003308E63392F0FBE73309E733C39A502DBE
:100753002B70190C0D4C4D70151806E608C3337039
:100763000D20F10AA2F013F6E418800B4024E4F6FE
:1007730030F002768018F618F618F68024D33B146E
:10078300501074FFA2F013F6187680E418F618F6EA
:10079300800FA2F013F618E63303F618ECF618ED03
:1007A300F6D0E0FDD0E0FCD0E0FBD0E0FA22C0E0E0
:1007B300C0D0E8C0E0E9C0E0EAC0E0EBC0E0ECC0D4
:1007C300E0EDC0E0EEC0E0EFC0E0C008C009C082C9
:1007D300C083C0F0A2AFE433F509D2AF85A708AF59
:1007E300A1EF5508FE74105E600612187D75A1EF27
:1007F30074085E600812188375A1F78024EFA2E0E5
:1008030092F0E508A2E082F05017906198E0F8902A
:100813000949E0C398A2D265D0335002E8F075A12C
:10082300FEE509A2E092AFD0F0D083D082D009D008
:1008330008D0E0FF0208BFC0E0C0D0E8C0E0E9C0D4
:10084300E0EAC0E0EBC0E0ECC0E0EDC0E0EEC0E009
:10085300C082C083C0F0A2AFE433FED2AF9061A4E4
:10086300E0F8759B00E59158540860087591F712FC
:1008730018C58023E59158541060087591EF12183C
:10088300CB8014E591A2E092F0E8A2E082F0500759
:10089300E0C2E0F01219FD9061A3E0F8E5E95854D5
:1008A30004600E1219DF75E9FB906193E0A2E64044
:1008B300F2EEA2E092AFD0F0D083D082D0E0FED0AF
:1008C300E0FDD0E0FCD0E0FBD0E0FAD0E0F9D0E0EE
:1008D300F8D0D0D0E032C0E0C0D0E8C0E0E9C0E05A
:1008E300EAC0E0EBC0E0ECC0E0EDC0E0EEC0E0C089
:1008F30082C083C0F0A2AFE433FED2AF9061A5E023
:10090300F8E5BF585404600675BFFB121A0980A1AD
:10091300C0E0C0D0E8C0E0E9C0E0EAC0E0EBC0E07E
:10092300ECC0E0EDC0E0EEC0E0C008C009C00AC002
:100933000BC082C083C0F0A2AFE433FED2AFE5891F
:10094300A2E150309005FD7401F0E5895402900551
:10095300FEF0750819750900750A00750B00780813
:1009630012127F7A107B009005FBE0F9121D397497
:100973000412129A758900C2C5EEA2E092AFD0F0BC
:10098300D083D082D00BD00AD009D008D0E0FED0DB
:10099300E0FDD0E0FCD0E0FBD0E0FAD0E0F9D0E01D
:1009A300F8D0D0D0E032C0E0C0D0E8C0E0E9C0E089
:1009B300EAC0E0EBC0E0ECC0E0EDC0E0EEC0E0C0B8
:1009C30008C009C00AC00BC082C083C0F0A2AFE454
:1009D30033FED2AFE58BA2E050329005FD7404F0F4
:1009E300E58BA2E0E4339005FEF075081975090064
:1009F300750A00750B00780812127F7A107B00903D
:100A030005FBE0F9121D39740412129A758B00C2AA
:100A1300E802097C120A6C30F043120AB1803E8A64
:100A2300088B098C0A8D0B7808120A6C20F014309D
:100A3300E72B74FFFCFBFA747F8022E4FCFBFA745F
:100A430080801AB48008BC00F2BB00EF800F50EB2B
:100A5300F9E4C39AFAE49BFBE49CFCE499C6CC1842
:100A6300C6CB18C6CA18C6F922E4C9C608CAC6083E
:100A7300CBC6D3330308CCC63392F0C3947F402E46
:100A830094184019C9B90704CACBCC225025C3090D
:100A9300CA33CACB33CBCC33CC33D9F422F4600D75
:100AA300C9CCC313CB13CBCA13CAD9F6CC22E4FCEB
:100AB300FBFA2214FCFBFA22C0E0C0D0E8C0E0E954
:100AC300C0E0C082C083A8F9E8C0E09008B6E0F8AF
:100AD300743528F582E43408F583D0E0F09008B546
:100AE300E0F8A3E0687006E5959008B8F09008B6C2
:100AF300E004F0C394804002E4F0A374C6F0D08312
:100B0300D082D0E0F9D0E0F8D0D0D0E032C0E0C05D
:100B1300D0E8C0E0E9C0E0C082C083900939E0F8C2
:100B2300A3E0687008539AF7A374018022C2EA9085
:100B33000939E0F8740128F074B928F582E434081F
:100B4300F583E0F5F9900939E0C394804002E4F0BD
:100B530080ACC3E498F8E499F9120B968026C3E4B9
:100B63009AFAE49BFBE920E7E9120B96E498F8E490
:100B730099F922C3E498F8E499F9120B96E498F8EA
:100B8300E499F9C3E49AFAE49BFB22EB20E7CFE96B
:100B930020E7E0B90010BB0008E88AF084F8AAF067
:100BA30022E4FBC8FA22EB70227B10C833C8C93396
:100BB300C9335007C39AC3DBF280069A50012ADB7C
:100BC300EAC833F4C8C933F4C9FA2275F008E4C893
:100BD30033C8C933C933C99AC99B5004C92AC93B0D
:100BE300D5F0ECFBC833F4C8E4C9FA22080808EAD4
:100BF300C0E0EBC0E086F0E7A4FA180986F0E7A4AA
:100C03002AFA180986F0E7A42AFA180986F0E7A455
:100C13002AFA1986F0E7A4FBE5F02AFA190886F008
:100C2300E7A42BFBE5F03AFA190886F0E7A42BFBBF
:100C3300E5F03AFA18180986F0E7A4C5F02BFBE4AF
:100C43003AFA1908E7C5F0C6A426F6E5F03BFBE43B
:100C53003AFA1886F0E7A4F6E5F00826F6E43B082E
:100C6300F6E43A08F6D0E0FBD0E0FA22080808E6FA
:100C730030E7111213C6120C87080808C64480C651
:100C830018181822181818E9799EC608CAC608CB7E
:100C9300C608CCC6C370207996CACBCC7019798E9E
:100CA300CBCC70137986CC700EF9802ACA33CACBA9
:100CB30033CBCC33CC331930E7F2CCCBCA3350141B
:100CC3007004EA30E00DE4CA3ACACB3BCBCC3CCC4F
:100CD300500209C3E913C6CC182313C6CB18C6CADE
:100CE30018C6F922E4CFC0E0E4CEC0E0E4CDC0E012
:100CF300E4CCC0E075F020E626F608E633F608E615
:100D030033F608E633F6181818EC33FCED33FDEE32
:100D130033FEEF33FFC3EC9709ED9709EE9709EF25
:100D230097191919400FFFEC97FC09ED97FD09EE90
:100D330097FE191906D5F0BFECF709EDF709EEF7A1
:100D430009EFF7191919D0E0FCD0E0FDD0E0FED08F
:100D5300E0FF222521C582C0E0E52234FFC583C020
:100D6300E0E521C3958224F810AF088583228582AC
:100D7300218008858322858221D2AFCEF0A3E5208E
:100D8300F0A37808E608F0A3DEFAEFF0A3E58124E8
:100D9300FAF8E608F0A3E608F0A3E608F0A30808CB
:100DA300E608F0A3E608F0A315811581D0E0FED094
:100DB300E0F8158115811581E8C0E0EEC0E022124C
:100DC30013C9181818120CE71214D419191922127E
:100DD30014D4191919080808E618181820E7E0129E
:100DE3000CE71213C918181822090909E719191968
:100DF30020E7DC080808E618181820E703020CE7C8
:100E03001213C9181818120CE71213C9181818125C
:100E130014D419191922C0E0C0D0E8C0E0E9C0E039
:100E2300EAC0E0EBC0E0ECC0E0EDC0E0EEC0E0C043
:100E330082C083C0F0A2AFE433FED2AFC2C0E5D11B
:100E4300A2E450031217F3EEA2E092AFD0F0D083E6
:100E5300D082D0E0FED0E0FDD0E0FCD0E0FBD0E0DB
:100E6300FAD0E0F9D0E0F8D0D0D0E0321215BDB915
:100E73000003020EAEE4900501789579178002F025
:100E8300A3D8FCD9FA7A957B1B90008678877902E0
:100E93008015E493A3AD82AE838A828B83F0A3AAE9
:100EA30082AB838D828E83D8E9D9E775828075837F
:100EB300C1740612124675829375832C7400121244
:100EC3004675F0108E238F248582288583278521FC
:100ED30082852283E0CEA3E0CF852882852783EB1A
:100EE300C9EAC8EDCBECCAC3E833C8E933C9EA336E
:100EF300CAEB33CBC3EA9EF526EB9FF525B350042B
:100F0300AB25AA26EC33CCED33CDD5F0DAAE23AF47
:100F13002422121535601C12154460171215DB705C
:100F2300071215D27001D322C0D01215D27006D089
:100F3300D0B322C32233D0D0501430E0F6C3E796A7
:100F43000809E7960809E7960809E796B32220E01F
:100F5300D5E6970809E6970809E6970809E697B3DF
:100F630022D083D082ECC0E0EDC0E0E493A3FCE4A4
:100F730093A3FDED4C600D121088EC24FFFCED34BF
:100F8300FFFD80EFE493A3FCE493A3FDED4C600D20
:100F9300121151EC24FFFCED34FFFD80EFD0E0FD96
:100FA300D0E0FCE493A3C0E0E493C0E02212153543
:100FB300601B12154460161215DB70071215D26000
:100FC3000CB322C0D01215D27005D0D022C3223365
:100FD300D0D0501330E0EBC3E7960809E796080931
:100FE300E7960809E7962220E0E4E6970809E697E2
:100FF3000809E6970809E69722D083D082E9C0E082
:10100300E493A3C386F0C5F095F0F908E493A386AF
:10101300F0C5F095F0700BE493A3C3994005E90480
:101023008002A3E475F002A42582F582E5F03583FE
:10103300F583D0E0F9E493A3C0E0E493C0E0228514
:101043002283852182E0A3FEE0A3F5207808E0A3B4
:10105300F608DFFAE0A3FFE0A3C0E0E0A3C0E0E00E
:10106300A3C0E0E0A3C0E0E0A3C0E010AF08858226
:10107300218583228008858221858322D2AFD08374
:10108300D08202124CC0E0C3E49396087401939695
:1010930018400FE493667008087401936618700093
:1010A3007019A3A3C3E49396087401939618A3A39A
:1010B300400DD0E0D0E0D0E0020FA0A3A3A3A3A3F0
:1010C300A3D0E0227404800474028000CCC0E0ED5D
:1010D300C0E0E521C39CCCAD2250011D10AF068CAE
:1010E300218D2280068C218D22D2AF1211C8D0E02F
:1010F300FDD0E0FC2274028000CCC0E0EDC0E0E54E
:1011030021C39CCCAD2250011D10AF068C218D2232
:1011130080068C218D22D2AF1211A6D0E0FDD0E043
:10112300FC22121535602512154460201215DB7060
:10113300030215D2080808E76670101819E76670ED
:101143000A1819E76670041819E76622F422C0E04A
:10115300C0F088F0E4936670080874019366187011
:1011630000A8F0A3A3700BD0F0D0E0D0E0D0E00251
:101173000FA0A3A3D0F0D0E022D083D082CCC0E0D4
:10118300E493A360061212271470FAE493A3600693
:101193001213321470FAD0E0FCE493A3C0E0E4939A
:1011A300C0E022CAC0E0E493A3C582CCC582C58354
:1011B300CDC583F0A3C582CCC582C583CDC583DAF3
:1011C300E5D0E0CA22CAC0E0E0A3C582CCC582C58F
:1011D30083CDC583F0A3C582CCC582C583CDC5832A
:1011E300DAE6D0E0CA227009080808226016181847
:1011F30018C6C333C608C633C608C633C608C633C3
:10120300C6D5E0EA22C008C3E096F50808A3E09635
:10121300420808A3E096420808A3E0964508700137
:10122300D3D00822C0E0E493A3D39C5010E493A34B
:10123300C39C400AD0E0D0E0D0E0021199A3A3A35D
:10124300D0E022C09FF59FE473D09F22D083D08249
:10125300C09FE493C0E0740193C0E0740293F59FD0
:10126300222521F58210AF08F521400C15228008B4
:10127300F52140021522D2AF852283227404800A0D
:1012830074038006740280027401C0E0F404121235
:1012930064D0E01215802200C0D0252110AF08F5DC
:1012A30021500C05228008F52150020522D2AFD02F
:1012B300D022C0E0C0D0E8C0E0A8A8D2AFC2C7E83F
:1012C300A2E792AFD0E0F8D0D0D0E032BB0102E782
:1012D30022C082C08389828A83BB0003E08002E448
:1012E30093D083D082226016080808C6C313C61899
:1012F300C613C618C613C618C613C6D5E0EA2225F8
:1013030021F8E43522F9222521FAE43522FB2225AE
:1013130021FCE43522FD22C3E0C696F608A3E0C60D
:1013230096F608A3E0C696F608A3E0C696F622C092
:10133300E0E493A36C7009D0E0D0E0D0E00211990F
:10134300A3A3D0E022252110AF08F521400C1522DC
:101353008008F52140021522D2AF22E06670100802
:10136300A3E066700A08A3E066700408A3E066229F
:10137300E76670100809E766700A0809E7667004F3
:101383000809E76622C3E09608A3E09608A3E0965F
:1013930008A3E096A2D265D03322C3E7960809E7F3
:1013A300960809E7960809E796A2D265D03322C3C7
:1013B300E697F60809E697F60809E697F60809E6B8
:1013C30097F622181818E4C396F608E496F608E48C
:1013D30096F608E496F622C3E096F008A3E096F0AA
:1013E30008A3E096F008A3E096F022181818E60880
:1013F30046087009E626087005E633F42208221928
:101403001919E70947097009E727097005E733F454
:10141300220922C3E49396087401939608740293F5
:1014230096087403939622E026F608A3E036F6089E
:10143300A3E036F608A3E036F622E627F60809E627
:1014430037F60809E637F60809E637F6227004226C
:10145300600D18C6C333C608C633C6D5E0F41822D8
:10146300E657F60809E657F60809E657F60809E6C7
:1014730057F622E056F008A3E056F008A3E056F032
:1014830008A3E056F022E056F608A3E056F608A3B8
:10149300E056F608A3E056F622E026F008A3E0366D
:1014A300F008A3E036F008A3E036F022E647F6089A
:1014B30009E647F60809E647F60809E647F622066D
:1014C300E6700D0806E670080806E670030806E6EF
:1014D30022E4C397F709E497F709E497F709E49738
:1014E300F722600D08C6A2E713C618C613C6D5E0D7
:1014F300F322C6F4C608C6F4C608C6F4C608C6F482
:10150300C622C3E7960809E7960809E7960809E79C
:101513009622C3E09608A3E09608A3E09608A3E00A
:10152300962275D00075813F752101752205000251
:101533000E6FE6084608C3134608336002E633F429
:1015430022E7094709C3134709336002E733F4224B
:10155300600C08C6C313C618C613C6D5E0F422E64A
:10156300F008A3E6F008A3E6F008A3E6F022E0F60D
:1015730008A3E0F608A3E0F608A3E0F622CAC0E059
:10158300E6F0A308DAFAD0E0FA22E0F8A3E0F9A340
:10159300E0FAA3E0FB22E8F0A3E9F0A3EAF0A3EB6F
:1015A300F022E0FAA3E0FBA3E0FCA3E0FD22EAF0D3
:1015B300A3EBF0A3ECF0A3EDF022E5C754F844014C
:1015C300F5C77901222521F582E43522F58322E747
:1015D3002719471947194722E62618461846184679
:1015E30022C2AF75D69F02000022E96004F800D83A
:1015F300FD2212124FAA9E0512124F499F05121285
:101603004F3DA00512124FA3A10512124F2DA205A3
:1016130012124FB9A20512124F4BA30512124F9F7C
:10162300A30512124FC7A30512124F59A405121294
:101633004FECA40512124F3AA50512124FC1A5058E
:1016430012124FFFA50512124FD2A70512124FAA6D
:10165300A80512124F88A90512124F8DDA0412122F
:101663004FB1DB0412124F52DC0412124FD2DD04CD
:1016730012124F96DE0412124FDBDF0412124F2AAE
:10168300E10412124FEBE20412124F11E50412129D
:101693004FCFE50412124FD6E70412124FD4E804D9
:1016A30012124F3EE90412124F77EC0412124F2824
:1016B300F00412124FA0F20412124F84F404121217
:1016C3004F799D0612124FA59D0612124F389F06A1
:1016D30012124F08A00612124F9BA00612124FDDE2
:1016E300D50612124FF7D50612124F49D60612121B
:1016F3004F52D60612124F98960612124FEC9606C8
:1017030012124F3C970612124F77970612124FADE3
:10171300B80612124F74B90612124FA5BA06121266
:101723004FDDD10612124FEED10612124F88D206A8
:1017330012124F93D20612124FABD20612124FF06F
:101743007F0012124FE4FF0212124F8BD3061212C4
:101753004F9BD30612124FB3D30612124F30D40647
:1017630012124FD9D00612124F5ED10612124FC475
:10177300D10612124F7CAA0612124F95AA06121214
:101783004FEAAA0612124F0DAB0612124F7DAB069B
:1017930012124FBDAB0612124F20AC0612124F09A4
:1017A300AD0612124FB9D20612124F40D3061212CF
:1017B3004F4FD30612124F4CEA0512124F90EA050F
:1017C30012124F2EEC0512124F6BED0512124F51F0
:1017D300EF0512124F9CD80612124F4EF604121246
:1017E3004F07F70412124F68F80412124F5EFA04FF
:1017F30012124FB1FA0412124FF5FA0412124F8863
:10180300FB0412124F2CFC0412124FB3FC041212ED
:101813004F32FD0412124F07FE0412124F26FE042C
:1018230012124F33FE0412124FC4E40512124FEF8B
:10183300E40512124F00E80512124FDAE8051212FE
:101843004FFBE80512124F17E90512124F30E90555
:1018530012124FD0C80612124F05C90612124F407A
:10186300C90612124FB2C90612124FE2C90612126A
:101873004F0FCA0612124F6CCA0612124F6FCA06D6
:1018830012124F82CA0612124F8ECA0612124F5CF0
:10189300A70612124FB0A70612124F00A806121283
:1018A3004F6EA80612124FAFA80612124F08A906D0
:1018B30012124F17A90612124F3FA90612124F30E8
:1018C300AA0612124F3DAA0612124F4EAA06121270
:1018D3004F58D50612124FA8D50612124FD2D5066D
:1018E30012124F42800612124FA3810612124FB0FA
:1018F300810612124FC3810612124FD881061212AB
:101903004FED810612124F00820612124FC7820654
:1019130012124F3D830612124FBF830612124F98C5
:10192300840612124FA8840612124FB784061212AD
:101933004F3AD40612124F5FD40612124F88D406C0
:1019430012124FB0D40612124F15BB0612124F3C9F
:10195300BB0612124FB3BB0612124F0E9A06121297
:101963004F279A0612124F459A0612124F599A069A
:1019730012124F779A0612124F819A0612124F8B48
:101983009A0612124F9E9A0612124F8F9B0612123C
:101993004F009C0612124F2B9C0612124F799C0685
:1019A30012124FC69C0612124FE19C0612124FEB05
:1019B3009C0612124F369D0612124F51D806121270
:1019C3004F3CC60512124F70C60512124F92C60540
:1019D30012124FABC60512124FC5C60512124F3075
:1019E300C70512124F63C70512124F48CD051212D5
:1019F3004FD3CE0512124F52CF0512124FE0D0052E
:101A030012124FFBD00512124F6ED10512124F3A2C
:101A1300C50612124F4AC50612124F82C50612128C
:101A23004F9BC50612124F0CC60612124F31C60643
:101A330012124F5CC60612124FB2C60612124FD8CC
:101A4300C60612124FEDD80612124FE88406121280
:101A53004FEF840612124FA2860612124FC6860655
:101A630012124F54870612124F33880612124F92E6
:101A7300880612124F27890612124F728906121214
:101A83004F97CA0612124FB5CA0612124F15CB064C
:101A930012124FF4CB0612124F06FF0512124FA477
:101AA300CE0612124FEACE0612124F7CBF06121256
:101AB3004F31C10612124F33B60612124F07B70643
:101AC30012124F59B80612124F3FF50312124F006C
:101AD300F90312124FFEFA0312124F30FC031212D3
:101AE3004F09FD0312124F90FE0312124F63FF03BF
:101AF30012124FB7FF0312124F05C70612124F26D9
:101B0300C70612124F58C80612124F82C806121285
:101B13004F69B30612124FDEB30612124FE9B30632
:101B230012124F04B40612124FDF6F0012124F65E8
:101B3300750012124FDD760012124FB678001212A2
:101B43004F35790012124FCC790012124FE07A0010
:101B530012124F137C0012124F2B7D0012124F9F53
:101B63007E0012124F8E7F0012124F85E70212126F
:101B73004F88E70212124F43F10212124FC4F202CE
:101B830012124F5AF40212124F58F50212124F302A
:101B9300F60212124F31F70212124F2EF8021212EE
:101BA3004FF1F80212124F21F90212124F59FB02A0
:101BB30012124F6BFE0112124F7DFE0112124F9251
:101BC300FF0112124F95FF0112124FBEFE041212B3
:101BD3004FF4FE0412124F0AFF0412124F4CFF047B
:101BE30012124F92FF0412124FD6FF0412124FE04B
:101BF300FF0412124FA4DC0512124FAEDC051212C1
:101C03004FEBDC0512124F50DD0512124F6DDD054F
:101C130012124F86DD0512124F3DDE0512124F4799
:101C2300DE0512124F94DE0512124FC2DE051212A8
:101C33004FACDF0512124FC9E00512124F17E10531
:101C430012124F5CE10512124FC7E10512124F3A0F
:101C5300E20512124F95E20512124FD0E20512125D
:101C63004F11E30512124F23E30512124F35E3051B
:101C730012124F54E30512124F5DE30512124F0F78
:101C8300E40512124F60E40512124F9AE405121292
:101C93004FECD70612124FC6F40512124F51F60538
:101CA30012124F74F60512124F85F60512124F8960
:101CB300F80512124F15A40612124F4BA406121266
:101CC3004F9AA50612124FF3A60612124F00800474
:101CD30012124F7E860412124F268D0412124FB831
:101CE3008F0412124F1B920412124FB99204121254
:101CF3004F91940412124FCA960412124FF799048B
:101D030012124F059A0412124FCF9A0412124F70F7
:101D13009B0412124FD7A00412124F81A104121276
:101D23004FBDD60612124FD3D60612124FC68906DE
:101D330012124FD8890612124FC68A0612124FF793
:101D43008A0612124F448B0612124FA48B061212EC
:101D53004F108C0612124F2D8E0612124F4ECC06C8
:101D630012124FD2CC0612124F28CD0612124F6711
:101D7300CD0612124FC0CF0612124F7ED00612129A
:101D83004F00800212124F0C800212124FB18002D8
:101D930012124F2D810212124F7C820212124F0F28
:101DA300830212124FB2830212124FB18502121232
:101DB3004F91880212124F8C8D0212124FDC8F0248
:101DC30012124FC9950212124F0C9B0212124FCBE3
:101DD300A50212124FCDA60212124F65A7021212CC
:101DE3004F8EA70212124F3FA80212124FB8A80239
:101DF30012124F6FAA0212124F90AA0212124F36FA
:101E0300AB0212124F29AC0212124F96AE021212FB
:101E13004F1EAF0212124F89B20212124F9AB7022B
:101E230012124F2BB80212124F66B80212124FE869
:101E3300F90512124FCFFA0512124FB5FB05121214
:101E43004FA5FD0512124FC5FD0512124F8BAD06AE
:101E530012124F2AAE0612124FDAAE0612124F00BA
:101E6300800512124FDC800512124F638105121296
:101E73004FB2830512124FE5840512124FCC86052B
:101E830012124FE8860512124F37870512124F942C
:101E9300870512124F0D880512124F398C05121245
:101EA3004F3D8D0512124F9D8E0512124F8D8F05DA
:101EB30012124F19900512124F52900512124F75BC
:101EC300910512124F18920512124F239205121206
:101ED3004F95920512124F2A930512124FD695056C
:101EE30012124FFD960512124F4D970512124F5ABB
:101EF300980512124F82980512124F8598051212F7
:101F03004F93980512124FB7980512124F27990550
:101F130012124F60990512124F8C990512124F9F9E
:101F2300990512124FC7990512124FED9905121216
:101F33004F0C9A0512124F1F9A0512124F27D706FC
:101F430012124FED7F0012124FBDBE0412124FE06A
:101F5300BE0412124F44C00412124F8DC004121259
:101F63004F31C10412124F9AC10412124F9DC10482
:101F730012124F2FC20412124FB8C20412124F6929
:101F8300C30412124F6CC30412124F0AC404121278
:101F93004F87C90412124F47CB0412124F7CCB0454
:101FA30012124FE4CB0412124F9FCF0412124F4967
:101FB300D00412124FECD00412124F1AD204121290
:101FC3004F31D30412124F09D40412124F48D504CF
:101FD30012124F14D60412124F34D70412124FFBAD
:101FE300D80412124F00800312124F0A81031212F7
:101FF3004FB7810312124FC1820312124F9A830308
:1020030012124F80850312124F36860312124F505D
:10201300870312124F03880312124FD1880312123F
:102023004FE28A0312124FE38C0312124FD58D0332
:1020330012124FAF900312124F06920312124F3A2D
:10204300930312124F2F940312124F289503121267
:102053004F79E50112124F92980312124F489903D8
:1020630012124FF7990312124FA79B0312124F91AB
:102073009C0312124FAD9D0312124FDA9F031212EB
:102083004FE8A20312124F09A50312124FA2A50390
:1020930012124F13A60312124F37A70312124F70D7
:1020A300A20412124FD5A20412124F36A304121225
:1020B3004F09A50412124FB0A50412124FD9A5045B
:1020C30012124FD2A90412124FE9A90412124FECB3
:1020D300AA0412124F18AB0412124FD5AC041212F9
:1020E3004FE0AD0412124F95AE0412124F15AF0418
:1020F30012124FC6AF0412124FB2B10412124F9410
:10210300B20412124F5F9E0512124F0CB604121244
:102113004F95B80412124F75BA0412124F38BB040C
:1021230012124FB0BB0412124FC7BB0412124FC896
:10213300BC0412124FABBD0412124F1ABE0412128A
:102143004F6E920612124F65940612124F24950693
:1021530012124F88950612124F13960612124FCA87
:10216300A00612124F20A10612124F69A1061212E5
:102173004F91A10612124FB7A10612124FCFA1061B
:1021830012124F97A20612124FACA20612124FCF91
:10219300A30612124FD8A30612124FE1A30612127E
:1021A3004FEAA30612124FF4A30612124F9CEF0537
:1021B30012124FBFF40512124FC4F40512124FF559
:1021C300C10612124FC6FF0212124F93B00612122B
:1021D3004F86CD0612124F8BD70612124F6DBD06D6
:1021E30012124FC2FF0112124FDBFB0212124F3ABF
:1021F3008E0612124FE0FF0312124FD5D4061212AD
:102203004FFFD40612124F9CA80312124FCFA803FC
:1022130012124F3BA90312124FD6A90312124F7386
:10222300AA0312124FB8AA0312124FDAAA03121208
:102233004FF3AA0312124F19AB0312124F3BAB0316
:1022430012124F79AB0312124FBDAB0312124FDFC1
:10225300AB0312124F41AC0312124F08AD0312121B
:102263004FBFAD0312124F31AE0312124FFCAE0338
:1022730012124F4FAF0312124FB5AF0312124FEFAB
:10228300AF0312124F41B00312124F9BB00312124D
:102293004F4BB10312124FF8B10312124F6FB20337
:1022A30012124F72B20312124FF3B20312124F8A79
:1022B300B30312124FEBB30312124FDBB403121228
:1022C3004FFAB40312124F5EB60312124F6BB603EA
:1022D30012124F77B70312124F84B70312124F8DA6
:1022E300B70312124F65B90312124F7FBA031212CA
:1022F3004FF8BA0312124F6ABB0312124F8CBB037F
:1023030012124F20BC0312124FF4BD0312124FCB13
:10231300C10312124FDFC10312124FEFC103121296
:102323004FF9C10312124F02C20312124F0BC20321
:1023330012124F15C20312124F42C20312124F6BF5
:10234300C20312124F76C20312124F9AC203121221
:102353004FBEC20312124F28C30312124F6EC303A0
:1023630012124F8BC30312124F08C40312124F3FB2
:10237300C40312124F7EC40312124FCBC4031212B2
:102383004F51C50312124F1FC70312124FB4C70395
:1023930012124F98C80312124F0BCB0312124F6441
:1023A300CB0312124FAECB0312124F09CD031212FD
:1023B3004F47CD0312124F99CD0312124F4ECE0346
:1023C30012124FFDCE0312124F3ACF0312124FCF08
:1023D300CF0312124F46D00312124F098701121274
:1023E3004F3B870112124F69870112124F3F890138
:1023F30012124F1F8A0112124F778A0112124FB223
:102403008B0112124FFE8B0112124F278F011212F2
:102413004F1A920112124F6A930112124F00940144
:1024230012124F0C940112124F3E940112124FC11B
:10243300950112124F72970112124F069801121250
:102443004F49980112124FC7980112124FE4980195
:1024530012124F14990112124F49990112124F1976
:102463009A0112124FC29A0112124F489D01121281
:102473004F689E0112124F539F0112124FD59F01B5
:1024830012124F09A40112124F46A40112124F9EB9
:10249300A40112124FD1A40112124F3BA501121233
:1024A3004F71A50112124FFCA50112124F54A60140
:1024B30012124F2BA70112124FE4A70112124F7FE2
:1024C300A80112124F87AB0112124FA3AC011212D3
:1024D3004F46B00112124F3AB10112124F3DB101F2
:1024E30012124F6CB10112124F72B30112124F4B01
:1024F300B40112124F8EB40112124FE4B50112123D
:102503004F23B60112124FACB60112124FE0B601BF
:1025130012124FA5B70112124FBDB90112124F2E5D
:10252300BA0112124F6EBA0112124FA7BA01121258
:102533004F3BBB0112124FB9BC0112124FDBBD015D
:1025430012124F9DBE0112124FA4C00112124FBCB2
:10255300C00112124FD0C00112124F08C101121252
:102563004F36C10112124FB5C20112124FDAC30125
:1025730012124F37C40112124FE9C40112124F1045
:10258300C50112124FD7C50112124F6FC6011212A5
:102593004F95C80112124FCAC80112124F2DC9011B
:1025A30012124F5CCA0112124F04CB0112124F35A3
:1025B300CB0112124F4DCB0112124FDCCB01121281
:1025C3004F90CE0112124F68D00112124F84D001E6
:1025D30012124FA0D00112124F6ED10112124F618D
:1025E300D50112124FE8320012124F1A33001212A1
:1025F3004F09370012124F55370012124F9B370005
:1026030012124F3D380012124F99380012124FDE4A
:10261300380012124F253A0012124F393B001212A2
:102623004F283F0012124FAC3F0012124FB9400027
:1026330012124F15410012124F05430012124F7A26
:10264300430012124F84430012124F91430012129F
:102653004FBC430012124FA3440012124F4D4500CA
:1026630012124FCB450012124FEB450012124F14BA
:10267300460012124F36460012124F9648001212AD
:102683004F5C490012124FA1490012124F1E4A001B
:1026930012124FCF4A0012124F014B0012124F4732
:1026A3004B0012124F834B0012124FD34B001212E6
:1026B3004F274C0012124F7D4C0012124FC94C0091
:1026C30012124F364D0012124FB14D0012124F7CB1
:1026D3004F0012124F7C500012124FA151001212E0
:1026E3004FE0540012124FF3570012124FB058002C
:1026F30012124FF4580012124FA45A0012124FB87C
:102703005A0012124FC25A0012124FCC5A00121220
:102713004FD85A0012124FF45A0012124F9F5B0007
:1027230012124FDE5B0012124FE85B0012124FF2DF
:102733005B0012124F625C0012124FAD5C0012126A
:102743004FC25D0012124F1E5E0012124F9F5E00B9
:1027530012124F5E5F0012124F67600012124F9BFE
:10276300610012124F89620012124FA1620012120D
:102773004FFC620012124F1A630012124F62630081
:1027830012124F89630012124F24640012124FEA8F
:10279300640012124F7C650012124FF6650012128C
:1027A3004F10670012124FBD670012124FE5680009
:1027B30012124F35690012124F99690012124FFB22
:1027C300690012124F296A0012124F4D6A00121249
:1027D3004F826A0012124FB36A0012124FE66A0068
:1027E30012124F066B0012124F6E6B0012124F62E1
:1027F3006C0012124FBD6C0012124FE66C001212E5
:102803004F6E6D0012124FF16D0012124F1C6E00CD
:1028130012124F016F0012124F8FD10512124FC7C0
:10282300D10512124FE8D10512124F2AD205121206
:102833004F8CD20512124F96D20512124FA6D20513
:1028430012124FE1D20512124FC1D60512124FAE2A
:10285300D80512124F94DA0512124F2BDB05121210
:102863004FCDDB0512124F74BC0212124FF2BC02A1
:1028730012124F4EBD0212124F99BD0212124FB4E3
:10288300BD0212124FDFBD0212124FFCBD02121223
:102893004F08BE0212124F9FBF0212124FB8BF025F
:1028A30012124F3DC00212124F50C00212124F6F4C
:1028B300C00212124F13C10212124F94C20212121B
:1028C3004F47C40212124FDDC40212124FE0C4027A
:1028D30012124F50C50212124F6EC50212124F054B
:1028E300C60212124F4DC60212124F50C6021212E6
:1028F3004F16C70212124F83C70212124FA9C70203
:1029030012124F34C80212124F52C80212124F98B9
:10291300C80212124F4CC90212124F96C902121268
:102923004FC5C90212124F22CA0212124F57CA02CE
:1029330012124F83CA0212124F91CA0212124FDEB1
:10294300CA0212124F4ECB0212124F97CB0212122F
:102953004FE3CB0212124F0FCC0212124F1ACC02CA
:1029630012124F38CC0212124F23CD0212124F2DE6
:10297300CD0212124F68CD0212124F78CD021212FD
:102983004F81CD0212124FD5CD0212124FE9CD0263
:1029930012124F18CF0212124F2DCF0212124FBB39
:1029A300CF0212124F00D00212124F8CD002121219
:1029B3004F97D00212124FD9D10212124FF4D10203
:1029C30012124F40D20212124FAFD20212124FE82C
:1029D300D20212124F02D30212124F44D302121226
:1029E3004F14D60212124FC1D60212124F2ED70223
:1029F30012124F6ED90212124F86D90212124F8948
:102A0300D90212124F95D90212124FA9D9021212EA
:102A13004FB1D90212124FE4D90212124FE6DA0271
:102A230012124F6DDB0212124FDDDB0212124F5FE7
:102A3300DC0212124F20DD0212124F3FDD0212128E
:102A43004FE0DD0212124F3DDE0212124F40DE0252
:102A530012124FB4DE0212124F03E00212124F0998
:102A6300E10212124F94E10212124FAFE20212126C
:102A73004F77E30212124FA8E30212124FCBE30285
:102A830012124FD4E30212124F03E40212124F93B5
:102A9300E40212124F49E50212124FBEE50212126E
:102AA3004F65E60212124FDAE60212124F11E702E5
:102AB30012124F4FE70212124FBCE30112124FAA38
:102AC300DF0112124F41DA0112124F6FD8011212B5
:102AD3004F9ED60112124FE6D50112124FB3D50104
:102AE30012124F83D50112124F58B90512124F24F7
:102AF300B70512124F5AB60512124F449E05121211
:102B03004F3D9B0512124FADB50512124FA3B505EC
:102B130012124FF19A0512124FAE9A0512124F8FED
:102B2300B50512124F4DB40512124FDCB205121245
:102B33004F6AAF0512124F26AB0512124F70AA054A
:102B430012124F70F40312124F5AF40312124F5021
:102B5300F40312124F79F00312124F57EF031212BC
:102B63004F0DEF0312124F36ED0312124F91E7038D
:102B730012124FBCE30312124F3EE30312124F1E15
:102B8300E30312124F53E20312124FDDE103121259
:102B93004F0DE10312124F6FE00312124FC3DE0316
:102BA30012124FEDDD0312124F43DD0312124F3E9B
:102BB300DD0312124F329A0512124F79C406121214
:102BC3004F72C30612124F2BFA0112124FF4F70180
:102BD30012124F93F50112124F1FF20112124F32CC
:102BE300DD0312124FC0D70312124F8ED7031212F6
:102BF3004F20D70312124F21ED0112124F71D6034A
:102C030012124FB9D50312124F6FD50312124F642C
:102C1300D50312124F15EC0112124FF6D203121202
:102C23004F55E60112124F2ED20312124FC5D10394
:102C330012124F21D10312124FDBD00312124FADE8
:102C4300D00312124FFCC50512124FCFC505121245
:102C53004F41C50512124F07C50512124F77C10523
:102C630012124FCFBE0512124FB4BB0512124FFB07
:102C7300B30412124F06BB0512124FE0E501121204
:102C83004F87BA0512124F8FB90512124F1C9703C3
:102C930000000080FBE47387000100831C350004FF
:102CA300004B1C250002004F1C26000200511C276C
:102CB300000200531C280001005D1C290001005E76
:102CC3001C84000400831986000100A31B2A000151
:102CD300005F1C2B000100601C2C000100651C2DF3
:102CE3000008008F192E000100661C2F00010067E9
:102CF3001C30000100681C31000100691C32000116
:102D0300009719330001009819340001006A1C363A
:102D13000001009919380001006B1C39000100649F
:102D23001C83000200811C63000100A519640001DB
:102D330000611C65000100621C6D000100A6197191
:102D4300000800871966000100801C430001007120
:102D53001C44000200721C45000100741C46000262
:102D630000751C470008009D1948000100771C4BA3
:102D7300000100781C04000100841CA100010087ED
:102D83001C37000100861C88000100851C3C0001E3
:102D9300009A193D0001006C1C49000200791C6770
:102DA300000100A7194D0002007B1C4E0001007DAD
:102DB3001C4F0002007E1C3E000100701C510001EC
:102DC300009B19520001006E1C530001006F1C543C
:102DD3000001009C190000000000000001363601CC
:102DE30001000102010001030100010401060605BF
:102DF300020000070100340801000F090401010D5E
:102E03000100FF0E08000017020000190100FF1A5D
:102E13000100011B0100FE1C0100081D0200001F30
:102E230001000120010001210200002301000F2401
:102E33000200002601000127010008280200FF2AE2
:102E43000100072B0102402C0100002D0100012E7F
:102E53000100012F0100FF30010B1D310800003A72
:102E63000100083B01000F3C0100013D0100FF3E52
:102E730004000042040000460400004A0400004E1F
:102E830004000052040000560400005A040000002D
:102E930000000020010487000001002001058700D5
:102EA30000020020010687000003002001038700C1
:102EB300000400420179860000050042011F8600DC
:102EC3000006004201EC850000070030010887007E
:102ED3000000404201EC850000FDFF2101FF860157
:102EE3000020002005AB1B010021002005AC1B01C5
:102EF3000000022105AD1B0004000021056B180230
:102F030004000029055D180304000029055F180368
:102F1300041000290561180304140028011C1C0572
:102F23000400002105631808040000210565180842
:102F330004000221056718080401022105AD1B01E5
:102F430003710301030103010301030103220302CC
:102F53000301031003000300030003000300030045
:102F630003000342030003240306030003000304D6
:102F7300031203250323032503230304030403008C
:102F8300030003000344030003000323030003655A
:102F9300032100350381030003050300030003003D
:102FA30003000325032303030271023001600211AE
:102FB3000270020102020202028002100261023A5E
:102FC30000410063027302720262024302000213B1
:102FD3000238000002000204021202000200020092
:102FE30002000204020402370037003C02440200DC
:102FF300023900000200026502000235028102006C
:103003000205028202830200020101710101010132
:10301300011101010131010101010180011001616F
:10302300013B00140063017301720162014301005B
:1030330001130106013D01350004011201000100E5
:10304300010001000104010401330133013C014487
:1030530001320136000001000165010001350081E4
:1030630001000105018201830100010300710030A9
:103073000160001100700031022003500480001031
:1030830000610000001400630073007200620043DB
:1030930000000013000600000000000400120000FE
:1030A3000000000000000004000400370037003C6B
:1030B300024400000000000000000065000000352D
:1030C30000810000000500000083000000360001BD
:1030D30000060000000F00000000000000000000D8
:1030E30000000003FFFF00000403FFFF0000FFFFD9
:1030F3000FF4010005C4040320000100000B0000CD
:1031030000000000000003010F00000000000000A9
:1031130000000000000000000000000000000000AC
:1031230000000000000000000000000B1E291E111B
:103133001E931D00000000000000000000000000BE
:10314300000000171E931D000000001D1E931D00AC
:1031530000000000000000231E931D00000000007B
:10316300000000000000000000000000000000005C
:10317300000000000000000000000000000000004C
:103183000000000000000000001B2001001B2002C3
:10319300006D1F0280671F0300731F0400791F0463
:1031A300807F1F0500851F06008B1F3000A91F317C
:1031B30000A31F3300B51F3400BB1F1100C11F1430
:1031C30000C71F15009D1FFFFF000003000300043D
:1031D30000080010001F003E007B00F600EC01D742
:1031E30003AF075D0FB91E713D000007ECFDFDFD48
:1031F300ECDCDCCCBCACAC9C9C8C7C7C6C6C5C5CFC
:103203005C4C4C3C3C2C2C1C1C03EAF5E5D5D5C589
:10321300B5A59595858575756565555545453535CB
:1032230025251515050A5D26022726053326072DB4
:10323300260C0F260D1B26FF000000160F00000BA7
:10324300150B020002220F3300000E0F5A6967426A
:103253006565416C6C69616E63653039D0D1D2D3D9
:10326300D4D5D6D7D8D9DADBDCDDDEDF303016189B
:103273001920231A1C1E3000034D4C4651181A25E1
:10328300050200011916181616182303003030170B
:10329300181921301B1D1F30003C40423A3F3F3973
:1032A3002F47300C0E020B040B0A0708000F020411
:1032B300020101010109020204000029056918E85D
:1032C30003000000BE040A24000300E80301000415
:1032D30009100116031E1E030A0C04050828020C1C
:1032E300050815FF0F74F7120D56E9901A7AF0903E
:1032F3001A2FE4F0121BB3901A92E4F0A3F0901A81
:103303007BF0A3F01227AD121BB99019B7E4F0A319
:10331300F012218F024C4E74F0120D5674D3121317
:10332300481266AA54806066901A7AE0F9121C313A
:103333008A088B09AF09EA4F604C7C0080010CECD2
:1033430075F003A4F8A9F0742828F582743239F5CE
:1033530083E493F46029E493F88A828B83E06870B2
:10336300DDEC75F003A4F8742928F582743239F57D
:1033730083E493C0E0740193F583D082122C98AA5E
:1033830008EFFB121C25126DDC64800236E98521EF
:1033930082852283A3E05420601F1226C38A088BF0
:1033A30009AF09EA4F600A12261BAA08EFFB121C99
:1033B30025126DDC64200236E9852182852283E0B3
:1033C300A2E05042901A34E0640F702E900C361233
:1033D3006DE7900C36C3E094E9A3E09403400A7AC6
:1033E300007B809018A7124D3079001225F1E96017
:1033F30009901C4B1215A51226098521828522836B
:10340300E064010236CE542070030236D37A207B67
:1034130000901A7AE0F9121D4BEA4B4C4D701A904A
:103423001A8E12158DE8494A4B700E7508017509FD
:1034330000750A00750B00806D750C00750D007525
:103443000E00750F00121D578A088B098C0A8D0B0D
:10345300901A8E12158DE8494A4B6031901A8E7876
:1034630008121208400E750CFF750DFF750EFF75DF
:103473000F7F801985080C85090D8C0E8D0F901A0E
:103483008E780C12131A7401780C1212E9850C0849
:10349300850D09850E0A850F0BE5084509450A4583
:1034A3000B700302362D7C0079047A007B00122610
:1034B300998A0C8B0DAE0CAF0D0235717402121587
:1034C300C874FFF074031215C874FFF07404121566
:1034D300C874FF124DA312656474071213121268A5
:1034E3001AE96401706A1236F54480F8A3E0F974AE
:1034F300281215C8E8F0A3E9126AAEE0C0E0742A06
:103503001215C8D0E0124D90540860167428121595
:10351300C8A3E04401123702C0E0742C1215C8D0CE
:10352300E0F01266ED6011E8240B123EE8F8741621
:103533001215C8E8F0A3E4F0901CCC1210C774066F
:10354300121312740B12130A122309740412129A1F
:103553008E828F83A3A3A3A3A3A3A3A3A3740612FF
:103563003702F912267B74051215C8126871EE4FE3
:10357300700302362D7C007904EEFAEFFB122699D4
:1035830074051215C8EAF0A3EB124ABAE0F50CA3CE
:10359300E0F50DE4F50EF50F7808790C12150540EA
:1035A30023EE2404F8E43FF985080C85090D88828D
:1035B300F583C3E0950CF0A3E0950D126ED1E849B5
:1035C30070A4800C8E828F83A3A3A3A3E4F0A3F043
:1035D3008E828F83A3A3A3A3A3A3A3A3A3A3E06424
:1035E300018E828F83A3A3A3A3A3A37020E054041B
:1035F30060030234BF8E828F83A3A3A3A3A3A3A3D9
:10360300A3A37406F07AB7123828023569A3A3A3DB
:10361300A3E060030234BF8E828F83A3A3A3A3A37B
:10362300A3A3A3A37401F00235691226697C007970
:10363300017A007B00122699EA4B6003124D297C24
:103643000079047A007B00122699EA4B70138044B8
:103653008A828B83A3A3A3A3126889EE98EF994070
:103663000B8A828B83A3A3A3A31268717C007904C2
:103673001226998B0BA90BEA4970D5C3E5089EE581
:10368300099F500DC3EE9508FEEF9509FFEE4F70AD
:103693000D124D29901A8E1236FBA3F08024EE2EC4
:1036A300FEEF338E08F509E4F50AF50B78081212DC
:1036B3007F7A201238D112129A121D57901A8E1245
:1036C30015B1852182852283E06420FAA3E0801668
:1036D300A3E054046013125F41122BFD79011240E1
:1036E300AF126DDC6404FB80047A007B00742D024E
:1036F30066C9EE1266D7E022E4F0A3F0A3F022122B
:103703004D95A3A3E022C082C08374EA1213487CC0
:10371300167D007900AA21AB22121C07740812152A
:10372300C87402F0901A2312617D1237497409128A
:1037330015C812619574131215C8E4125E14122190
:1037430083741602505FE8F0A3E9F0901A2D126813
:10375300592274F7120D5674DA121348EAFEEBFF7E
:10376300EA4F602DAC21AD221226E174061215C872
:10377300E0601E74171215C8E0FD74011215C8E04D
:10378300FCEEFAEFFB79001225C7E9600479A48007
:103793000279007426024C4B74F7120D56EAFEEBC5
:1037A300FF8A82F583A3A3A3A3A3A3E054406017D6
:1037B3008A828B8312668A124F6E60067AFF7BFFC2
:1037C30080151266868003901A2312656474FE6A5C
:1037D300700374FF6B60411266861266B01227771E
:1037E300E98E828F83600B126273126E9CE4F0A3E6
:1037F3008003126E8BF07CF77D258E828F831245BA
:10380300E4E9F5087015EE4F60097901EEFAEFFB74
:10381300122675A908024C4E7508CDAA081238283D
:10382300E960E380EE8E828F83126277240CF58247
:10383300E438F583E0F91226032274F6120D56E9F3
:10384300FEEAFF7A0F7B00121C1FEA4B601A8A8282
:103853008B83740CF0EEA3A3F0EF8A828B83124A5E
:1038630009125E727900802BEEF912269F8B09A94B
:1038730009EA49601C8A828B83A3A3A3A3A3A3A3FE
:10388300A3A37406124A12E0F91223ABEEF912262F
:103893007B7910025C5D74F4120D568A088B098CD7
:1038A3000A8D0B901A34E0640F701EEA4B4C4D6086
:1038B30018901A2FE064086005E06404700B780820
:1038C30012127F1238CF12129A023B347A017B0014
:1038D300901A7AE0F9121D3974042274F4120D5609
:1038E30074FC121348EAFEEBFF8A82F583A3A3E07C
:1038F300F912269F8A088B09EA4B7003023A178E46
:10390300828F83A3A882A983E0C0E0EA125E68D015
:10391300E012487864F160288E828F83A3E064CD3F
:10392300601E8E828F83A3E0641A60148E828F835D
:10393300A3E064E9600A8E828F83A3E064E17033BD
:103943007900122675E9602BE5082404F50AE435AD
:1039530009F50B850882850983A3A3A3A3A3A31257
:10396300494E124856121BC5850A82850B8312667F
:10397300B080708E828F83A3E0C0E074021215C8FA
:10398300D0E012506D1251901242FEC0E074031247
:1039930015C8D0E0F0E508126B59123FA7E0AA2141
:1039A300AB227005122303800312275F74021215E2
:1039B300C8E064E9702D85088285098312410D757D
:1039C3000A01780A12128B750AE9780A12128B120D
:1039D300482A1242CBFCA3E0FD8A828B831242F574
:1039E30012129A850882850983A3A3A3A3A3A3A381
:1039F300A3A3E064027012850882850983A3A3A3AD
:103A0300A3A3A3A3A3A37406F08E828F83A3A3E02F
:103A1300F912267B122669901C51123F1974040275
:103A23003B3174F4120D56EAFEEBFF7508008A82EF
:103A3300F583A3A3A3A3A3E0603875080812655711
:103A430079FF12243BEA4B601075082C8E828F831A
:103A5300A3A3A3A3A3E0D2E0F08E828F83A3A3A3A7
:103A6300A3A3E0540364016003023B204308110253
:103A73003B20EA24181254566036EA241A1254568C
:103A83006003F470131268397003A3E069600302E2
:103A93003B20750822023B20EA241B123B24241AF4
:103AA300125456FAEE2419125456F9122399806DC2
:103AB3008A828B83A3A3A3A3A3A3A3A3A3123F04D9
:103AC30070037508018E828F8312683D7003A3E033
:103AD300697006E508D2E1F508E50860158E828F66
:103AE30083A3A3E07006E508D2E58004E508D2E6E7
:103AF300F508124F6164017006E508D2E0F5088EFF
:103B0300828F83A3A3E06015EE241D125775F9126B
:103B13002765E964016006E508C2E0F508A90880A5
:103B230010F582E43FF583126EF4EA22740912124F
:103B33009A7F0402104274F0120D5674D712134880
:103B4300EAFEEBFF8A82F583A3A3A3A3E0600E90B2
:103B53001C4F1266F46006901C4F123F1974031237
:103B630013128E828F83A3A3A31260401265621285
:103B730026E1E97003023CCA780174051215C8E016
:103B8300C394024002780074071215C8E0C394027C
:103B930040027800740C1215C8E064F87003A3E0C7
:103BA300F47003023CCA740C1215C8E064F9700384
:103BB300A3E0F47003023CCA740C1215C8E064FA63
:103BC3007003A3E0F47003023CCA740C1215C8E03E
:103BD30064FB7003A3E0F47003023CCA740612157D
:103BE300C8E0F9901A1DE0696003023CCAE8A2E04C
:103BF3004003023CCA74271215C8E06003023CCAA2
:103C0300EE241312684F74221215C812604A241C42
:103C130012684F74101215C812619574091215C8F1
:103C2300E0601D741A1215C8E0FD74041215C8E093
:103C3300FC8E828F8312656279011225C7E9703B7E
:103C4300740312130A122615E9F50C74091215C828
:103C5300E0702C901A17E060267422596422601FCA
:103C63007442596442701474201215C8123EFE60E7
:103C73000E74201215C8123EF760047ACF804AE909
:103C8300A2E6504D74201215C812577B24FD600F15
:103C930014600C24FD600824FD600424FE70287465
:103CA300201215C8123EF0700E74201215C8125D52
:103CB300A1A3E0640D601A740312130A12278FE99B
:103CC3006401700D023EE07AD37B00121F43023E73
:103CD300E0EE242DF582E43FF5831241047003A343
:103CE300E069701D750800780812128B78081212AB
:103CF3008BEE242F125456F9123F0A1242F5121278
:103D03009A74091215C8E07003023DA8123F0A1203
:103D130065641227DD8A0E8B0FEA4B7003023E396E
:103D230074041215C8E0F88E828F83A3A3E028F8E9
:103D3300A3E03400F9E8240D123EE8F88A828B836D
:103D4300A3A3A3E068600EE88A828B83A3A3A312D4
:103D53004A021236FC7904E91215C8125475A3E01D
:103D63002AF8A3E034008882F583A3AA82AB8312E6
:103D73001C138A088B098C0A8D0B850E82850F8391
:103D8300A3A3A3A378081212084003023EE0901CE9
:103D9300B8780812142A850E82850F83A3A3126EA6
:103DA300FAA3125199901A2FE064046008E06409A1
:103DB3006003023EE0E50CA2E54003023E73EE24FD
:103DC3002F12545EF0EE2430125456C0E0740112E8
:103DD30015C8D0E0F0EE2431125456C0E07402123C
:103DE30015C8D0E0F074141215C8E064017026748D
:103DF3000E1215C81248512413125456687003A3A7
:103E0300E0697011740C1215C8123F047007741422
:103E13001215C8E4F0EE2425F582E43FF583121071
:103E2300C77404121312740712130A1223097404B9
:103E330012129A023EE0901A74E064016003023D9C
:103E4300A874201215C8123EFE7009E50CA2E650B4
:103E530003023DA874101215C8E0F47003A3E0F444
:103E6300607BEEFCEFFD740312130A122621806DB2
:103E7300A2E6506974201215C81262837016741A70
:103E83001215C8E064027055740312130A79001204
:103E93002759804974201215C8123EF77014741AFA
:103EA3001215C8E064047035740312130A12274D07
:103EB300802B74201215C8123EF0700C7900740325
:103EC30012130A12279B801574201215C8125DA1C4
:103ED300E0640C7008740312130A1227A7742902F2
:103EE30066C9E82406F582E439F583E02212669078
:103EF300E0640322126690E064072212577F64068F
:103F030022124F72640222EE242BF582E43F126EDA
:103F1300F2EE124F4722E0F508A3E0AA08FBE4FC07
:103F2300FD1226092274F4120D56EAFEEBFF8C08EB
:103F33008D09901997E0600F1268397003A3E06947
:103F43007005122387805379001265571223B78AAD
:103F5300828B83E5824583602CA3A3A3A3A3A3E061
:103F630054186021E508241C123FA41210CB123F01
:103F7300A01210CBEE24181242DC125A3C12681124
:103F830012129A801579008E828F83A3A3A31262E3
:103F930069125A3C12656412238D023B34E50824EE
:103FA30013F582E43509F5832274F7120D5674F77D
:103FB300121348EAFEEBFF901A2FE06403600DE052
:103FC30064016008E0640960030240AA8A828B836B
:103FD300A3E060030240787C007D007A027B00123C
:103FE3001BBF1268B68A82126853901A2012619519
:103FF3007953122171901A2FE064096009901A2DE8
:104003001265641227D78521828522837401125D8C
:10401300B9901A2F7404F0740112130A794A122109
:104023006B74011213127A257B1A121D6F9018AA52
:10403300E0640B70057406F0800579001240AF90C0
:104043001A2012626F7A037B00121BBF901A23128D
:10405300626F7A047B00121BBF901A1AE0A2E3502E
:1040630004D2F08002C2F0125DA6901C4B1215A57B
:10407300122609802FFC7D007A037B10121BBF9050
:1040830018AAE0640B7003740AF090199BE4F0FA29
:104093007B40125B968E828F83A3E0F91240AF9030
:1040A3001A2FE4F012264B7409024C4B901A2D126E
:1040B300656812231B22C082C0839019B71266F46D
:1040C3007017901A2FE024FB6005146007800A9094
:1040D30019BD801F9019BF801AE8496007123EE599
:1040E3006401700C8A828B83A3E0F912230F800E84
:1040F300901AA91266F46006125DA2122C98025857
:10410300ED126859901A2DE06822126859E8FAE90D
:10411300FB2274F5120D5674D81213488A088B09C2
:104123008A828B83A3A3A3A3A3A3A3A3E0C3940F14
:1041330050030242C68A828B83A3A3A312687174BD
:10414300151213128A828B83A3A3A3A3A3A3A3A3EE
:104153001242CBFAA3E0FB12265774151215C8E0DE
:10416300702E850882850983A3A3A3A3A3A3A3A376
:10417300E0C3940B401A8E828F83A3A3A3A3A3A3AC
:10418300A3A3E064027009EE240B125456F46003F7
:104193000242C674171215C8E06007640260030286
:1041A30042C6901A2FE06402601CE0640660179018
:1041B30019B71266F470030242C6123EE564016049
:1041C300030242C680259019B71266F4701D750864
:1041D30000780812128B780812128BEE2410124208
:1041E300DC8E828F831242F512129A8E828F831293
:1041F3006EC912488112685574021215C812604ABA
:104203001236F6C0E074041215C8D0E01242FEF56F
:1042130008A3E0F509740F780812155374051215F5
:10422300C8E508F074191215C8E0C0E07406121549
:10423300C8D0E0F0741B1215C8E0C0E07407121573
:10424300C8D0E0F074161215C8E0C0E07409121566
:10425300C8D0E0F074171215C8E0C0E07408121556
:10426300C8D0E0F0EE2410125456C0E0740A1215C0
:10427300C8D0E0F0741A1215C8E0C0E0740B121530
:10428300C8D0E0F074271215C8E0C0E0740C121512
:10429300C8D0E0F0741C1215C8A982AA8389088AC1
:1042A30009750A0078081212837C087D00741012C5
:1042B30015C8AA82AB8312544D12129AAA21AB22BB
:1042C3001223157428024DA9E0F98A828B83A3A3D4
:1042D300A3A3A3A3A3A3A3E022F582E43FF583E072
:1042E300F98E828F83A3A3A3A3A3A3A3A3A3126E75
:1042F300F422126568122717740222F0EE125A4153
:10430300E02274F2120D5674F81213488A0A8B0BCA
:104313008C0C8D0D89089086B5AC21AD22740812E2
:1043230011C8C200AC0AAD0BAA21AB221264E5701E
:1043330002D200901A7B8013AC0AAD0BEE240BFA69
:10434300E43FFB1264E5701B124F38124BCB601E27
:10435300A20040E48E828F83E0650C7004A3E065C5
:104363000D70E58E828F83A3A3E0650870DAEEFA01
:10437300EFFB740802488EC082C083901A7B0258F8
:10438300EAC082C083901A7BE4F0A30245E074F78D
:10439300120D56901A7B126DE2800FEA2414F582F7
:1043A300E412686E121CC7EEFAEFFBEA4B70EC9056
:1043B3001A7BE4F0A3F0024C4E74F2120D568A0CF1
:1043C3008B0DEDFF890B8A828B83E08C828D83F0CA
:1043D300A3A882A9838A828B831244851249FCE0B5
:1043E300C454F0FA88828983E04AF0EC2402F8E4AA
:1043F3003FF9850C828B83A3A3124485124498E072
:10440300333354FC12448CE033333354F812448C6A
:10441300A3E0A2E0E4331313FA88828983E04AF02D
:10442300EC2403FE50010FE50C2407F508E4350DD9
:10443300F509750A0078081212837C087D00EEFAEC
:10444300EF12544C12129AEE2408FE50010FE50CA1
:10445300240FF508E4350DF50978081212837C035F
:104463007D00EEFAEF12544C12129AE50BC3940F2F
:10447300400DE50C2412F582E4350D125A50F0027A
:104483004891A3E08882898322FA88828983E04A5B
:10449300124498A322F0850C828B83A3A3A3A322A7
:1044A30074F2120D56EBFF8C0C8D0D8A82F583E0AE
:1044B3008C828D83126EB3A3A882A983E0125895D0
:1044C300124877C412588FF0EA126EBD12589C122C
:1044D3004875A2E2E4338C828D831248741313135C
:1044E300541F125895A3124874A2E7E4338C828DAB
:1044F30083A3A3A3A3A3A3F0EA2403FE50010FF510
:10450300088F09750A0078081212837C087D00E57C
:104513000C240712544812129AEE2408FE50010F7D
:10452300F5088F0978081212837C037D00E50C24BB
:104533000F12544812129A8E828F83A3A3A3E0C052
:10454300E0126ED9D0E0F002489174F6120D56EAEB
:10455300FEEBFF8A82F583A3858208858309E0F950
:10456300122333850882850983E064EB601E8E8203
:104573008F83A3E064E160148E828F83A3E064F1F0
:10458300600A8E828F83A3E0641A70078E828F8302
:10459300A3E4F0901C4B1215A512260975080178A7
:1045A3000812128B8E828F83A3E0F508780812120B
:1045B3008B7900901A2D12626F901A231242F51212
:1045C300129A122669025C5DC082C083E9901A8D3B
:1045D3007003E4800274018004EAF0A3EBF0025854
:1045E300ED1265681221892274F6120D56901A8D08
:1045F300E0701B7C0079017A007B00122699EA4B5C
:10460300600C8A828B831266F460031225FD025CC0
:104613005DC082C083124AAB401079FF122693E932
:10462300F89032E2E493C398500479018002790050
:104633000258ED74F2120D568A0A8B0B8909C200D7
:104643008A828B83A3A3A3A3A3A3A3A3E0F9122624
:104653009F8A0C8B0DAE0CAF0D750801EA4F6003FA
:10466300024717850A82850B83126269850A828550
:104673000B83A3A3A3A3A3A3A31248561226878A3B
:104683000C8B0DAE0CAF0DEA4F70030248238A82E8
:104693008B83A3A3A3A3E4F0A3F0E50A240CFAE419
:1046A300350BFB8A82F583E0C0E012482AD0E0F0A4
:1046B300E50A240D12484A240D12618F12277D1238
:1046C3004F501266B0E50A241112484A24111261B0
:1046D3008FE50A2413126880C0E0124F42D0E0F045
:1046E300D200EE2406F8E43FF912483D124878540C
:1046F300046003024789901C5DE0F50A750B0074A2
:1047030007780A1214508E828F83A3A3A3A3A3A3B3
:10471300124834F08E828F83A3A3A3A3A3A3E0F54F
:104723000AA3E0F50B7407780A121553E50A540738
:10473300FCE50960618E828F83A3A3A3A3A3A3A334
:10474300A3A37402124DA3124B40600B901A1B12C9
:1047530054D6A3A3126195EC70030247FAEE240624
:10476300F8E43FF9E8FAE912483DF0EC24FFF50AD2
:10477300E434FFF50B7407780A1214508A82898394
:10478300124834F080718E828F83A3A3A3A3A3A3C3
:10479300E04480024716EC700575080080598E824C
:1047A3008F83A3A3A3A3A3A3E05420600C121C191B
:1047B300EA547F7900245F80198E828F83A3A3A399
:1047C300A3A3A3E05410601A121C19EA540F790032
:1047D300240A5001098E828F83A3A3A3A3F0A3E924
:1047E300800D8E828F83A3A3A3A37401F0A3E4128D
:1047F30048817404124AC1A20050288E828F83A379
:10480300A3A3A312656EF9EEFAEFFB12268DE960FE
:10481300121266ED6003124863EEFAEFFB121CC737
:10482300750800A9088067EE240CF582E43FF58340
:1048330022E0450AF0A3E0450B228882F583E05489
:104843007FF0A3E054FC22F582E4350BF583126874
:1048530059EE22A3E0F9850A82850B83126568224B
:1048630012486A124CC022EE240FF582E43FF5830E
:1048730022A3A3A3A312487C2212689CE02212481D
:104883008522124D99A3A3A322740312129A7F06C1
:1048930002104274F4120D5674F71213487E00127C
:1048A300269FEA4B70030249498A828B83A3A3A301
:1048B300A3A3A3A3A3A3E0640660030249498A82D6
:1048C3008B83A3A3A3A3A3A3A3E0FF8A828B831257
:1048D3006E7BE0C0E074081215C8D0E0124C711270
:1048E30061821261951226B1EF54086057852182C7
:1048F30085228312626F7A007B00122681EA4B7055
:1049030043126EE47C007D007A007B0080228E825D
:104913008F8312577BF47003A3E0F46027901A2D62
:1049230012494E124C53601C7C007D00EEFAEFFBE3
:104933001226818A0A8B0BAE0AAF0BEE4F70CF792A
:10494300001221A17E01EEF9023B2F12495222E00F
:10495300FCA3E0FD8E828F8322C082C0838A828B78
:1049630083E58245837009901A9280068A828B833D
:10497300A3A3124B7460208A828B83A3A3A3A3A354
:10498300A3A3E0540860E5EC4D6010124B7A70036A
:10499300A3E06D70D780047A007B000258ED74F2B7
:1049A300120D568A088B09890AECFEEDFF7A147BF7
:1049B30000121CC1EA4B60378A828B83A3A3A3A393
:1049C300A3A3A3A3A3E4124A12E50A124C5DEEF0DB
:1049D300A3EF124A02124C78124A098A828B83127D
:1049E3006EFC1249F51265EBA31249FCF0A3F00229
:1049F3004891EA240FF582E422126EB7A3A3221290
:104A03004C63E4F0A322A3F0126E741265EB22123E
:104A13004A1622124C67A3A3A3A32274F5120D56C0
:104A2300EAFEEBFF890A8C088D09EA4F6075740171
:104A33006970127901122693E9F89032E4E493C382
:104A4300985015800A7404697009124AAB500979A9
:104A5300118052740269704B8E828F83A3A3A3A328
:104A6300A3A3A3A3A3E50A124ABA1251901267752E
:104A7300A3E4F0A3F0901A921266F4601880031274
:104A8300685588828983A3A3124B7488828983A380
:104A9300A370EC8003901A92EEF0A3EF124AC1794F
:104AA30000800279C1024DAC7904122693E9F89093
:104AB30032E3E493C39822126779A3A3A322F07A83
:104AC300207B00901A7AE0F9121C5522C082C08321
:104AD300E9F87900901A92801D8A828B83A3A3A39D
:104AE300A3A3A3A3A3A3E068600574FF68700109EF
:104AF3008A828B83A3A3124B7470DE0258ED74F782
:104B0300120D56EA4B7005901A9280068A828B83A7
:104B1300A3A3124B74601F8A828B83A3A3A3A3A3B3
:104B2300A3A3A3A3E06970E4EC600F8A828B8312D2
:104B33004B4070D880047A007B00024C4E126E9476
:104B4300E0540422C082C083901A9280068A828B2A
:104B530083A3A3124B7460128A828B83A3A3A3A3A0
:104B6300A3A3A3A3E06970E580047A007B00025845
:104B7300ED126568EA4B228A828B8312577F6C227F
:104B830074F2120D568A0A8B0B8C0C8D0D7508006E
:104B9300750900EA4B602A901A9280068E828F83F1
:104BA300A3A3124BCB601AAC0CAD0DEEFAEFFB8551
:104BB3000A82850B83122C98E9640170DF8E088FBB
:104BC30009AA08AB09024891E0FEA3E0FFEE4F22D9
:104BD30074F7120D56901A921268557C007D00806E
:104BE3000DE8FCE9FD88828983A3A3126855E8498F
:104BF3006030EA687002EB6970E7901A921265649C
:104C0300E86A7002E96B88828983A3A3700812683B
:104C130055901A9280091268558C828D83A3A31232
:104C23006195802774F7120D56EAFEEBFFEA4F6099
:104C3300151226AB124CAC1266ED6003124863EEFC
:104C4300FAEFFB121CC7800312129A7F0102104273
:104C5300126568122195E9641A22124C63A3A322F8
:104C6300124C6722F08A828B83A3A3A3A322126E22
:104C7300B712577F22124A16A32274F6120D5690CA
:104C83001A92126871801412688E124CAC12486327
:104C9300EEFAEFFB121CC7AE08AF09EE4F70E890B7
:104CA3001A92E4F0A3F0025C5D8E828F83126E6829
:104CB300F583124CC08E828F83124CC022E0FAA37C
:104CC300E0FB121CC722C082C083EAFCEBFDEA4D65
:104CD3006017EA24FBF582EB34FF1266F2700712C9
:104CE3004D1EE0F46007121C257905802B901A7A7B
:104CF300E0C0E0124D1ED0E0F09032DBE493F97A8D
:104D0300947B1A121C4FE96401700B7A007B20120A
:104D13004D2D7900800279040258EDEA24FFF582D3
:104D2300EB34FFF583227A207B00901A7AE0F912A4
:104D33001C552274F4120D56A2AFE433F508C2AF2A
:104D4300901A94124BCB6038EE24FBF582EF34FFBC
:104D53001266F27A007B20901A7A6005124D308039
:104D630005E0F9121C5BE4F50AF50B780A121287C9
:104D7300EEFCEFFD7A947B1A121C49740212129A0C
:104D8300E508A2E092AFEEFAEFFB023B34124D9539
:104D9300E022124D9922124DA3A3A3A3A3A3A322FE
:104DA300F08E828F832212129A7F0302104274F2D2
:104DB300120D5674FA121348EAFEEBFF7508FE75DE
:104DC30009FF12266FE960057911024F331254531C
:104DD300603C901C78E0C43354E0F8E0333354FC77
:104DE30048C0E0EE125E623FF583D0E01268B0FA8D
:104DF300A3E0FB79FF12243BEA4B60127508FFEE38
:104E0300240F1254564404F0125453D2E0F08E820D
:104E13008F83124F6C6006EE24121268C8EE2413BF
:104E2300125456700D9032D9E493C0E0124F42D021
:104E3300E0F08E828F83E0A2E7500454038019EEE2
:104E430024141254567012901A0CE0C0E0124F381A
:104E5300D0E0F0901A0CE004F0EE241112545664E2
:104E6300017016901C61E0600D901A17E0700A8EB5
:104E7300828F83E070031268C58E828F83E06401A2
:104E83007013EE240B12577564027009EE240F128F
:104E930054564440F0AC21AD22EEFAEFFB1226DB70
:104EA3008A0A8B0B74FE6508700374FFF470031297
:104EB300688EEA4B60768E828F83E0C0E0740112C5
:104EC30015C8D0E0F074041215C8EEF0A3EFF0EEAD
:104ED300241E12684F74021215C8126195740112D0
:104EE3001302880C890D780C121287EE2420124FBE
:104EF3005512128B124F501210CBEE240E124F5537
:104F030012128B901A201210CB74081215C8E0F9F4
:104F1300AC08AD091226D5740812129AE9FE741072
:104F23006E700BAA0AAB0B121CC780027E10EEF93F
:104F3300740602488EEE2414F582E43FF58322EED4
:104F4300124F47222413F582E43FF58322EE1248E1
:104F53006B22F582E43FF583E0F50C780C228E8218
:104F63008F83A3A3A3A3A3A3A3A3A3124F7222E09C
:104F7300FAA3E0FB122777E922C082C08374D71219
:104F830013489082DD740312131274261211C88A17
:104F9300828B83A3A3A3A3126855740E1215C812A0
:104FA30066FA126855740C1215C8125075240D1246
:104FB3005065C0E0741A1215C8D0E0F01265F11202
:104FC300685374201215C81250752415125065C009
:104FD300E074081215C8D0E0F0EA241CF582E43B23
:104FE30012685374121215C81250752411125065A9
:104FF300C0E074091215C8D0E0F0EA24121250651B
:10500300C0E074071215C8D0E0F0EA241EF582E46C
:105013003B12685374241215C81250752420125081
:1050230065C0E074261215C8D0E012506D74FFF00D
:1050330074011215C874FFF074021215C874FFF0DE
:10504300901CCC1210C77404121312740712130AA3
:10505300122309740412129A7900742912129A0203
:1050630058EDF582E43BF583E022F0852182852229
:105073008322E8F0A3E9F0EA2274F4120D5674ECEB
:105083001213488A0A8B0B8C088D09E9FF7E107A6C
:10509300217B00121CC1852182852283EAF0A3EBC8
:1050A300126704E84970030251897C217D0079006D
:1050B300852182852283E0FA121C07901A2D12653E
:1050C300648521828522831262732409F582E43880
:1050D300F5831266B074201215C812685574111244
:1050E30015C8E81257E41266B638F58374021257EE
:1050F300E7126E8274021257D11251901257E712BF
:105103006E5FEFF074221215C8125792F9A3E0C92B
:10511300126B5939F583E81254A7A3E0C9241FF58C
:1051230082E43912519774231215C8126564740608
:105133001215C81266B074081215C8E8F074261266
:1051430015C812668AC082C083740C1215C8AC825B
:10515300AD83D083D08274051211C874251215C88B
:10516300E0C0E074131215C8D0E0F07900AA21ABB7
:1051730022122675E9640170047E0080098521826C
:10518300852283124866EEF97414023B31E508F078
:10519300A3E50922F583E50AF0A3E50BF02274F0F9
:1051A300120D5674FF121348EAFEEBFF8C088D09AB
:1051B3008A82F583A37408F0EA2416125456600811
:1051C3008A828B83A37410F0EA2417125456600961
:1051D3008A828B83A3E02408F0EA12545460088A7D
:1051E300828B83A3E004F08A828B83A3A3A3A3A36C
:1051F300A3E060198A828B83A3A3A3A3A3A3A3E041
:10520300C3332402F88A828B83A3E028F0EA2411B3
:1052130012545E6004740E8001E4F0901C70E0642C
:105223000170168A828B83E06401600D90199BE004
:10523300600712543E7401800412543EE41254A7D2
:105243008A828B83A3E0F8EA1236F628298C828DB2
:1052530083F0EA24111254566005125A7F29F0850F
:105263000882850983E0C394754009750C00750DA8
:1052730000025435E0FA7B00121CC18A0C8B0DEA44
:105283004B70030254358E828F83E0FA901A1D12FD
:1052930054A074027808121450EA4508FAAB09EED8
:1052A300241212549A74067808121450A808EA4873
:1052B300FCEBFD1254536004780180027800EE2465
:1052C30016FAE43FFBE4C8F9ED49FDEE241112544C
:1052D30056F508880974097808121450ED4509FD3C
:1052E3008A828B831254A0740B7808121450ED45F4
:1052F30009FDEE241712549A740C7808121450ED19
:105303004509FD8E828F83A3A3A3A3A3A31254A055
:10531300740A7808121450ED4509FDEE2423125443
:105323009A740D7808121450ED4509F9EC850C8236
:10533300850D83F0E9A3F0EE240212547D1254BCD0
:10534300F0EE240412547DA3A31254BCA3A3F0EEE5
:10535300241312548DF0EE241412548DA3F0750B04
:10536300088A828B83E0601512676612626FE50C10
:105373002408FAE4350DFB121D6F750B10EE24178C
:1053830012545660191262F212626FA80BE50C28D0
:10539300FAE4350DFB121D6F7408250BF50B8E8295
:1053A3008F83A3A3A3A3A3A3E0604EEE2407F50E6C
:1053B300E43FF50F850E82F583E0C0E012546CD014
:1053C300E01254ACE0C0E00812546ED0E01254ACCA
:1053D300A31266E0121283850E82850F83E01257B3
:1053E30046A80BE50C2812544812129A850E8285A2
:1053F3000F83E0C333250BF50B1254536008C0E051
:1054030012546CD0E0F0125A3C1266E0121283126E
:1054130036F5FC7D0074031215C8125475E0F8E5E7
:105423000C28F8E4350DF9E82AFAE43912544C1241
:10543300129AAA0CAB0D74010266C9EA2423F58201
:10544300E43FF58322FAE4350DFB121BFB740322C0
:10545300EE2415F582E43FF583E022F582E43FF57F
:1054630083E085218285228322A80BE50C2812572D
:105473005922E0FA8E828F83A322F8E43FF98882CF
:10548300F583E0850C82850D8322F582E43FF58365
:105493001254C6A3A3A322F582E43FF583E0F508E3
:1054A30075090022126EA5F922F0050B8E828F83F7
:1054B300A3A3A3A3A3A3A3A322A3A312689CA3129E
:1054C30054C622E0850C82850D83A3A3A322740313
:1054D300023B311268598E828F83A3A32274F01288
:1054E3000D5674FD1213481266AA74021215C8E908
:1054F300F08C0C8D0D750B017C267D007900AA0CB8
:10550300AB0D121C0774021215C8E0C394085003B4
:105513000256CF125485F0AC0CAD0D852182852245
:105523008312577BFA852182852283125DA1125A49
:1055330078E96003750B0085218285228312668AD0
:1055430012579CE0F9EA850C82850D83A3A3A3A3DC
:10555300A3A3A3A3A3F0A3E91257D1A3A312579C18
:10556300A3A3E0F9E50C126709EA1257E412625F9C
:10557300C0E0E50C2411126EDDD0E01257E72407DA
:10558300F582E438F583E0C0E0126ED9D0E012660C
:105593009D74081257C8A3E0602685218285228363
:1055A300E02408F8A3E03400F9E50C2413F582E4C1
:1055B300350D126193850C82850D83A3E02408F0D9
:1055C300850C82850D83A3A3A3A3A3A3A3A3E06058
:1055D3002A850C82850D83A385820E85830F12573E
:1055E30089F8A3E03400F9E50C125E62350D12610F
:1055F30093850E82850F83E02408F012574DE4F063
:10560300125761E4F0A312669DA3A3A3A3E0601164
:105613001257AD850C82850D83A3A3A3A3A31257B1
:10562300D9E50C12576EE070030256BB1257ADFA60
:1056330012574DEA1257D9F8852182852283E02833
:10564300FBA3E034008B82F583E0F8E50C241A1207
:105653006EDDE81257D9E8C39AE50C505612576924
:10566300F89032DCE493C39850047E0C8006E50C7A
:10567300125769FE850C82850D83125788F508A39E
:10568300E03400F509750A007808121283EE125708
:10569300467AAC7B0D12544D12129A12576174ACB8
:1056A300F0A3740DF0EEC333F8850E82850F83E00B
:1056B30028800412576EE4F0850C82850D83A3E0E5
:1056C300F8850C82850D83E0C398500479008070BF
:1056D300125788FAA3E03400FBE50C1268BF126E80
:1056E300E01266B0850C82850D83E0C398C0E0E5C7
:1056F3000C2417126EDDD0E01257C8E06040E50CB1
:105703002417FEE4350DFF8E82F583E024F2F0E5E5
:105713000C241DF8E4350DF98882F583E0240EFA94
:10572300A3E03400FB888289831266B0901A18E0E4
:10573300F91225CDE9F88E828F83E0C398F0A90B87
:105743000266C725E0FCE433FD22E50C1257532221
:10575300241912575922F582E4350DF58322E50CFD
:10576300241B12575922125753E0221266971257DD
:105773005C22F582E43FF58312577F2212685EF5BF
:10578300838882E022A312578D221257922822E0A7
:10579300F8852182852283E022A3A3E0FA85218272
:1057A300852283126690A3A3A322850C82850D8391
:1057B300A385820E85830F12578DFAA3E034008AE6
:1057C30082F583E0221266A1A3A3A3A3A322125707
:1057D300ECF583888222F0850E82850F83E004F046
:1057E30022F0A3E91257ECC822126EA9F8A3E02213
:1057F30074F4120D568A088B09EA12589CA3A3F07D
:10580300EA1313543F12588FA3F0EAC41313125828
:105813009C1258A67409780A121553125886A3A32A
:10582300A3A3A3A3F0EB1258881258A5740A780A0D
:10583300121553E50A5401C0E0EC1266973DF58357
:10584300D0E01258AA740B780A1215531258861214
:1058530058A3740C780A121553125886A31258A32E
:10586300740D780A121553E50A5401C0E0EC2424A0
:10587300F582E43DF583D0E0F0740E7808121553F9
:10588300023B20E50A54018C828D8322125895A392
:10589300A322540F8C828D832254038C828D832206
:1058A300A3A3A3A3A3A3A3F08A0A8B0B22C082C042
:1058B3008379008A828B83A3A3A3A3A3A3E0901A73
:1058C30017600EE0701F8A828B83A3A3E07016809B
:1058D30012E06011126557901A20E06A7003A3E08A
:1058E3006B600279018003126564D083D082021257
:1058F3004C74F2120D568A0A8B0B890CECFEEDFFE9
:105903008A828B83E0FA125A78850A82850B83A3F5
:10591300A3125A6CE0F9EA8E828F83A3A3A3A3A3F5
:10592300A3A3A3A3125A91125A6CA3A3E0F9125A88
:105933003CEA125A91A3A3E0C0E0EE2411F582E4FD
:105943003FF583D0E0125A98A3A3A3E0C0E0EE246E
:1059530012F582E43FF583D0E01267757408124AAA
:10596300BAA3A3A3E06017E50A2408F8E4350BF90A
:10597300124F42E8F0A3E9126775E02408F08E8223
:105983008F83A3A3A3A3A3A3A3A3E060188E828FF3
:1059930083A3125A5BEE241512618F850882850951
:1059A30083E02408F08E828F83A3A3A3A3A3E060E4
:1059B300248E828F83A3858208858309E0F8E50A14
:1059C30028F582E4350B125A50A3A3F0850882858B
:1059D3000983E004F0EEFAEFFB1226EDE9F50D7012
:1059E300498E828F83A3A3A3A3A3A3125A4AA370AE
:1059F30014E0F8E50A28FAE4350BFB125A32126672
:105A0300B0E50C801A125A5BE8240EF8500109EE37
:105A1300241D12618F125A7FF9E50CC39924F2C336
:105A230098C0E0EE1262E9D0E0F0A90D024891EED1
:105A3300241DF582E43FF58322EE125A4122240B02
:105A4300F582E43FF58322E08E828F8322F583E0A3
:105A53008E828F83A3A3A322858208858309E0F81E
:105A6300E50A28F8E4350BF922E0FA850A82850B6A
:105A730083A3A3A3221268D11226E722901A18E067
:105A8300F91225CDE9F8850882850983E022F0A380
:105A9300E9125A9822F0850A82850B83A3A3A3A354
:105AA30022C082C0837AA07B1A79E212216B7AA08A
:105AB3007B1A0258EDC082C083901A200258EAC0B4
:105AC30082C083901A230258EAC082C083794A12A3
:105AD300216B0258ED74F6120D56901AA8E0FE04DD
:105AE300F0EEF912269FEA4B70F0EE60EDF9025CDE
:105AF3005D74F2120D56EAFEEBFF8C088D09890ADC
:105B03001227DD740E1215C8E0F9740F1215C8E0E0
:105B1300F8EA4B7012E8701BA90AAC08AD09EEFA5B
