:020000040000FA
:0600000002127802081E46
:03002B00020FC8F9
:030033000208FCC4
:030053000206F0B2
:1000830002077C01010000000000F8FF07FFFF00EA
:10009300000504000000030001FFFFC8141027003F
:1000A300000020FD000206FFFF1E0104010C0002F8
:1000B30001078604CE85010400003F14000000E818
:1000C300030000FFFF90140188130000E803000001
:1000D30064006400B801A0BB0D00A0BB0D000202C8
:1000E30002070401051E02051E020A0A010108088F
:1000F3000103B80B02803E0102FEFFE8030A05007C
:1001030001FFFF020A011401E000000000020000E9
:1001130000050301010F03000300030003000300B4
:10012300030003000300030005000A001400280075
:100133004F009E0000009F2A00000000732900006A
:100143000000FF000000FF001212C4604612128874
:10015300603DE9687008F618F618F618F622748000
:1001630067F712017F090909748067F72212128861
:10017300601D1212C47005191919801A12114170E9
:100183001F121119C37003E66733191919400718B1
:1001930018182208080874FFF618F618F618F6223D
:1001A3001211196017121325702192F01213377070
:1001B30019501720F014080808090909E7F6181957
:1001C300E7F61819E7F61819E7F62212133760E66F
:1001D300E869701F0808E62480F608E436F6185428
:1001E3007FB47F0CE654806007F6E418F618F62215
:1001F300181822E9C6CC08C6CD08C6CE08C6CFC09B
:10020300E0E8C0E0EAC0E0EBC0E009E9F809E7FA9A
:1002130009E7FBE6F918E6F8C3EC98ED99EE9AEBDB
:10022300C2E7F5F0EFC2E795F0500E600CEBCFFBA1
:10023300EACEFAE9CDF9E8CCF8EAA2E7D2E7FAEB9D
:1002430033FB13F5F0EEA2E7D2E7FEEF33FFC5F081
:1002530013A2E730E601B313C5F0C3C0E0C0F07FDB
:1002630000C39BFB605E9418600F401D14601AD09E
:10027300E023F9D0E0F80203518AF0E9486003D2A1
:10028300F0E4AFF0FAF9F8803BEB30E40D89F0EAE3
:100293006003D2F0E4AFF0F9CAF8EB30E30D88F075
:1002A300EF6002D2F0AFF0E4CAC9F8EB5407601470
:1002B300FBC3EA13FAE913F9E813F8EF135002D278
:1002C300E0FFDBEDD0E0C0E030E739C3E49FFFF5AA
:1002D300F0EC98FC42F0ED99FD42F0EE9AFE42F00C
:1002E300D0E0F9D0E0F8E5F0607AE923F9EE20E711
:1002F30042D8028067C3EF33FFEC33FCED33FDEEEE
:1003030033FE80EAEC28FCED39FDEE3AFED0E02323
:10031300F9D0E0F84002801BC3EE13FEED13FDECB1
:1003230013FCEF135002D2E0FF08B800067F7F747E
:10033300FF802EEF3350178CF020F00260100CBCBE
:10034300000C0DBD00080EBE000408E860DFE933B1
:10035300E813FFEE2313FE4F4D4C8008E95480FF52
:10036300E4FEFDFCEE33EF33F47004FCFD7E80D03D
:10037300E0FBD0E0FAD0E0F8D0E0CFC618CEC61844
:10038300CDC618CCC6F92212128870041818182288
:100393001212C4700D74FFF61819F61819F618190D
:1003A300F622E7548066F6121337700F1213257086
:1003B300F014F608F608F608F680D1121325700C2F
:1003C300F608F608768008E6447F80EC12111C706C
:1003D3000C12114460BFE65480F6E480BB12114452
:1003E300700519191980A5E869700C763F18768095
:1003F30018F618F6E8F922E6CDC0E018ECC0E0E6FE
:1004030033CD33CDD313F6E719FCE7191933CC33C6
:10041300C3947F400ECD9D502408E65480F6E41823
:10042300F6800FF4043D14501408E6447FF6187662
:1004330080E418F618F6D0E0FCD0E0FD22CCD3130C
:10044300CCFD18E4C6CBC0E018E4C6CAC0E0080877
:10045300ED08C633E613F618E433C675F003C3CAD2
:1004630097CA09CB97CB199C40047D08802EBD0009
:100473000302053316B6FF050606081618C3CA336A
:10048300CACB33CB33CA27CA09CB37CB193CC37D7D
:1004930008803E187D0820E75CC633C6CA33CACB42
:1004A30033CB33DDF1D5F0EB30E77BCA97CA09CB09
:1004B300974ACB199C406F4B7025E620E02180665C
:1004C300187D08C3CA97CA09CB97CB199CD3C633E7
:1004D300C6CA33CACB33CB3350C9DDE7D5F0E1D33A
:1004E300E4C636C608C636C608C636C608C636C605
:1004F3001818188031C3CA97CA09CB97CB199CB374
:100503004097C633C6CA33CACB33CB33DD34D5F0B9
:100513002EC6A2E0C640C8CA27CA09CB37194A70FB
:10052300BECB3CB480B90808E63308E633601F1835
:100533001818D0E0FAD0E0FBD0E0FCD0E0FD2218A0
:100543007D08CA27CA09CB37CB193CD3808013F661
:1005530018E4B67F11F618B6FF0EF618C60470D26B
:100563000808768080CAF618F618F680C5001212BD
:1005730088604F1212C46012E7548066F61211416C
:100583007011121325703B090909F4F618F618F6D1
:1005930018F622121119701512133708080860EAA9
:1005A300E6447FF618768018E4F618F6221213371D
:1005B30060161213257012E4F608F608F608E654DE
:1005C30080F609090918181822EAC0E0EBC0E0EC2C
:1005D300C0E0EDC0E0E687F0A4FBACF008E687F0EE
:1005E300A42CFCE435F0FA1809E687F0A42C4B6040
:1005F300027401CA35F0FCE433FB09E687F0D2F755
:10060300A42CCB35F0FC1908E687F0A42BCC35F0ED
:10061300FBE433FD0819E687F0D2E7A42C4ACB3577
:10062300F0CD3400FC09E687F0D2E7A42DCC35F0F9
:10063300FDE433FA0918E687F0D2F7A42CCD35F0A0
:10064300CA3400FC08E687F0D2E7D2F7A42ACC35F7
:10065300F07A7E20E70B0ACB33CBCD33CDCC33CC32
:1006630033CB3350147004ED30E00ED2F1E4CD3DC2
:10067300CDCC3CCC3B5005DA05C2F1EB547FC633FD
:1006830008E63392F0FBE73309E733C39A502D2B87
:1006930070190C0D4C4D70151806E608C333700D18
:1006A30020F10AA2F013F6E418800B4024E4F6309C
:1006B300F002768018F618F618F68024D33B14500F
:1006C3001074FFA2F013F6187680E418F618F6807B
:1006D3000FA2F013F618E63303F618ECF618EDF64E
:1006E300D0E0FDD0E0FCD0E0FBD0E0FA22C0E0C0D7
:1006F300D0E8C0E0E9C0E0EAC0E0EBC0E0ECC0E075
:10070300EDC0E0EEC0E0EFC0E0C008C009C082C0A9
:1007130083C0F0A2AFE433F509D2AF85A708AFA138
:10072300EF5508FE74105E600612150E75A1EF7486
:10073300085E600812151475A1F78024EFA2E092F9
:10074300F0E508A2E082F05017906198E0F8900677
:1007530036E0C398A2D265D0335002E8F075A1FE0B
:10076300752300E509A2E092AFD0F0D083D082D008
:1007730009D008D0E0FF020804C0E0C0D0E8C0E020
:10078300E9C0E0EAC0E0EBC0E0ECC0E0EDC0E0EEC1
:10079300C0E0C082C083C0F0A2AFE433FED2AF900A
:1007A30061A4E0F8759B00E59158540860087591C1
:1007B300F71215568023E59158541060087591EF90
:1007C30012155C8014E591A2E092F0E8A2E082F0B9
:1007D3005007E0C2E0F012169A9061A3E0F8E5E951
:1007E300585404600E12167C75E9FB906193E0A2E5
:1007F300E640F2752300EEA2E092AFD0F0D083D0B2
:1008030082D0E0FED0E0FDD0E0FCD0E0FBD0E0FA07
:10081300D0E0F9D0E0F8D0D0D0E032C0E0C0D0E8EA
:10082300C0E0E9C0E0EAC0E0EBC0E0ECC0E0EDC04E
:10083300E0EEC0E0C082C083C0F0A2AFE433FED2DA
:10084300AF9061A5E0F8E5BF585404600675BFFB9F
:100853001216A6809E1208AD30F0431208F2803EB5
:100863008A088B098C0A8D0B78081208AD20F014C6
:1008730030E72B74FFFCFBFA747F8022E4FCFBFA65
:100883007480801AB48008BC00F2BB00EF800F5064
:10089300EBF9E4C39AFAE49BFBE49CFCE499C6CC31
:1008A30018C6CB18C6CA18C6F922E4C9C608CAC6F0
:1008B30008CBC6D3330308CCC63392F0C3947F402E
:1008C3002E94184019C9B90704CACBCC225025C3AA
:1008D30009CA33CACB33CBCC33CC33D9F422F4603B
:1008E3000DC9CCC313CB13CBCA13CAD9F6CC22E49C
:1008F300FCFBFA2214FCFBFA22C0E0C0D0E8C0E003
:10090300E9C0E0EAC0E0EBC0E0ECC0E0EDC0E0EE3F
:10091300C0E0C008C009C00AC00BC082C083C0F0D9
:10092300A2AFE433FED2AFE58BA2E050329005FFD5
:100933007404F0E58BA2E0E433900600F075081927
:10094300750900750A00750B007808120FE57A1017
:100953007B009005FDE0F9121892740412101B75C8
:100963008B00C2E8752300EEA2E092AFD0F0D083F3
:10097300D082D00BD00AD009D008D0E0FED0E0FD61
:10098300D0E0FCD0E0FBD0E0FAD0E0F9D0E0F8D042
:10099300D0D0E032C3E498F8E499F91209D880265C
:1009A300C3E49AFAE49BFBE920E7E91209D8E49847
:1009B300F8E499F922C3E498F8E499F91209D8E420
:1009C30098F8E499F9C3E49AFAE49BFB22EB20E755
:1009D300CFE920E7E0B90010BB0008E88AF084F80B
:1009E300AAF022E4FBC8FA22EB70227B10C833C8BA
:1009F300C933C9335007C39AC3DBF280069A500147
:100A03002ADBEAC833F4C8C933F4C9FA2275F008FB
:100A1300E4C833C8C933C933C99AC99B5004C92A26
:100A2300C93BD5F0ECFBC833F4C8E4C9FA22080883
:100A330008EAC0E0EBC0E086F0E7A4FA180986F004
:100A4300E7A42AFA180986F0E7A42AFA180986F017
:100A5300E7A42AFA1986F0E7A4FBE5F02AFA1908B5
:100A630086F0E7A42BFBE5F03AFA190886F0E7A431
:100A73002BFBE5F03AFA18180986F0E7A4C5F02B2A
:100A8300FBE43AFA1908E7C5F0C6A426F6E5F03BFD
:100A9300FBE43AFA1886F0E7A4F6E5F00826F6E454
:100AA3003B08F6E43A08F6D0E0FBD0E0FA22E4CFC4
:100AB300C0E0E4CEC0E0E4CDC0E0E4CCC0E075F03B
:100AC30020E626F608E633F608E633F608E633F6BC
:100AD300181818EC33FCED33FDEE33FEEF33FFC390
:100AE300EC9709ED9709EE9709EF97191919400F3C
:100AF300FFEC97FC09ED97FD09EE97FE191906D552
:100B0300F0BFECF709EDF709EEF709EFF71919193B
:100B1300D0E0FCD0E0FDD0E0FED0E0FF222521C5EF
:100B230082C0E0E52234FFC583C0E0E521C395829E
:100B330024F810AF088583228582218008858322CB
:100B4300858221D2AFCEF0A3E520F0A37808E60892
:100B5300F0A3DEFAEFF0A3E58124FAF8E608F0A3A8
:100B6300E608F0A3E608F0A30808E608F0A3E60801
:100B7300F0A315811581D0E0FED0E0F81581158131
:100B83001581E8C0E0EEC0E022121310B9000302A1
:100B93000BDEE4900501782B79138002F0A3D8FCD7
:100BA300D9FA78239000867A01BA00028007E49389
:100BB300A3F608DAF97A2B7B1790008778C57901B9
:100BC3008015E493A3AD82AE838A828B83F0A3AABC
:100BD30082AB838D828E83D8E9D9E7758269758369
:100BE300B67405120FAA7582F67583267400120F68
:100BF300AAE9799EC608CAC608CBC608CCC6C37084
:100C0300207996CACBCC7019798ECBCC70137986A8
:100C1300CC700EF9802ACA33CACB33CBCC33CC3356
:100C23001930E7F2CCCBCA3350147004EA30E00D2C
:100C3300E4CA3ACACB3BCBCC3CCC500209C3E91340
:100C4300C6CC182313C6CB18C6CA18C6F92200008F
:100C53002275F0108E248F2585822985832885218E
:100C630082852283E0CEA3E0CF852982852883EB8A
:100C7300C9EAC8EDCBECCAC3E833C8E933C9EA33E0
:100C8300CAEB33CBC3EA9EF527EB9FF526B350049B
:100C9300AB26AA27EC33CCED33CDD5F0DAAE24AFB7
:100CA3002522121288601C1212C4601712133770A7
:100CB300071213257001D322C0D01213257006D05A
:100CC300D0B322C32233D0D0501430E0F6C3E7961A
:100CD3000809E7960809E7960809E796B32220E092
:100CE300D5E6970809E6970809E6970809E697B352
:100CF30022D083D082ECC0E0EDC0E0E493A3FCE417
:100D030093A3FDED4C600D120E18EC24FFFCED34A3
:100D1300FFFD80EFE493A3FCE493A3FDED4C600D92
:100D2300120EB5EC24FFFCED34FFFD80EFD0E0FDA7
:100D3300D0E0FCE493A3C0E0E493C0E02212128865
:100D4300601B1212C460161213377007121325604A
:100D53000CB322C0D01213257005D0D022C3223386
:100D6300D0D0501330E0EBC3E7960809E7960809A3
:100D7300E7960809E7962220E0E4E6970809E69754
:100D83000809E6970809E69722D083D082E9C0E0F4
:100D9300E493A3C386F0C5F095F0F908E493A38622
:100DA300F0C5F095F0700BE493A3C3994005E904F3
:100DB3008002A3E475F002A42582F582E5F0358371
:100DC300F583D0E0F9E493A3C0E0E493C0E0228587
:100DD3002283852182E0A3FEE0A3F5207808E0A327
:100DE300F608DFFAE0A3FFE0A3C0E0E0A3C0E0E081
:100DF300A3C0E0E0A3C0E0E0A3C0E010AF08858299
:100E0300218583228008858221858322D2AFD083E6
:100E1300D082020FB0C0E0C3E493960874019396A6
:100E230018400FE493667008087401936618700005
:100E33007019A3A3C3E49396087401939618A3A30C
:100E4300400DD0E0D0E0D0E0020D30A3A3A3A3A3D4
:100E5300A3D0E0227404800474028000CCC0E0EDCF
:100E6300C0E0E521C39CCCAD2250011D10AF068C20
:100E7300218D2280068C218D22D2AF120F2CD0E03F
:100E8300FDD0E0FC2274028000CCC0E0EDC0E0E5C0
:100E930021C39CCCAD2250011D10AF068C218D22A5
:100EA30080068C218D22D2AF120F0AD0E0FDD0E054
:100EB300FC22C0E0C0F088F0E49366700808740177
:100EC3009366187000A8F0A3A3700BD0F0D0E0D005
:100ED300E0D0E0020D30A3A3D0F0D0E022D083D045
:100EE30082CCC0E0E493A36006120F4D1470FAE4C1
:100EF30093A360061210AF1470FAD0E0FCE493A33E
:100F0300C0E0E493C0E022CAC0E0E493A3C582CC6E
:100F1300C582C583CDC583F0A3C582CCC582C583F5
:100F2300CDC583DAE5D0E0CA22CAC0E0E0A3C5821A
:100F3300CCC582C583CDC583F0A3C582CCC582C58C
:100F430083CDC583DAE6D0E0CA22C0E0E493A3D31D
:100F53009C5010E493A3C39C400AD0E0D0E0D0E0BF
:100F6300020EFDA3A3A3D0E02270090808082260A3
:100F730016181818C6C333C608C633C608C633C600
:100F830008C633C6D5E0EA22C008C3E096F50808D0
:100F9300A3E096420808A3E096420808A3E096451A
:100FA300087001D3D00822C09FF59FE473D09F221D
:100FB300D083D082C09FE493C0E0740193C0E074F7
:100FC3000293F59F22C0E0C0D0E8C0E0A8A8D2AF4A
:100FD300C2C7752300E8A2E792AFD0E0F8D0D0D023
:100FE300E0327404800A7403800674028002740180
:100FF300C0E0F404121000D0E01212D3222521F530
:101003008210AF08F521400C15228008F52140021B
:101013001522D2AF8522832200C0D0252110AF082C
:10102300F521500C05228008F52150020522D2AF8C
:10103300D0D022BB0102E722C082C08389828A8387
:10104300BB0003E08002E493D083D08222601608C1
:101053000808C6C313C618C613C618C613C618C6CF
:1010630013C6D5E0EA222521F8E43522F922252109
:10107300FAE43522FB222521FCE43522FD22C3E0DC
:10108300C696F608A3E0C696F608A3E0C696F60849
:10109300A3E0C696F622252110AF08F521400C15D2
:1010A300228008F52140021522D2AF22C0E0E4934A
:1010B300A36C7009D0E0D0E0D0E0020EFDA3A3D072
:1010C300E022C3E7960809E7960809E7960809E7C7
:1010D30096A2D265D03322E76670100809E76670DE
:1010E3000A0809E76670040809E76622C3E0960860
:1010F300A3E09608A3E09608A3E096A2D265D033B6
:1011030022E066701008A3E066700A08A3E0667028
:101113000408A3E06622191919E70947097009E7CA
:1011230027097005E733F4220922C3E096F008A3E8
:10113300E096F008A3E096F008A3E096F0221818D2
:1011430018E60846087009E626087005E633F42217
:101153000822C3E493960874019396087402939645
:10116300087403939622C3E697F60809E697F608F0
:1011730009E697F60809E697F622E026F608A3E0C3
:1011830036F608A3E036F608A3E036F622E627F69D
:101193000809E637F60809E637F60809E637F622BE
:1011A300700422600D18C6C333C608C633C6D5E023
:1011B300F41822E657F60809E657F60809E657F643
:1011C3000809E657F622E056F008A3E056F008A314
:1011D300E056F008A3E056F022E056F608A3E056E6
:1011E300F608A3E056F608A3E056F622E026F00838
:1011F300A3E036F008A3E036F008A3E036F022E6D9
:1012030047F60809E647F60809E647F60809E647F8
:10121300F62206E6700D0806E670080806E6700377
:101223000806E622E4C396F608E496F608E496F682
:1012330008E496F622600D08C6A2E713C618C61383
:10124300C6D5E0F322C6F4C608C6F4C608C6F4C67B
:1012530008C6F4C622C3E7960809E7960809E79685
:101263000809E79622C3E09608A3E09608A3E09650
:1012730008A3E0962275D00075813F752101752280
:101283000500020B8CE6084608C3134608336002C8
:10129300E633F422600C08C6C313C618C613C6D5BA
:1012A300E0F422E0F608A3E0F608A3E0F608A3E0E2
:1012B300F622E6F008A3E6F008A3E6F008A3E6F0BA
:1012C30022E7094709C3134709336002E733F422CE
:1012D300CAC0E0E6F0A308DAFAD0E0FA22E8F0A305
:1012E300E9F0A3EAF0A3EBF022E0FAA3E0FBA3E02A
:1012F300FCA3E0FD22EAF0A3EBF0A3ECF0A3EDF0F6
:1013030022E0F8A3E0F9A3E0FAA3E0FB22E5C75447
:10131300F84401F5C77901222521F582E43522F548
:101323008322E72719471947194722C2AF75D69F6A
:1013330002000022E62618461846184622120FB36A
:1013430016B504120FB361B504120FB300B604123D
:101353000FB3F4B604120FB35AB804120FB3E4B8C0
:1013630004120FB370B904120FB302BA04120FB30D
:1013730056BA04120FB37EBA04120FB310BB041291
:101383000FB3A3BB04120FB3F1BB04120FB378BCAA
:1013930004120FB3B6BC04120FB389BE04120FB309
:1013A30061BF04120FB33FC004120FB3BB9B0512FE
:1013B3000FB3E79B05120FB37E9D05120FB3599E22
:1013C30005120FB3EF9E05120FB38DC705120FB3AE
:1013D300C0C705120FB3DA9405120FB32E95051289
:1013E3000FB37E9505120FB3B99505120FB3A9B1CB
:1013F30005120FB370B205120FB3A1B305120FB3E9
:10140300BAC205120FB3CBC205120FB365C30512DF
:101413000FB370C305120FB388C305120FB3F7FFE1
:1014230001120FB3ECFF02120FB302FF04120FB34A
:1014330012FF04120FB327FF04120FB3F1FF0412BC
:101443000FB3D6C005120FB35BC105120FB3C1C1F1
:1014530005120FB3E3FF01120FB3DAC105120FB385
:1014630061C205120FB36AC205120FB391C205120E
:101473000FB3A8C205120FB3BD7900120FB3017ADF
:1014830000120FB39F7B00120FB3DC7C00120FB36B
:10149300C27E00120FB30D7F00120FB34B7F0012F9
:1014A3000FB314AF05120FB360AF05120FB3A6B19C
:1014B30005120FB3918505120FB3BC8505120FB347
:1014C300CD8805120FB3A78905120FB3C88905127A
:1014D3000FB3E48905120FB3FD8905120FB356B894
:1014E30005120FB38BB805120FB3C6B805120FB3AD
:1014F30038B905120FB368B905120FB395B90512C0
:101503000FB39FB905120FB3FCB905120FB3FFB99F
:1015130005120FB312BA05120FB31EBA05120FB399
:10152300ECA805120FB340A905120FB390A9051239
:101533000FB3FEA905120FB33FAA05120FB398AA62
:1015430005120FB3A7AA05120FB3CFAA05120FB343
:10155300C0AB05120FB3CDAB05120FB3DEAB051253
:101563000FB399C505120FB3E9C505120FB313C61F
:1015730005120FB3428005120FB3A38105120FB3F7
:10158300B08105120FB3C38105120FB3D8810512C1
:101593000FB3ED8105120FB3008205120FB3C7829B
:1015A30005120FB33D8305120FB3BF8305120FB3AB
:1015B300688405120FB3418505120FB351850512D7
:1015C3000FB3608505120FB3627F00120FB3877FDD
:1015D30000120FB3B07F00120FB3D87F00120FB306
:1015E30011B405120FB338B405120FB3AFB405121B
:1015F3000FB3509805120FB3699805120FB387986C
:1016030005120FB39B9805120FB3B99805120FB3C8
:10161300C39805120FB3CD9805120FB3E0980512C6
:101623000FB3D19905120FB3429A05120FB36D9AF6
:1016330005120FB3BB9A05120FB3089B05120FB324
:10164300239B05120FB32D9B05120FB3789B051235
:101653000FB382C605120FB3CDC605120FB3F3DC69
:1016630004120FB327DD04120FB349DD04120FB3C5
:1016730062DD04120FB37CDD04120FB3E7DD041245
:101683000FB31ADE04120FB3FFE304120FB38AE59C
:1016930004120FB309E604120FB397E704120FB352
:1016A300B2E704120FB325E804120FB327BA0512E9
:1016B3000FB337BA05120FB36FBA05120FB388BA57
:1016C30005120FB3F9BA05120FB31EBB05120FB300
:1016D30049BB05120FB39FBB05120FB3C5BB051260
:1016E3000FB396C305120FB3DAC305120FB3FC8F02
:1016F30005120FB3039005120FB3B69105120FB382
:10170300DA9105120FB3689205120FB347930512CE
:101713000FB3A69305120FB33B9405120FB3869430
:1017230005120FB3F2BB05120FB304BC05120FB3BE
:1017330019BD05120FB31CBD05120FB349BD051228
:101743000FB37FBD05120FB395BD05120FB3D7BD00
:1017530005120FB31DBE05120FB361BE05120FB301
:101763006BBE05120FB35BF304120FB398F30412AD
:101773000FB3FDF304120FB31AF404120FB3D1F431
:1017830004120FB3DBF404120FB328F504120FB3E2
:1017930056F504120FB340F604120FB35DF70412AB
:1017A3000FB3ABF704120FB3F0F704120FB35BF8E8
:1017B30004120FB3CEF804120FB329F904120FB3B6
:1017C30064F904120FB3A5F904120FB3B7F90412A5
:1017D3000FB3C9F904120FB3E8F904120FB3F1F907
:1017E30004120FB3A8FA04120FB3F9FA04120FB3D9
:1017F30033FB04120FB330C705120FB358FE0112A7
:101803000FB36DA205120FB3A3A205120FB3F2A378
:1018130005120FB34BA505120FB3A7A203120FB303
:1018230025A903120FB3CDAF03120FB35FB2031297
:101833000FB3C2B403120FB360B503120FB338B7BB
:1018430003120FB371B903120FB39EBC03120FB38C
:10185300ACBC03120FB376BD03120FB317BE031252
:101863000FB37EC303120FB328C403120FB3F8C41C
:1018730005120FB310C505120FB31AC505120FB326
:101883006EC505120FB3198B05120FB32B8B0512FF
:101893000FB3198C05120FB34A8C05120FB3978C33
:1018A30005120FB3F78C05120FB3638D05120FB337
:1018B300808F05120FB3EF8F05120FB385BE05128C
:1018C3000FB309BF05120FB35FBF05120FB39EBF5E
:1018D30005120FB3BDBF05120FB37BC005120FB3C3
:1018E30008C301120FB314C301120FB3B9C301121A
:1018F3000FB335C401120FB384C501120FB317C65A
:1019030001120FB3BAC601120FB3B9C801120FB354
:1019130099CB01120FB394D001120FB3E4D2011289
:101923000FB3D1D801120FB314DE01120FB3D3E8F2
:1019330001120FB3D5E901120FB36DEA01120FB310
:1019430096EA01120FB347EB01120FB3C0EB01127A
:101953000FB377ED01120FB398ED01120FB33EEE03
:1019630001120FB331EF01120FB39EF101120FB346
:1019730026F201120FB391F501120FB3A2FA01126D
:101983000FB333FB01120FB36EFB01120FB3AAA502
:1019930005120FB378A605120FB35EA705120FB396
:1019A3000CAC05120FB3ABAC05120FB35BAD051254
:1019B3000FB3008004120FB3758004120FB3FC80C1
:1019C30004120FB34B8304120FB3838404120FB3B7
:1019D3006A8604120FB3868604120FB3D5860412E7
:1019E3000FB3328704120FB3AB8704120FB3E18B2B
:1019F30004120FB3E58C04120FB3458E04120FB318
:101A0300358F04120FB3C18F04120FB3FA8F041270
:101A13000FB3189104120FB3BB9104120FB3439287
:101A230004120FB3EF9404120FB3169604120FB3FC
:101A3300669604120FB37A9704120FB3A297041297
:101A43000FB3A59704120FB3B39704120FB3D7972D
:101A530004120FB3479804120FB3809804120FB304
:101A6300AC9804120FB3BF9804120FB316C6051235
:101A73000FB3FD7F00120FB3DE9804120FB3019969
:101A830004120FB3659A04120FB3AE9A04120FB384
:101A9300599B04120FB3C29B04120FB3C59B0412CC
:101AA3000FB3579C04120FB3E09C04120FB3919D24
:101AB30004120FB3949D04120FB3329E04120FB39A
:101AC300AFA304120FB36FA504120FB3A4A504129E
:101AD3000FB35FA904120FB38DAA04120FB3A4AB03
:101AE30004120FB370AC04120FB390AD04120FB312
:101AF30057AF04120FB335E103120FB33FE20312E2
:101B03000FB3ECE203120FB3F6E303120FB3CFE408
:101B130003120FB385E503120FB353E603120FB39A
:101B230064E803120FB365EA03120FB357EB031212
:101B33000FB331EE03120FB38DEF03120FB390F017
:101B430003120FB36FF203120FB37DF503120FB33A
:101B53009EF703120FB337F803120FB35BF90312A7
:101B63000FB317C503120FB37CC503120FB3DDC543
:101B730003120FB3B0C703120FB354C803120FB34A
:101B83007DC803120FB376CC03120FB38DCC0312AF
:101B93000FB390CD03120FB34DCF03120FB358D031
:101BA30003120FB30DD103120FB38DD103120FB371
:101BB3003ED203120FB32AD403120FB30CD5031270
:101BC3000FB373D603120FB384D803120FB30DDB15
:101BD30003120FB3EDDC03120FB3B0DD03120FB327
:101BE30028DE03120FB33FDE03120FB340DF0312ED
:101BF3000FB323E003120FB392E003120FB35DFBA5
:101C030004120FB354FD04120FB313FE04120FB3E7
:101C130077FE04120FB3229F05120FB3789F0512AC
:101C23000FB3C19F05120FB3E99F05120FB30FA0A6
:101C330005120FB327A005120FB324BB02120FB373
:101C430004A105120FB327A205120FB330A2051288
:101C53000FB339A205120FB342A205120FB3FBB49F
:101C630004120FB3C0FA03120FB3E3FF03120FB34F
:101C7300E8FF03120FB3DEB605120FB3C0FF021263
:101C83000FB3D9C605120FB3E9C605120FB38CFB08
:101C930002120FB3D3D502120FB306D602120FB33B
:101CA30072D602120FB30DD702120FB3AAD70212C4
:101CB3000FB3EFD702120FB311D802120FB365B1EE
:101CC30004120FB350D802120FB372D802120FB31B
:101CD300B0D802120FB3F4D802120FB316D90212FE
:101CE3000FB378D902120FB33FDA02120FB3F6DA49
:101CF30002120FB368DB02120FB333DC02120FB30D
:101D030086DC02120FB3ECDC02120FB326DD0212E3
:101D13000FB378DD02120FB3E6DD02120FB351DE0B
:101D230002120FB354DE02120FB3D5DE02120FB349
:101D33006CDF02120FB3ECDF02120FB30BE00212DF
:101D43000FB36FE102120FB37CE102120FB388E20B
:101D530002120FB395E202120FB39EE202120FB307
:101D630076E402120FB390E502120FB309E60212F2
:101D73000FB37BE602120FB39DE602120FB331E7F6
:101D830002120FB305E902120FB3DCEC02120FB318
:101D9300F0EC02120FB300ED02120FB30AED0212C0
:101DA3000FB313ED02120FB31CED02120FB326EDA6
:101DB30002120FB353ED02120FB37CED02120FB3F5
:101DC30087ED02120FB3ABED02120FB3CFED021288
:101DD3000FB339EE02120FB37FEE02120FB39CEE74
:101DE30002120FB319EF02120FB350EF02120FB327
:101DF3008FEF02120FB3DCEF02120FB362F0021285
:101E03000FB330F202120FB3B3F202120FB397F310
:101E130002120FB3FEF502120FB357F602120FB3FD
:101E2300A1F602120FB3FCF702120FB331F802123C
:101E33000FB383F802120FB338F902120FB3E7F9A5
:101E430002120FB324FA02120FB3B9FA02120FB33C
:101E530025FB02120FB3002D00120FB3322D001217
:101E63000FB3602D00120FB3362F00120FB31630CD
:101E730000120FB36E3000120FB3A93100120FB36B
:101E8300F53100120FB31E3500120FB311380012D3
:101E93000FB3613900120FB3F73900120FB3033ACE
:101EA30000120FB3353A00120FB3B83B00120FB351
:101EB300693D00120FB3FD3D00120FB3403E001207
:101EC3000FB3BE3E00120FB3DB3E00120FB30B3F46
:101ED30000120FB3403F00120FB3104000120FB3B4
:101EE300B94000120FB33F4300120FB35F44001217
:101EF3000FB34A4500120FB3CC4500120FB3004A8B
:101F030000120FB33D4A00120FB3954A00120FB3EC
:101F1300C84A00120FB3324B00120FB3684B0012C2
:101F23000FB3F34B00120FB34B4C00120FB3224D00
:101F330000120FB3DB4D00120FB3764E00120FB336
:101F43007E5100120FB39A5200120FB33D56001286
:101F53000FB3315700120FB3345700120FB3635747
:101F630000120FB3695900120FB3425A00120FB394
:101F7300855A00120FB3DB5B00120FB31A5C001219
:101F83000FB3A35C00120FB3D75C00120FB39C5DB9
:101F930000120FB3B45F00120FB3256000120FB32A
:101FA300656000120FB3F36000120FB315620012E5
:101FB3000FB3D76200120FB3DE6400120FB3F664DF
:101FC30000120FB30A6500120FB3426500120FB37C
:101FD300706500120FB3EF6600120FB3146800129E
:101FE3000FB3716800120FB3236900120FB34A696C
:101FF30000120FB3116A00120FB3A96A00120FB3D4
:10200300CF6C00120FB3046D00120FB3676D001293
:102013000FB3966E00120FB33E6F00120FB36F6FC4
:1020230000120FB3876F00120FB3167000120FB3B5
:10203300CA7200120FB3A27400120FB3BE7400125F
:102043000FB3DA7400120FB3A87500120FB39B79A4
:1020530000120FB3118601120FB3438601120FB39F
:10206300328A01120FB37E8A01120FB3C48A01129E
:102073000FB3668B01120FB3C28B01120FB3078C20
:1020830001120FB34E8D01120FB3628E01120FB303
:10209300519201120FB3D59201120FB3E2930112C1
:1020A3000FB33E9401120FB32E9601120FB3A396F2
:1020B30001120FB3AD9601120FB3BA9601120FB30B
:1020C300E59601120FB3CC9701120FB37698011264
:1020D3000FB3F49801120FB3149901120FB33D9982
:1020E30001120FB35F9901120FB3BF9B01120FB31C
:1020F300859C01120FB3CA9C01120FB3479D0112B5
:102103000FB3F89D01120FB32A9E01120FB3709EF5
:1021130001120FB3AC9E01120FB3FC9E01120FB359
:10212300509F01120FB3A69F01120FB3F29F01122A
:102133000FB35FA001120FB3DAA001120FB3A5A270
:1021430001120FB3A5A301120FB3CAA401120FB357
:1021530009A801120FB31CAB01120FB3D9AB0112C3
:102163000FB31DAC01120FB3CDAD01120FB3E1AD2F
:1021730001120FB3EBAD01120FB3F5AD01120FB3A3
:1021830001AE01120FB31DAE01120FB3C8AE01129F
:102193000FB307AF01120FB311AF01120FB31BAF90
:1021A30001120FB38BAF01120FB3D6AF01120FB3EE
:1021B300EBB001120FB347B101120FB3C8B1011253
:1021C3000FB387B201120FB390B301120FB3C4B4AC
:1021D30001120FB3B2B501120FB3CAB501120FB397
:1021E30025B601120FB343B601120FB38BB601121A
:1021F3000FB3B2B601120FB34DB701120FB313B839
:1022030001120FB3A5B801120FB31FB901120FB317
:1022130039BA01120FB3E6BA01120FB30EBC0112A1
:102223000FB35EBC01120FB3C2BC01120FB324BDC6
:1022330001120FB352BD01120FB376BD01120FB3DA
:10224300ABBD01120FB3DCBD01120FB30FBE011200
:102253000FB32FBE01120FB397BE01120FB38BBF83
:1022630001120FB3E6BF01120FB30FC001120FB378
:1022730097C001120FB31AC101120FB345C1011266
:102283000FB32AC201120FB346E804120FB37EE85C
:1022930004120FB39FE804120FB3E1E804120FB363
:1022A30043E904120FB34DE904120FB35DE90412BD
:1022B3000FB398E904120FB378ED04120FB365EF6F
:1022C30004120FB34BF104120FB3E2F104120FB374
:1022D30084F204120FB3248102120FB3A2810212FB
:1022E3000FB3FE8102120FB3498202120FB364824D
:1022F30002120FB38F8202120FB3AC8202120FB31A
:10230300B88202120FB34F8402120FB36884021211
:102313000FB3ED8402120FB3008502120FB31F85B2
:1023230002120FB3C38502120FB3448702120FB315
:10233300F78802120FB38D8902120FB3908902122C
:102343000FB3008A02120FB31E8A02120FB3B58AAB
:1023530002120FB3FD8A02120FB3008B02120FB3E6
:10236300C68B02120FB3338C02120FB3598C0212B5
:102373000FB3E48C02120FB3028D02120FB3488D18
:1023830002120FB3FC8D02120FB3468E02120FB36B
:10239300758E02120FB3D28E02120FB3078F021281
:1023A3000FB3338F02120FB3418F02120FB38E8F0D
:1023B30002120FB3FE8F02120FB3479002120FB334
:1023C300939002120FB3BF9002120FB3CA9002127E
:1023D3000FB3E89002120FB3D39102120FB3DD9142
:1023E30002120FB3189202120FB3289202120FB304
:1023F300319202120FB3859202120FB39992021215
:102403000FB3C89302120FB3DF9302120FB3F49307
:1024130002120FB3829402120FB3C79402120FB3C6
:10242300539502120FB35E9502120FB3A0960212D8
:102433000FB3BB9602120FB3079702120FB376972F
:1024430002120FB3AF9702120FB3C99702120FB361
:102453000B9802120FB3DB9A02120FB3889B02127E
:102463000FB3F59B02120FB3359E02120FB34D9EAD
:1024730002120FB3509E02120FB35C9E02120FB3EF
:10248300709E02120FB3789E02120FB3AB9E02121C
:102493000FB3AD9F02120FB334A002120FB3A4A067
:1024A30002120FB326A102120FB3E7A102120FB358
:1024B30006A202120FB3A7A202120FB304A30212C1
:1024C3000FB307A302120FB334A302120FB349A32E
:1024D30002120FB3BDA302120FB30CA502120FB366
:1024E30012A602120FB39DA602120FB3B8A70212CF
:1024F3000FB380A802120FB3B1A802120FB3D4A86E
:1025030002120FB3DDA802120FB30CA902120FB30C
:102513009CA902120FB352AA02120FB3C7AA021246
:102523000FB36EAB02120FB3E3AB02120FB31AACCD
:1025330002120FB358AC02120FB38EAC02120FB3D8
:10254300F4B104120FB312B702120FB3A9B10212FE
:102553000FB3D7AF02120FB306AE02120FB34EADD5
:1025630002120FB31BAD02120FB3EBAC02120FB387
:102573000FD004120FB3DBCD04120FB311CD04122D
:102583000FB364CC04120FB34CA205120FB3A8B15E
:1025930004120FB35ACC04120FB346CC04120FB378
:1025A300E9B004120FB34DC405120FB304CB0412E8
:1025B3000FB393C904120FB321C604120FB3DDC1C5
:1025C30004120FB327C104120FB391A203120FB366
:1025D30087A203120FB3959E03120FB3739D0312C9
:1025E3000FB3299D03120FB3469B03120FB39F959D
:1025F30003120FB3CA9103120FB34C9103120FB31B
:10260300819003120FB30B9003120FB33B8F03128E
:102613000FB39D8E03120FB3F18C03120FB31B8CF8
:1026230003120FB3718B03120FB36C8B03120FB32F
:1026330093D102120FB35CCF02120FB3FBCC021281
:102643000FB387C902120FB389C402120FB37DC33C
:1026530002120FB3BDBD02120FB3608B03120FB38F
:10266300E28503120FB3B08503120FB34285031241
:102673000FB348BD02120FB3938403120FB3DB836E
:1026830003120FB3918303120FB3868303120FB3A5
:102693002AD802120FB3188103120FB3E1BC02123E
:1026A3000FB3748003120FB32E8003120FB3008095
:1026B30003120FB3B3DC04120FB386DC04120FB39F
:1026C300F8DB04120FB3BEDB04120FB32ED80412CF
:1026D3000FB386D504120FB36BD204120FB3BDD15F
:1026E30004120FB33ED104120FB346D004120FB33A
:1026F300EFA00500000080FBE4738F000100AC171E
:1027030087000100AA173500040073172500020093
:102713007717260002007917270002007B1728008D
:1027230001008517290001008617840004001B158A
:102733008600010039172A00010087172B000100CA
:1027430088172C0001008C172D00080027152E0078
:1027530001008D172F0001008E17300001008F1725
:10276300310001009017320001002F1533000100E2
:10277300301534000100911736000100311538007F
:1027830001009217390001008B1783000200A8177C
:10279300630001003D156400010089176500010015
:1027A3008A176D0001003E15710008001F156600B1
:1027B3000100A7174300010098174400020099176E
:1027C300450001009B17460002009C1747000800C4
:1027D3003515480001009E174B0001009F170400A8
:1027E3000100AB17A1000100AF1737000100AE17BE
:1027F30088000100AD173C00010032153D000100C7
:10280300931749000200A017670001003F154D0010
:102813000200A2174E000100A4174F000200A517E3
:102823003E000100971751000100331552000100CB
:10283300951753000100961754000100341500004A
:102843000000000000013636010100010201000111
:10285300030100010401060605020000070100341C
:102863000801000F090401010D0100FF0E0800001B
:1028730017020000190100FF1A0100011B0100FEED
:102883001C0100081D0200001F01000120010001BE
:10289300210200002301000F240200002601000191
:1028A30027010008280200FF2A0100072B0102402C
:1028B3002C0100002D0100012E0100012F0100FF5A
:1028C30030010B1D310800003A0100083B01000FE5
:1028D3003C0100013D0100FF3E04000042040000F2
:1028E300460400004A0400004E04000052040000A5
:1028F300560400005A0400000000000020010C866A
:102903000000010020010B860000020020010F8659
:102913000000030020011086000004004201AD8581
:10292300000005004201A48500000600420156850F
:102933000000070030010E8600000040420156856A
:102943000000FDFF21010986010020002005411739
:1029530001002100200542170004000021050F1487
:102963000204000029050D140804000021050914C0
:1029730001037103010301030103010301032203A3
:102983000203010310030003000300030003000319
:1029930000030003420300032403060300030003B0
:1029A300040312032503230325032303040304035E
:1029B3000003000300034403000300032303000395
:1029C30065032100350381030003050300030003AE
:1029D3000003000325032303030271023001600295
:1029E300110270020102020202028002100261025D
:1029F3003A00410063027302720262024302000260
:102A03001302380000020002040212020002000254
:102A13000002000204020402370037003C024402B1
:102A23000002390000020002650200023502810241
:102A33000002050282028302000201017101010109
:102A430001011101010131010101010180011001A5
:102A530061013B00140063017301720162014301D0
:102A63000001130106013D013500040112010001BB
:102A730000010001000104010401330133013C01A1
:102A830044013201360000010001650100013500F7
:102A9300810100010501820183010001030071002E
:102AA30030016000110070003102200350048000E7
:102AB30010006100000014006300730072006200E4
:102AC3004300000013000600000000000400120091
:102AD300000000000000000004000400370037007D
:102AE3003C024400000000000000000065000000FC
:102AF300350081000000050000008300000036005F
:102B03000100060000000F000000000000000000AC
:102B13000000000003FFFF00000403FFFF0000FFAD
:102B2300FF0FF4010005C4040320000100000B00A3
:102B33000000000000000003010F0000000000007F
:102B43000000000000000000000000000000000082
:102B53000000000000000000000000006A1988194E
:102B63007019F218000000000000000000000000CF
:102B7300000000007619F218000000007C19F2181A
:102B830000000000000000008219F218000000009D
:102B93000000000000000000000000000000000032
:102BA3000000000000000000000000000000000022
:102BB300000000000000000000001A1B01001A1BA7
:102BC30002009C1A0280961A0300A21A0400A81A93
:102BD3000480AE1A0500B41A0600BA1A3100CC1AE2
:102BE3003300D21A3400D81AFFFF00000300030099
:102BF3000400080010001F003E007B00F600EC01FB
:102C0300D703AF075D0FB91E713D000007ECFDFD53
:102C1300FDECDCDCCCBCACAC9C9C8C7C7C6C6C5C40
:102C23005C5C4C4C3C3C2C2C1C1C03EAF5E5D5D5D8
:102C3300C5B5A59595858575756565555545453521
:102C43003525251515050ACC2002962005A2200757
:102C53009C200C7E200D8A20FF000000160F000030
:102C63000B150B020002220F3300000E0F5A696787
:102C7300426565416C6C69616E63653039D0D1D250
:102C8300D3D4D5D6D7D8D9DADBDCDDDEDF303016C6
:102C9300181920231A1C1E3000034D4C4651181AD4
:102CA30025050200011916181616182303003030E3
:102CB30017181921301B1D1F30003C40423A3F3F7B
:102CC300392F47300C0E020B040B0A0708000F02C2
:102CD3000402010101010902E803000000BE040A25
:102CE300010024000300E803FF04090F03100F038E
:102CF3000A0C041E0828020C0508151E05C082C014
:102D0300831225A0901568746EF0A3741EF09015BD
:102D13006A7474F0A3741EF090156C747AF0A37443
:102D23001EF090156E7480F0A3741EF0025A3B746B
:102D3300F7120B2090155CE4F0E990155BF07C35FD
:102D43007D157A5D7B151218CE90179EE090156560
:102D5300F0901566741FF0A37415023CC874F0124A
:102D63000B20EAFEEBFF54807003022ED190155B1B
:102D7300123D5D7003022ECAEA241B1255C8707CF3
:102D8300EA241F1255C864137002A3E0706E8A828E
:102D93008B83122F1F901576124B5A750A00750BF1
:102DA30000800D123B9E126C3A121814AA0EAB0F40
:102DB300EA4B60488A828B83E0650C7004A3E0656C
:102DC3000D702C8A828B83A3A3A3A3E0F50EA3E04B
:102DD300F50FE50A450B8A828B83A3A3A3A360C3E4
:102DE300123EA0850A82850B83A3A3A3A380B78A7F
:102DF3000A8B0B8A828B83124B5680B4E508242AF4
:102E03001255C8FCE5082402F8E43509F9E8FAE9A3
:102E1300FB901576123006A3A3E06402703C8A820D
:102E23008B83124B5A800B88828983A3A3A3A3129B
:102E33003EA0E849601F88828983E06A7003A3E0AB
:102E43006B70E488828983A3A3E06C70DA9017A483
:102E53001258F8806BECF9121EAA85088285098343
:102E6300E06401704FE5082418122F08120FF112C5
:102E730061E2120E57E5082412122F08120FF1E532
:102E830008123D51120FEDE508240B1261E6120EF4
:102E93005BE5082417123CEEE5082402FCE435093F
:102EA300FDE5082419FAE43509FB1226D8740A1241
:102EB300101B800CE064027007AA08AB09121F887C
:102EC300AA08AB0912178AEEFAEF6480802DEA5440
:102ED30002600C9017BB7401F0EA6402FA8023EAE3
:102EE3005408601A121EA4EA4B700B9015781260F6
:102EF300BD7A08122F15EE6408FAEFFB80047A00FE
:102F03007B0002686CF582E43509F583E0F50A7805
:102F13000A22FB90155BE0F912189E22A3A3E0F5A9
:102F23000CA3E0F50D227B0090155BE0F9121892DB
:102F330074042274F4120B208A088B098A828B830F
:102F4300A3A3A3124952123CF938F583E02409FAEA
:102F53001268047003022FF98A828B837402124968
:102F6300C7850882850983123006E8F0A3E9126455
:102F73007E8A828B83A3A3A3A3A3A3A3A3F0E508C1
:102F83002403F8E43509122FFB123CF93AF583E0E8
:102F93008E828B83A3A3A3A3F0EE2409FAE43FFB61
:102FA3008E828F83A3A3125BAAF5838882E0A2E5B6
:102FB3008E828F83A3A3A3A3A3500474018001E48F
:102FC300F0E5082403F5828983124B5AEA1250DB99
:102FD3003BF5831267CB120FE9123CF83B125C9C62
:102FE3008E828F83A3A312797A12101BEEFAEFFB62
:102FF30090155B1268518016F98882F583E0FAA375
:10300300E0CA22124CF7A3A322740212101B7F04FE
:10301300020DD274F2120B208A088B09ECFAEDFB35
:10302300740E12131BE0FC12134C8A0C8B0DAE0CA6
:10303300AF0DEA4F6030AC08AD09121340E96026CA
:10304300AC08AD09EEFAEFFB121346E970148E8259
:103053008F83123E8DFAEFFB121C5EAA08AB091296
:1030630013647900800279B4024C4674F0120B2089
:1030730074F6121099EAFEEBFF8C088D09750FB3F5
:10308300852182852283E4F0750E008002050E906F
:103093002CFFE493F8E50EC3984003023195AA0E82
:1030A3007B001213828A0A8B0BEA4B60E08A828BC5
:1030B30083A3A312319C28F0F8C3EE98EF94005039
:1030C300CC7C157D007900AA08AB09121772850A1A
:1030D30082850B83A3A3A3A3126C77E0F8EEC398B6
:1030E3002925E0F8E433F9E50A28F582E50B39F5FB
:1030F30083A3A3A3A3A3A3123D03A312571F8A0C65
:103103008B0DAC0CAD0DAA08AB091218CE850A8243
:10311300850B83A3E06401700A1261E27401123D1E
:103123001580447401121079850A82850B83124B32
:103133005812136AE9603D740912131BE0C0E012D0
:1031430061E2D0E0F0740912131BE064037013749E
:1031530001121079E508240BFAE43509FB1218CEA5
:103163008012740112131B123EA0E5081257053595
:1031730009126C38850A82850B831261EE123D15A4
:10318300A3A3E0C0E0E50824141261E6D0E0F075E3
:103193000F00A90F740A026869A3A3A3E0F88521AD
:1031A30082852283E02274F7120B20E9FE8A828B48
:1031B30083A3A3A3A3A3A3E0540860338A828B83CE
:1031C300A3A3A3A3A3A3E0540260218A828B83A3B6
:1031D300A3A3A3A3A3A3A3A3E06406600F74E96E50
:1031E300600A74CD6E600574F06E7003121E8C025B
:1031F300454574F0120B2074EF121099740F1213DB
:103203001B125FA1740812131BE9F0ECFEEDFF74AF
:103213000512131B12430D124531A3E0F912135883
:10322300740612131B125FA1740612131B12516C46
:1032330070030234B0123D3DE0FA740612131BE032
:10324300F9121DCC123510F8A3E0F9E84970030216
:1032530034B0EE2403F50AE43FF50BEE2406F5083B
:10326300E43FF5097C00850882F583124B5A850AF1
:1032730082850B83E0F912135E740312131B125F32
:10328300A1850A82850B83E0C0E0852182852283A4
:10329300123509D0E0125281F985218285228312E9
:1032A3003BA5124DD312319FFAA3E0CA2407F5823E
:1032B300E43AF583E8F0A3E4125FAC2406F582E474
:1032C30038F583E4126C44124946120FE9EE123CBE
:1032D300F93F125C9C740312131B12495224091206
:1032E300797412101B742912131B126C71123000A3
:1032F3001252943A126C38742B12131BE0C0E085FF
:103303002182852283125133D0E0F0740212131B01
:10331300E4F0742512131B78081212A60234077402
:103323000312131B125C648882F5831234F8A3A37F
:10333300A312572AFB121370850E82850F83A3EA0B
:10334300F0A3EBF0740312131B123509A31234F824
:10335300125939A2E6500F850E82850F83A3A3A3CA
:10336300A3A3E0D2E1F0740512131BE0706B850E8A
:1033730082850F83A3123EA09015B6E0687003A365
:10338300E0697055850E82850F83A3A3A3123CD8F1
:10339300750C00780C120FF17808120FE5742912DE
:1033A300131BE0F50C780C120FF1742712131B1288
:1033B3000E5B9015C3120E5B7900741912131B1266
:1033C3004B2A121FD0740A12101B850E82850F839D
:1033D300A3A3A3A3A3E04405F0740212131BE00408
:1033E300FC8E828F83124B548E828F83A3A3A3E020
:1033F300F912135E740312131B125FA174021213EA
:103403001BE004F0740312131B12516C6067740207
:1034130012131BE0FA740612131B123EA0C3EA98A0
:10342300E4995051740212131B1237E285218285ED
:103433002283E028F8A3E039F9E8240FF50EE439F4
:10344300F50F850E82F583E4F0740312131B123516
:103453000364016003023322740512131B74011207
:103463006857F0740312131B125A2B123805E8F035
:10347300A3E9023346852182852283124B5A121D0A
:10348300D2852182852283120E5B742612131BE0E0
:10349300FD742512131BE0FC740A12131BE0F9EEF2
:1034A300FAEFFB121E86740212101B80438E828F6A
:1034B30083A3A3A3E0C0E0740C12131BD0E0F012AB
:1034C30066C0E0C0E0740D12131BD0E0F074061266
:1034D300131B12516C7009740E12131B74B98007FD
:1034E300740E12131B7410F07409121071121FCA98
:1034F3007411026869E0850E82850F83A3A3A3225A
:10350300E0125259E022E0125259A3A322852182EC
:10351300852283EAF0A3EB1251752274F0120B207B
:1035230074E1121099740412131BE9F0740312135B
:103533001BECF0740212131BEDF08A0E8B0F742F29
:1035430012131B122F21AA0CFB121DC0740112139C
:103553001BE9F0AA0CAB0D121DC6740112131BE07C
:1035630070030237DD852182852283E480158E82F4
:103573008F83A3A3A3A3A3E0D2E3F08521828522B3
:1035830083E0041267AFF8852182852283E0C39824
:1035930040030237D4740112131BE070030237D4C3
:1035A3008521828522831237E2E50C28F8E50D395F
:1035B300F9E8240FFEE439FF8E82F583A3A3A3A3C6
:1035C300A3E0A2E040B5750800750A08750B007406
:1035D3000212131BE060037508207C087D0079004C
:1035E30074051210711217728E828F83E0603E9001
:1035F3001606E06401701AE508D2E3F508750B10AE
:103603001237F212131BE8F0A3E912561D74FF8060
:103613007643080C750A0C8E828F83A31237FD1232
:103623006C3A740512131B74FFF0A3805A740412CE
:10363300131BE06009E508D2E6F508750A0A8E82D5
:103643008F83A3E064FE7003A3E0F470307412125E
:10365300131B740412620CF8741D12131BE8124935
:10366300C77412121071121CEE7D007C0079007475
:103673001512131BAA82AB83121B02800B1237F2A3
:1036830012131BE8F0A3E9F0740712131BE508F00B
:10369300123D34C0E0740912131BD0E0F0740A1217
:1036A300131B7401F07405121071121F8E74111222
:1036B300131BE060030237B2740D12131B12527C0A
:1036C3008E828F83A3A3A3A3F0740D12131B12493D
:1036D30095E50AF0A3E50BF0740312131BE0C0E0B9
:1036E300124926D0E01259396011901606E0C0E065
:1036F300740D12131B124970D0E0F0740D12131BDA
:10370300123EA0850C82850D83A3A3A3A3A3123726
:10371300EB241C125F9B126C541237ED1258EB39D9
:103723001266DFC0E012490DD0E01267A4C0E07456
:103733000D12131B124453D0E01264A5C0E0740DA4
:1037430012131B124449D0E0F0740D12131B1237ED
:10375300FD1237EB242A125F9B850E82850F83A30C
:10376300A3A3A3A3A3A3A3E0125F94123D23C0E0EA
:10377300124435D0E0F0740D12131B124B5A850E10
:1037830082850F831267BA2428F582E43B126C38D2
:10379300123D2C1267CB120FE9125C95EA125F2DD2
:1037A3003B12797812101B7405121071121F948E3C
:1037B300828F83A3A3A3A3A3E0D2E0F07411121317
:1037C3001BE06003023571740112131BE014023510
:1037D3007D7900AA0CAB0D121E92741F026869E07A
:1037E30075F007A4F8A9F022A3A3124B5EE8228E7A
:1037F300828F83A3123EA4740522E0123805A3A38B
:10380300A322F8A3E0F9850E82850F83A32274F027
:10381300120B2074E8121099E9852182852283F026
:103823008A0E8B0F8A828B83A3A3A3A3A3A3A3A331
:10383300E0F9121DEA8A088B09EA4B70030238EE9D
:10384300E50E1250EF123D4C123CE3852182852296
:1038530083E060030238F17C04850E82850F83A325
:10386300A3A3A3A3A3A3A3E0F9121DF0EE4F607BD0
:103873008E828F83A3A3A3A3123EA0740712131BEC
:103883001260D2123EA0740912131B1249F7C0E052
:10389300741112131BD0E0126483A3A3A3A3A3A3E5
:1038A300A3123EA0740F12131B126C3A741212135C
:1038B3001BE412685FC8241FF582E438F583125CA9
:1038C30060C413135403FC70027C048E828F83E064
:1038D300F97808120FED742059FD744059F97403F7
:1038E300121071121E86740212101B0268677C0884
:1038F300850E82850F83A3A3A3A3A3A3A3A3E0F9A8
:10390300121DF08B0BEA4B700302386FEE4F60DB36
:10391300852182852283E0F50C780C120FF185084E
:1039230082850983A3A3A3A3A3A3A3E0F50C780C27
:10393300120FF18A828B83A3A3A3E0FB8A82850BF8
:10394300831274978A82850B83E0FA8E828F83A316
:10395300A3E0F91226DE740212101B02387374F707
:10396300120B2074FA121099E9FE780179017F0095
:10397300800379000F124CD6E0FCEFC39C5026EF76
:1039830075F007A4FC85F008AD08EA2CFCEB3DFDBF
:103993001242C5E0A2E050DA540C60D6E0A2E25035
:1039A300D3780080CF8A828B83A3A3A3A3A3A3E0AE
:1039B300703DE9A2E0400574016E70338A828B8307
:1039C300A3A3A3A3A3A37401123CB5E0C0E07403B3
:1039D30012131BD0E0124324E0C0E0740412131B43
:1039E300D0E0F0740512131BE8125BFF121FCA74B8
:1039F30006024542C082C0837901121E92025A3BDD
:103A030074F4120B20EA4B9017BB6019E4F08A0898
:103A13008B09F50AF50B7808120FE57A02122F29A4
:103A230012101B800A7401F07A027B00122F160217
:103A3300301174F0120B2074F312109974031213E3
:103A43001BE4F0A3F0901576123CE3740112131BF0
:103A5300E4F0A31249CC04F09015B0E0A2E35003C4
:103A6300023B28123CA9740912131B1212E07409B9
:103A730012131B78081212A6901578780812108179
:103A8300740512131B78081212B5123BAC7405129D
:103A9300131B780812126850077A017B00023B99C6
:103AA300740512131B780C1212A69017A3E0F509E4
:103AB300780C7908120AB1A80CA90D9017A4E0C3D9
:103AC30098E4995003E08001E8852182852283F000
:103AD300740912131B78081212A6C008C009C00A81
:103AE300C00B740512131B780C1212A6123BAC7890
:103AF3000C7908120AB1E4F50AF50BD00FD00ED0F9
:103B03000DD00C780C7908121169901578780C1285
:103B130012B58011123B9E126C3AEEFAEFFB1218AB
:103B230014AE08AF09EE4F60658E828F8312319C0D
:103B3300C398502DEE2403F8E43FF9E0FA88828914
:103B430083E0C39AF06023740312131B12400674BC
:103B53000112131BEEF0A3EF1260EDFEA3E0FF8052
:103B6300C48E828F83A3A3A3E4F08E828F83127902
:103B730031740112131B12516C8E828F83A3A3A382
:103B8300A360911260C612131B123BA580897403B4
:103B930012131B124B5A740D026869123EA490153E
:103BA3007622125C8BA3A3A3229017A2127939E485
:103BB300F50AF50B2274F0120B208A088B09890A87
:103BC30078007900901576123CE3FBEE4B601E08FB
:103BD3008E828F83A3A3A3A3124B24601008E870E3
:103BE30001098E828F83123CDFEA4F70E39017A5A1
:103BF300124B5AC3E89AE99B4003023C9C7A061293
:103C03003C9FA80CA90DEA497003023C9C8A828B55
:103C130083E508F0A3E509123CBEE50AF09017A47A
:103C2300124CDE123CB5A3E4F0A3F0901576124BD0
:103C330024600D8E828F83A3A3A3A3126C3A8017F3
:103C4300901576126C3A9015B0E0A2E34009123C4D
:103C5300A99015781212E09015B0E0A2E3503A7AD9
:103C6300087B0090155BE0F91218A4EA4B4C4D70E9
:103C7300289017A2E0F508A3E085080CF50DE4F5FC
:103C83000EF50F780C120FE57A087B0090155BE0B8
:103C9300F9121898740412101B02686C7B00121836
:103CA3000E8A0C8B0D221218B6EAF8EBF9ECFAED3A
:103CB300FB22123CB922123CBEA322F08A828B83E0
:103CC300A3A322E508F0024545F08E828F83A3A3C8
:103CD300A3A3A3A3221255D6A3A3F022A3A3A3A312
:103CE300E0FEA3E0FF227F05020DD2F582E4350951
:103CF300F583E0F922EA123CFD222410F582E42246
:103D0300123D0BA3A3A3A322123EA8850882850913
:103D13008322123D1922F0850A82850B83A3A322F5
:103D2300E50E2411123D49E022E50E240E123D4911
:103D330022E50E2410123D49E022123D4122EE12EB
:103D43003CFD3FF58322F582E4350FF58322240FF2
:103D5300F50AE43509F50B780A22E0F91217968A79
:103D6300088B09EA4B2274F2120B20890B8A088B09
:103D7300098A828B83124B5A121EB6EA4B6004796E
:103D8300B8806A121EC2E9F8902CF0E493F9E8C3F4
:103D930099400479B280567A15123C9FAE0CAF0D50
:103DA300EA4F7004791080458A828B83E4F0A31272
:103DB3003CBEE50BF0750A007808120FE97C127D12
:103DC30000EA240312677612101B90157C12516CC3
:103DD300700890157C800C123EA088828983123D66
:103DE300F370F4EEF0A3EFF0121ED47900024C4608
:103DF300124B5EEA4B8882898322C082C08390156E
:103E03007C80048C828D83127498EC4D60288C82A4
:103E13008D83A3A3E069600574FF6970E68C828DCE
:103E230083A3A3A3E06A7003A3E06B70D6EC24031F
:103E3300FAE43DFB80047A007B00025A3B74F712DC
:103E43000B20E9FD74FE6D70047C0180027C009000
:103E5300157C80096D70027C018882898312516C04
:103E6300601F88828983A3A3A3E06A7003A3E06B26
:103E730070E7ECA2E088828983A3A3E050D6F9809F
:103E83000279FE024545EEF9800CA3A3127939EEBF
:103E930022740212101B7F02020DD2F583123EA47C
:103EA30022123EA822E0F8A3E0F922123EA88E8255
:103EB3008F832212101B7F03020DD2C082C083792D
:103EC3000090157C800109E0FAA3E08A82F583E57E
:103ED30082458370F1025A3B74F6120B20E4F50815
:103EE300F5097808120FED902CF0E49375F013A404
:103EF300A9F0123FFB126C9812101BE9FE74096EB5
:103F03007003121ECE023E8974F6120B2074FE1249
:103F13001099852182852283E4F0A3F0A821A922A8
:103F2300880889097808120FED7508027509007869
:103F330008120FED12690912101B023E9474F51258
:103F43000B2074EB121099852182852283E4F0A360
:103F5300F090157C80748E828F83A3A3E0C0E074FD
:103F63000212131BD0E012561DA982AA8389088A64
:103F730009750A007808120FE97C127D0074061295
:103F8300131B126C5D12101B7402121069880889CE
:103F9300097808120FED7508137509007808120FD8
:103FA300ED740412131B12510F75F013A4F8AAF049
:103FB30075F013E9123FF712691112101B85218264
:103FC3008522831240068E828F83123CE3EE4F706C
:103FD30085A821A922880889097808120FED750898
:103FE300027509007808120FED12690912101B748B
:103FF30015023EB6A42AF9E82402FCE439FD7A420C
:104003007B0022E02401F0A3E03400F02274F412D8
:104013000B2074EB1210997E007F00A821A922883F
:104023000889097808120FED7508028E09780812BD
:104033000FED7C007D007A42126CA412101BE97014
:104043006C8E0880567402121069880A890B780AEC
:10405300120FED750A13750B00780A120FEDE508C0
:1040630075F013A4F8AAF075F013E509123FF712DF
:104073006CA612101BE9701B740312131BAA82ABEC
:1040830083740212131BE0F9121EB0E970050EEEE1
:1040930070010F0508E50870020509852182852254
:1040A30083123EA0C3E50898E509994098EEFAEF1C
:1040B300FB741502300E74F6120B208C828D83A3D1
:1040C300A3124312F0EA125F333BF583E0C0E01220
:1040D30042CFD0E0F0EA241DF582E43B123E9E126B
:1040E30042B312430DF0A3F0EA241FF582E43BF53B
:1040F30083123CE3EC1242A63DF583EEF0A3EFF00E
:104103001242AC3BF5831242DDA3A3A3A3A3A3EE08
:10411300F0A3EF125B8EFE8C828D8312431C74031B
:104123005EFEC394034003024299EE600874026E7C
:1041330060030241BE8C828D83E0540CFE740C6ECE
:1041430070030241FDE0A2E4400D88828983E08C84
:10415300828D83A312433274086E60030241FD1201
:1041630042BD7401F08A828B83A3A3A3A3A3125538
:10417300E370148C828D83E0440C124324A3A312B6
:1041830042DDEEF0A3EFF08C828D83E0A2E4402BBE
:1041930088821242EB124300500109F5821242EB6E
:1041A300A3A3A3A3A3A3F0A3EF12432C8C828D8319
:1041B300A3A3A3F0E82403F850010988828983E0CC
:1041C300C0E0EC2411F582E43DF583D0E012431CFA
:1041D3008C828D83E0A2E7507588828983E0FE8C10
:1041E300828D8312433274FC5E700C8C828D83A3A8
:1041F300E054036403701E0242991242BDE4F0745A
:104203000C6E600302416888821242F1124300502F
:10421300010902418A8C828D83A3E05403603288B2
:10422300828983E0C0E0EC1242D73DF583D0E012EF
:1042330043338C828D83E054036402701488828933
:1042430083E0C0E01242C5D0E01243338003A3E40D
:10425300F0EC1250DB3D126C38EC2410FEE43DFF11
:10426300EA241DF582E43BF583E0F5088E828F8313
:10427300E0C3982508F508F0EA2417F8E43BF98829
:1042830082F583E0C39508C0E01242B3D0E0125B2D
:104293008EC39508500A1242B3E4F01242CFE4F001
:1042A300023E992415F582E422EA240DF582E422E4
:1042B300EC240DF582E43DF58322EC1252943DF596
:1042C3008322EC2414F582E43DF58322EC123CFDB9
:1042D3003DF583222413F582E422E0FEA3E0FF8C64
:1042E300828D83A3A3A3A3221242F1A3A3228983D2
:1042F300E0F508A3E0FFE5088C828D8322A3A3A346
:10430300A3F0A3EFF0E82402F822124312A322E45D
:10431300F08C828D83A3A3A32212433AA882A9839C
:1043230022123CB9A3A3A3A32212433AA3E022A3DC
:1043330012433A08A98322125B97A32274F4120B47
:104343002074F31210998A0A8B0BECFEEDFF8C821A
:10435300F583E0540CF508E0A2E75006E508D2E740
:10436300F508E508D2E1F5081255E37006E508D231
:10437300E4F508E0A2E55006E508D2E5F5087C0877
:104383007D007900AA21AB22121772740212131B4B
:10439300E508126C3EC0E0740312131BD0E012490F
:1043A300CCE50AF0A3E50BF0740512131B1264AA03
:1043B30012131BE07077740812131B124952125B1D
:1043C30080381264C5C0E0740812131B124453D022
:1043D300E01264A5C0E0740812131B124449D0E034
:1043E300F0740812131B12443FE012497A1249FB7E
:1043F300125F94EE24111255AFC0E0124435D0E0A1
:10440300F0EE24141255AFC0E0740812131B1249C6
:10441300522435F582E438F583D0E012499FC0E099
:10442300740812131B124956D0E01261FE740D0278
:10443300300EE82432F582E439F58322123EAEA32E
:10444300A3A3A3A3A3221249661266A438F5832269
:104453001249662426F582E438F5832274F7120B99
:10446300207E008A828B83A3A3A3A3A3A3A3A3A3D6
:10447300E06404600302452112528CE060030245AC
:10448300211250EE3B12516A700302452188828942
:1044930083E054036003024521E812529439F58303
:1044A300E0FA8C828D83A3A3E0FBA3E0CB2411F578
:1044B30082E43BF583E06A706588828983A3A3A3C2
:1044C300A3A3A3A3A3A3124525E06A7003A3E06BF0
:1044D300704C88828983A3A3124531E0FFA3E0CF08
:1044E30024061255AF6A7003A3E06B70318882898A
:1044F30083A3A3E0F88C828D83A3A3E0F9A3E0F563
:10450300838982A3A3E06860138C828D83A3A3A312
:10451300E0F5838982E0540C640470027E01EEF9B5
:10452300802012452922124B628C828D8322A3A301
:10453300124529A3A322740C12131BE0F9740D1264
:10454300101B7F01020DD274F6120B2074FC1210A3
:1045530099EAFEEBFFECFAEDFB8C82F583A3E054C2
:1045630003601690157212516C60597900EEFCEFDE
:10457300FD125D8B1226FB804B852182852283EE03
:10458300F0A3EFF0740212131B1249C1AC21AD2248
:104593007AEC7B1E1221148A088B09A808A909EA60
:1045A3004960218A828B83A3A3A3A3A3A3A3A3A369
:1045B3007406F07A0088828B83124952125F54E0AA
:1045C300F91220727404023E9674F2120B2074F3F3
:1045D300121099EAFEEBFF8A82F583A3A3A3A3A398
:1045E300A3A3A3A3A3E0F50A9017BBE0700579BAD0
:1045F30002490A750801750900750C00750D007CE8
:10460300087D007900AA21AB2212177274051213D8
:104613001B74011249D454046012740212131BE078
:10462300D2E61249D454087003750803E0541060AD
:104633000674404508F508E054086022740212131A
:104643001BE044C01249D45420600A740312131BA4
:10465300E0D2E08008740312131BE0D2E1F0EE24F1
:10466300151255AF12493A70037401697006740844
:104673004508F5088E828F83A3A3A3A3A3A3A3A3B3
:10468300E0701612216E852182852283125FA17448
:104693000212131BE0D2E28030640F701074021216
:1046A300131B1249DC74044508F508807F8E828F42
:1046B30083A3A3A3A3A3A3A3A3E064028E828F83F4
:1046C300700A126C71E8F0A3E9F08060A3A3A3A3BE
:1046D300A3A3A3A3E06403700DAC21AD22EEFAEF14
:1046E300FB121F2280468E828F83A3A3A3A3A3A3BF
:1046F300A3A3E064017035901606E0601074021203
:10470300131B1249DC750910750AFF801874021215
:10471300131BE0440C1249CC74FDF0A374FFF07436
:10472300044508F5088E828F83122F21EE2415127B
:1047330055AFA2E0503F740212131BE0540C701BE0
:104743008E828F83124B5A121B98E9700579BB0234
:10475300490A740212131BE0D2E5F0EE2415125538
:10476300AFA2E05010740212131BE0540C640470E7
:1047730004E0D2E5F0EE24111255AFC0E074041248
:10478300131BD0E01264AC12131BE0600302490355
:10479300740812131B124995E508F0A3E509F012FA
:1047A3004930E0C0E0124926D0E0F0124917E0C0DA
:1047B300E0740812131B1249521242D738F583D002
:1047C300E01249FB64017011901606E0C0E0740822
:1047D30012131B124970D0E0F0740812131B124914
:1047E30090124921FAE8241CF582E439F583EA1290
:1047F30049C7EE2415FAE43FFB8A82F583127498C5
:10480300E81258EB39F5831249C1EE241C1255AF57
:10481300C0E012490DD0E0125A3112493A700374C4
:1048230001697013740812131B12527CFAEE241DD3
:104833001255AFF9121DF68E828F83A3A3A3A3A3F0
:10484300A3A3A3A3E0C0E0740812131B124453D024
:10485300E0F0740812131B124449E50AF0740812BD
:10486300131B12510F2428F582E439F583E50CF06C
:10487300A3E50D1249A712497A125628125F94EE46
:10488300124921C0E0E82433F582E439F583D0E00E
:10489300F0EE241B1255AFC0E0740812131B12492B
:1048A30056D0E0F0EE241A1255AFC0E0740812138C
:1048B3001B1249522432F582E438F583D0E01249C1
:1048C3009F124946120FE91266AA127498740B12CA
:1048D300131B124952242F12797412101BEE241544
:1048E3001255AF5440601290159212516C600AAA8F
:1048F30021AB22125D8B1226FBAA21AB22121F943D
:10490300740C12131BE0F9024C41E82420F582E4F5
:1049130039F58322EE2419F582E43FF583221266EA
:10492300B9E022E82412F582E439F58322EE241853
:10493300F582E43FF583225480F8A3E05401F9742F
:10494300806822F508A3E0F509750A0078082212A9
:104953004966221249662434F582E438F58322A39A
:10496300A3A3A312496A22E0F8A3E0C8221249666E
:104973001242A638F58322FAA3E0FBE8242AF58243
:10498300E439F583EAF0A3EB22A3A3A3A3123EA485
:10499300EE221251131250F339F58322F0EE241351
:1049A30012563022F0EE240D12563022E0FC8A8299
:1049B3008B83E02CFCA3E03400FD8A828B83ECF034
:1049C300A3EDF022F0A3E4F022F085218285228377
:1049D30022F0EE241512563022E0D2E3F01249E41D
:1049E300228E828F83123EA8852182852283E8F05E
:1049F300A3E9F022E8F0A3E91260E7E02274F712DA
:104A03000B208A828B83A3E0640170047E6380029F
:104A13007E648A828B83E060087905124A3424F32A
:104A2300FE9015AEE06007F9124A3424F2FE024507
:104A33002112203CE9F8EEC3982274F6120B20747D
:104A4300FE121099852182852283125FA1E9FEEC73
:104A5300FAEDFB9005C412516C6032A821A922889B
:104A63000889097808120FED7D01740E12131BE0FB
:104A7300FCEEF99005C4125F751226FB7402121046
:104A83001BEA4B60047900800679B2800279B60292
:104A93003E9474F7120B20E9FE90156812516C6076
:104AA3001F740912131BE0F5087808120FF1EEF9D1
:104AB300901568125F751226FB740112101B800299
:104AC30079B602454574F7120B208908ECFEEDFF19
:104AD30079B5E508245E602014600624F86034800C
:104AE3003D9005C6124B246035126CB51226FB8E21
:104AF300828F83125FA1802490156A127498EC4D03
:104B0300601CEEFCEFFD90156A125F751226FBE93F
:104B1300F9800B901566124B2A1218CE79000245C4
:104B230045124B5EEA4B2212749CEEFAEFFB2274A1
:104B3300F7120B20E9FE79B574AB6E700B90156616
:104B4300124B5A1218CE79000245458E828F83A3E9
:104B5300A3A3A3A3A3A3A3124B5E22124B6222E03F
:104B6300FAA3E0FB2274F1120B20EAFEEBFF8C0A9E
:104B73008D0B7508019015B6E06E7003A3E06F709E
:104B83000C124C35AA0AAB0B1218CE805E1221749C
:104B9300EE6A7002EF6B7009AA0AAB0B12217A80DE
:104BA3004AAC0AAD0BEEFAEFFB121CCAE9F508900A
:104BB30017AAE0703612262AE97030E508702C90A7
:104BC3001586E06E7003A3E06F7020EE4F601C75D6
:104BD3000C7E750D15750E00780C120FE97C087D9F
:104BE30000AA0AAB0B126C6112101BA90802759480
:104BF30074F2120B20EAFEEBFF8C088D09750A0193
:104C0300124C35EEFAEFFB1218C8E96401701190EB
:104C130015B6123EA0850882850983126C3A800E70
:104C2300AC08AD09EEFAEFFB121CD0E9F50AA90AAC
:104C330080111221688A0C8B0DAC0CAD0D22740D02
:104C430012101B7F06020DD274F6120B20EAFEEB44
:104C5300FF7A0D7B0012180EEA4B6062EE242412D9
:104C6300693EF0EE242512693EA3124D03126944F6
:104C7300A3A31266D7124CDEF0EE124CC4124CF30F
:104C8300E8F0A3E9124D1A124CEB126C3AEE124CF7
:104C9300CD12679AA3A3A3A3F0EE24331255AFC09A
:104CA300E0124CD6D0E01264C9124CEBA3A3A3E8E4
:104CB300F0A3E9124D12C0E012528CD0E0F0023E94
:104CC30099242AF582E43FF58322242EF582E43FDA
:104CD300F58322EA1257053BF58322124CE222E0C8
:104CE3008A828B83A3A3A3221267F9A3A3A3A3227C
:104CF300124CF722123EA88A828B83A3A3A3A3227A
:104D0300F0124D0822EE2426F582E43FF58322F0CB
:104D1300EE243212563022F0EE242C125630227436
:104D2300F4120B2074FE121099ECFEEDFFEC241626
:104D33001255AF64057010EC2406FCE43FFD121F0E
:104D43001CE97003024DCEAC21AD221269F3121B94
:104D53009E85218285228312516C606B8E828F83A4
:104D6300E064017058E875F009A4F8AAF075F00939
:104D7300E9A42AF974DF28F8740239F9E8FAE9FB9F
:104D83008882F58378081212A6EE124E701212680A
:104D930040278521828522831249901255BD124DE9
:104DA300D378081212A69085F7780812117D8A82AB
:104DB3008B8378081212B5800A79A28010EE240F33
:104DC300126C347900800679A1800279C802300C14
:104DD3001249F1EE1266C52274F2120B208A0C8B73
:104DE3000DECFEEDFFEC1255BDE4F0A3F09086034D
:104DF30078081212A6EC124E701211046067EC24AC
:104E03000E1255B6703478B39015ADE07028901536
:104E1300DFE064017020EC24111255AFF912202455
:104E23008B09A909EE1250EF3F125F9FEA49600414
:104E33007800800278A18808802EE0600464027004
:104E43000A121F2EE9F5087007801DE06403701035
:104E5300EEFCEFFDAA0CAB0D121BC2E9F5088008AE
:104E63007508A180037508A3A908024C461266C5FC
:104E730078082274F0120B2074F5121099EAFEEBF5
:104E8300FFEA240AFCE43F8C82F583127935125041
:104E9300F974031210798A828B83125D95E970038A
:104EA300024F5F74011210797403121071121B9E6A
:104EB300740112131B12516C7003024F5FE875F0FB
:104EC30009A4F8AAF075F009E9A42AF974DB28FC0F
:104ED300740239FDE508240E1261E6E4F0041213AE
:104EE3001B123EA0E5081250EF3509126C388C8274
:104EF3008D83121304E50824121261E61212E09066
:104F030085F778081212A68C828D8378081211EF28
:104F13008C828D83780C1212A69085EB780812127E
:104F2300A6780C7908120AB1E5084509450A450B2C
:104F3300702A740112131B12510F75F009A4F8AAF9
:104F4300F075F009E9A42AF974E328F582740239AB
:104F5300F5837401F07A007B0812511C8E828F83D3
:104F6300A3A3A3A3A3A3A3A3A3A3E02406FCA3E057
:104F73003400FD8E828F83125D951264B7603EEE1E
:104F8300240A1250E112499574681249C7E8125075
:104F9300DB39F5837402F09015981213048C828D1B
:104FA30083125F8E125B803CF5831212E09085F7CB
:104FB30078081212A690159878081211EF1251571B
:104FC300705D901566125107A3A3A3A3A3A3A3A384
:104FD300A3A3125BB61218C8E97010125B74901584
:104FE30066125B8670051264B760348E828F83A36A
:104FF300A3A3A3A3A3A3A3A3A3125107124B5A12C0
:105003001BC8E960118E828F83A3A3A3A3A3A3125A
:105013005143E4F0A3F08E828F83125129E4F012FE
:10502300515760030250D68E828F83A3A3A3A3A3F9
:10503300A31279319015ADE060030250CB9015DFD8
:10504300E0640160030250CB750A3A750B00780ADD
:10505300120FED7402121069880A890B780A120F75
:10506300ED126F3012101BE9705BE508240E12611C
:10507300E67401125171C0E0E50824111261E6D013
:10508300E0F0E508240F1261E6743A1249C790155F
:1050930094121304E50824121261E61212E09085BB
:1050A300F778081212A690159478081211EF9085DC
:1050B300F778081212A69015947808121104700854
:1050C30012511880031250F91251577006125A7771
:1050D30074A1F0740B026869240EF582E422F8E4EB
:1050E3003FF9E8FCE9FD8882F58322EA1250F322B6
:1050F300240FF582E422E5081250F33509F583E421
:10510300F0A3F02212749C8E828F832212511322F9
:10511300123EA8E8227A007B0290143FE0F91217AE
:10512300BA228A828B83A3A3A3A3A3A3A3A3A3A328
:105133001251372212496A240EF582E438F583228C
:10514300A3A3A3A312514B2212496A240FF582E4AD
:1051530038F583228E828F83A3A3A3A3A3A312492B
:1051630062240FF582E438F5831251134922125158
:105173007522F0852182852283E02274F6120B20AA
:10518300EAFEEBFF7A237B0012180EEE240AF508E1
:10519300E43FF509850882125F9F7C237D00790037
:1051A30012177285088285098312516C70030252AB
:1051B3003FEEFAEFFB121F3A12515760748E828F43
:1051C3008312527264018E828F83A3A3A3A3A3A32A
:1051D3007007125268740E802112516C70101264A1
:1051E300B7700B8E828F83A3A3E0A2E05007125205
:1051F3005E740D800512525E74051264C954036413
:105203000170071252467405800B9015AEE0C0E0A2
:10521300125246D0E0125281F58388821255DC8502
:105223000882850983124952125F3338F583E98076
:105233000E8508828509831260188003125F5BF074
:10524300023E998E828F83A3A3A3A3A3A3A3A3A3A5
:10525300A312525822E0125F7AA3228E828F83A375
:10526300A3A3A3A3A3124962125F3938F58322A330
:10527300A3A3A3A3A3A3A3A3A3125137E022125270
:105283008522126A08F8A3E022EA1252943BF583BE
:1052930022240CF582E42274F1120B2074E4121020
:1052A300998A0C8B0D8C088D097A237B0012180EBA
:1052B3008A0A8B0BAE0AAF0BEA4F700302559712A3
:1052C3005F3FE50824151255C8687003A3E0698E93
:1052D300828F837004740280027401F0E508240D48
:1052E300F8E43509F98882F583E0FAC3E49AFA957C
:1052F300E0FB1255C42AFAA3E03BFB8E828F83A303
:10530300A3A3A3125B9D8E828F83A3A3F0EE24201D
:10531300F582E43FF583E4F0EE2421F582E43FF5E2
:1053230083E4F0EEFAEFFB121FEE85088285098312
:105333001255E370098E828F83A37405800690153E
:10534300AE1255D1F0EE2417F50AE43FF50B8E8229
:105353008F831255DCE9850A82850B83F0EE2416D0
:10536300F8E43FF9E508240EFAE43509FB8882895D
:10537300831249AFE5082410FAE43509FB850A8254
:10538300850B83E0FC88828983E0F88A828B83E043
:10539300C398C39CF812561DF0EEFCEFFDAA0CABAC
:1053A3000D121F34E9F50B8E828F83E064027006C1
:1053B300125B741255A1E50B600302558E750C0048
:1053C300750D009017AAE064016005E06402703F68
:1053D3001255B36008EE24211255B670328E828FB7
:1053E30083A3A3A3125F611255E9EE24161255AFEE
:1053F300125612FAE439FB123CA1EA4B6011126710
:10540300C3120FE91255F7AA0C126C6112101BEEAE
:10541300FAEFFB121FFAE9F50B9017AAE06401609B
:1054230008E064026003025581E97003025581E5D7
:105433000C450D700302558E8003850E0B1255B378
:10544300600BEE24211255B66003025587850B0EBF
:10545300850C08850D09750A007808120FE91255A5
:10546300F78E828F83A3A3A3A312797A12101BEE64
:1054730024201255AF600D1255BC74681249C7EE53
:1054830024208015EE24211255AF60151255BC74EB
:1054930003F0A37401F0EE2421F582E43FF583E4E5
:1054A300F0EEFAEFFB121FFAE9F50B70907C137D17
:1054B3000079007409121071121772741A12131BF7
:1054C300740112562864687002A3E0704F8E828FB5
:1054D30083125143E06405600302543D7C0879FF65
:1054E3008E828F83A3A3A3A3E0242A125BB912178E
:1054F300F0E9700302543D7C087D0079FF740112CA
:10550300107112177274011210797A007B0079AB53
:10551300121F16741912131B74FC80151255BCE06C
:1055230064037004A3E064017008741912131B74FC
:10553300FFF0E4F508F5097808120FED7402121074
:1055430079741312131BAA82AB8312609E12101B71
:10555300852182852283E0602B74091210698808F3
:1055630089097808120FED75081375090078081278
:105573000FED7C007D0012691112101B8006E50CF3
:10558300450D6007AA0CAB0D121814EEFAEFFB12CF
:1055930018148003750B10A90B741C027591EE246B
:1055A30006FAE43FFB1218CE22EE240C12563022E8
:1055B300EE2420125630640122EE1250F33FF5839D
:1055C30022E508240EF582E43509F583E02212551D
:1055D300D6A322E08E828F8322A3E0F912203C22FD
:1055E300E054036401221255ED22E0FAE82AF8E4BC
:1055F3003400F9228E828F83A3A3A3125F65125511
:10560300EDEE2416125630125612FCE439FD22FA3E
:10561300E82AF8E439F9E824042212562122126414
:10562300D8A3A3A322F012562D22EE240FF582E471
:105633003FF583E0227901020FB074F4120B20EAE4
:10564300FEEBFF8A82F583A3A3A3A3A3A3A3A312C1
:1056530049522424F582E438F5831255E3702E8AE7
:10566300828B83125272702512570BE06405701DF2
:1056730012570BA3E0F8740168600574066870079D
:10568300125125740280051251257403F0EA240A8D
:1056930012600C125F75E4F0EA2408F8E43F122F5D
:1056A300FB2431F582E43AF583E0C0E0126CACA34D
:1056B300A3D0E012572ACA242EF582E43AF583E0F8
:1056C300C0E0126CACA3A3A3D0E0125C50C8125785
:1056D3000538123E9E126CAC12571F8A0A8B0BAC14
:1056E3000AAD0B850882850983125BB61218CE8535
:1056F3000882850983124B5A121FFA126007F002BF
:105703003011240BF582E4228A828B83A3A3A3A303
:10571300A3A3A3A312649EF583888222A3A3A3A3B6
:105723001249F112216822125B92FAA3E022025677
:1057330038C082C0839015887440F0A3741FF09022
:10574300158A744CF0A3741FF090158C7452F0A357
:10575300741FF090158E7446F0A3741FF0025A3B29
:1057630074F4120B20EA2408FEE43BFF8E82F583D7
:1057730012510F125F4BE0F50874035508F5091237
:105783005BB1F8A3E08882F583E508F0A3A882A9BA
:1057930083E5096009740265096003025850740CBB
:1057A3005508FC600A74086C600574046C702674F8
:1057B3000265097006E508A2E4401A8A828B83A376
:1057C300A3A3A3A3A3A3A31259561266A43D1258DD
:1057D300F1A308A983740C6C701C1259522428126B
:1057E300593E2428F582E43DF583A31262D2F0E802
:1057F3002402F8500109740265097006E508A2E461
:10580300404B125952242A12593E242AF582E43D70
:10581300F583A312590012595C1262D212595CA388
:105823001258F8E82404F8500109EC600F74086C6E
:10583300600A740C6C600574046C7011125F82242E
:1058430026F582E43C1258F1A3A882A9838A828BAD
:1058530083A3A3A3A3A3A3A3A31259205403701444
:10586300E508A2E1400E125F821258EB3CF583E09B
:10587300548060081259061258F3801990155CE0A1
:10588300C0E0125906D0E012593388828983125935
:105893003304125B97A3A882A983E508A2E75045C6
:1058A3008E828F8312592088828983125939125923
:1058B3002554036030125F822434F582E43C126283
:1058C300D0F0E508A2E1501D8A828B83A3A3A3A392
:1058D300A3A3A3A31230002435F582E43A1262D0C5
:1058E300A3F0E82403023011241EF582E422F58399
:1058F300125900F022125900A3A3A3F022E08882D8
:105903008983228A828B83A3A3A3A3A3A3A3A3E054
:10591300FCA3E0CC2432F582E43CF58322E0125967
:105923002522FCA3E0CC2425F582E43CF583E02288
:10593300F090155CE0221264D4E022F582E43DF598
:105943008312590012594B221264D8125956228ECF
:10595300828F83E0FDA3E0CD22A312594B242CF5C3
:1059630082E43DF58322C082C0838A828B83125AEC
:105973002BFC74035CF98A828B83A3A37401F0E983
:1059830060057402697061740C5CF8600A740868DD
:10599300600574046870137402697005ECA2E44036
:1059A300098A828B83A3A37402F0740C68700A8A39
:1059B300828B83A3A3E02402F07402697005ECA236
:1059C300E440258A828B83A3A3E02404F0E8600FDC
:1059D300740868600A740C68600574046870098A46
:1059E300828B83A3A3E004F0ECA2E7502A8A828B84
:1059F30083A3A3E004125A3112350AE0540360175B
:105A03008A828B83A3A3E004F0ECA2E150098A828B
:105A13008B83A3A3E004F08A828B83A3A3E004F027
:105A23008016852182852283125258A3E022F08AB0
:105A3300828B83E02212101BD083D082020FB0C06E
:105A430082C0838A828B83A3A3A3A3A3A3A3A3A3B9
:105A5300A312516C60098A828B83A3A3125A6480B8
:105A6300D7A3A3A3A3A3A3A3A3125A7022124B6287
:105A730012181422125A7B22EE240CF582E43FF50D
:105A8300832274F6120B2074F4121099125BC0FC7B
:105A9300A3E0F5838C82A3E0C0E0740212131BD051
:105AA300E0125C6E125C57740412131B126C3A748E
:105AB3000212131BE064047014125BD62412125BEF
:105AC300B9740612131B125B9D241A8035E064011E
:105AD3006005E064067039EA2402F8E43B122FFB08
:105AE300125B803AF583E0C0E0740312131BD0E02D
:105AF300125B8E2413125BB9740612131B125B9D87
:105B0300241B125C57740812131BE8F0A3E9802BC3
:105B1300740612131BE4F0A3125BD12412125BB9B7
:105B2300740812131B125BAAC8241AF582E438F511
:105B330083E0C0E0740A12131BD0E0F07406121362
